{
	"src/MerkleSalaryClaim.sol": {
		"MerkleSalaryClaim": {
			"abi": [
				{
					"inputs": [],
					"name": "AlreadyClaimed",
					"type": "error"
				},
				{
					"inputs": [],
					"name": "NotInMerkle",
					"type": "error"
				},
				{
					"anonymous": false,
					"inputs": [
						{
							"indexed": false,
							"internalType": "address",
							"name": "",
							"type": "address"
						},
						{
							"indexed": false,
							"internalType": "uint256",
							"name": "",
							"type": "uint256"
						}
					],
					"name": "Claim",
					"type": "event"
				},
				{
					"anonymous": false,
					"inputs": [
						{
							"indexed": true,
							"internalType": "address",
							"name": "previousOwner",
							"type": "address"
						},
						{
							"indexed": true,
							"internalType": "address",
							"name": "newOwner",
							"type": "address"
						}
					],
					"name": "OwnershipTransferred",
					"type": "event"
				},
				{
					"anonymous": false,
					"inputs": [
						{
							"indexed": true,
							"internalType": "address",
							"name": "newPayroll",
							"type": "address"
						}
					],
					"name": "payrollCreated",
					"type": "event"
				},
				{
					"inputs": [
						{
							"internalType": "address",
							"name": "_employee",
							"type": "address"
						},
						{
							"internalType": "uint256",
							"name": "_salary",
							"type": "uint256"
						}
					],
					"name": "AddEmployees",
					"outputs": [
						{
							"components": [
								{
									"internalType": "address",
									"name": "employee",
									"type": "address"
								},
								{
									"internalType": "uint256",
									"name": "salary",
									"type": "uint256"
								}
							],
							"internalType": "struct MerkleSalaryClaim.Staff[]",
							"name": "_staffsPayroll",
							"type": "tuple[]"
						}
					],
					"stateMutability": "nonpayable",
					"type": "function"
				},
				{
					"inputs": [],
					"name": "CreatePayroll",
					"outputs": [],
					"stateMutability": "nonpayable",
					"type": "function"
				},
				{
					"inputs": [
						{
							"internalType": "uint256",
							"name": "",
							"type": "uint256"
						}
					],
					"name": "StaffsPayroll",
					"outputs": [
						{
							"internalType": "address",
							"name": "employee",
							"type": "address"
						},
						{
							"internalType": "uint256",
							"name": "salary",
							"type": "uint256"
						}
					],
					"stateMutability": "view",
					"type": "function"
				},
				{
					"inputs": [],
					"name": "bizName",
					"outputs": [
						{
							"internalType": "string",
							"name": "",
							"type": "string"
						}
					],
					"stateMutability": "view",
					"type": "function"
				},
				{
					"inputs": [],
					"name": "bizSymb",
					"outputs": [
						{
							"internalType": "string",
							"name": "",
							"type": "string"
						}
					],
					"stateMutability": "view",
					"type": "function"
				},
				{
					"inputs": [
						{
							"internalType": "uint256",
							"name": "amount",
							"type": "uint256"
						},
						{
							"internalType": "bytes32[]",
							"name": "proof",
							"type": "bytes32[]"
						}
					],
					"name": "claim",
					"outputs": [],
					"stateMutability": "payable",
					"type": "function"
				},
				{
					"inputs": [
						{
							"internalType": "address",
							"name": "",
							"type": "address"
						}
					],
					"name": "hasClaimedSalary",
					"outputs": [
						{
							"internalType": "bool",
							"name": "",
							"type": "bool"
						}
					],
					"stateMutability": "view",
					"type": "function"
				},
				{
					"inputs": [],
					"name": "owner",
					"outputs": [
						{
							"internalType": "address",
							"name": "",
							"type": "address"
						}
					],
					"stateMutability": "view",
					"type": "function"
				},
				{
					"inputs": [],
					"name": "payrollAddress",
					"outputs": [
						{
							"internalType": "address",
							"name": "",
							"type": "address"
						}
					],
					"stateMutability": "view",
					"type": "function"
				},
				{
					"inputs": [],
					"name": "renounceOwnership",
					"outputs": [],
					"stateMutability": "nonpayable",
					"type": "function"
				},
				{
					"inputs": [],
					"name": "seeEMployees",
					"outputs": [
						{
							"components": [
								{
									"internalType": "address",
									"name": "employee",
									"type": "address"
								},
								{
									"internalType": "uint256",
									"name": "salary",
									"type": "uint256"
								}
							],
							"internalType": "struct MerkleSalaryClaim.Staff[]",
							"name": "_staffsPayroll",
							"type": "tuple[]"
						}
					],
					"stateMutability": "view",
					"type": "function"
				},
				{
					"inputs": [],
					"name": "setPayement",
					"outputs": [],
					"stateMutability": "payable",
					"type": "function"
				},
				{
					"inputs": [],
					"name": "transferOut",
					"outputs": [],
					"stateMutability": "nonpayable",
					"type": "function"
				},
				{
					"inputs": [
						{
							"internalType": "address",
							"name": "newOwner",
							"type": "address"
						}
					],
					"name": "transferOwnership",
					"outputs": [],
					"stateMutability": "nonpayable",
					"type": "function"
				},
				{
					"inputs": [
						{
							"internalType": "bytes32",
							"name": "_merkleRoot",
							"type": "bytes32"
						}
					],
					"name": "updateMerkleRoot",
					"outputs": [],
					"stateMutability": "nonpayable",
					"type": "function"
				},
				{
					"stateMutability": "payable",
					"type": "receive"
				}
			],
			"devdoc": {
				"kind": "dev",
				"methods": {
					"owner()": {
						"details": "Returns the address of the current owner."
					},
					"renounceOwnership()": {
						"details": "Leaves the contract without owner. It will not be possible to call `onlyOwner` functions anymore. Can only be called by the current owner. NOTE: Renouncing ownership will leave the contract without an owner, thereby removing any functionality that is only available to the owner."
					},
					"transferOwnership(address)": {
						"details": "Transfers ownership of the contract to a new account (`newOwner`). Can only be called by the current owner."
					}
				},
				"version": 1
			},
			"evm": {
				"assembly": "    /* \"src/MerkleSalaryClaim.sol\":457:3602  contract MerkleSalaryClaim is Ownable {... */\n  mstore(0x40, 0x80)\n  callvalue\n  dup1\n  iszero\n  tag_1\n  jumpi\n  0x00\n  dup1\n  revert\ntag_1:\n  pop\n    /* \"https://github.com/OpenZeppelin/openzeppelin-contracts/contracts/access/Ownable.sol\":921:953  _transferOwnership(_msgSender()) */\n  tag_4\n    /* \"https://github.com/OpenZeppelin/openzeppelin-contracts/contracts/access/Ownable.sol\":940:952  _msgSender() */\n  tag_5\n    /* \"https://github.com/OpenZeppelin/openzeppelin-contracts/contracts/access/Ownable.sol\":940:950  _msgSender */\n  shl(0x20, tag_6)\n    /* \"https://github.com/OpenZeppelin/openzeppelin-contracts/contracts/access/Ownable.sol\":940:952  _msgSender() */\n  0x20\n  shr\n  jump\t// in\ntag_5:\n    /* \"https://github.com/OpenZeppelin/openzeppelin-contracts/contracts/access/Ownable.sol\":921:939  _transferOwnership */\n  shl(0x20, tag_7)\n    /* \"https://github.com/OpenZeppelin/openzeppelin-contracts/contracts/access/Ownable.sol\":921:953  _transferOwnership(_msgSender()) */\n  0x20\n  shr\n  jump\t// in\ntag_4:\n    /* \"src/MerkleSalaryClaim.sol\":457:3602  contract MerkleSalaryClaim is Ownable {... */\n  jump(tag_8)\n    /* \"https://github.com/OpenZeppelin/openzeppelin-contracts/contracts/utils/Context.sol\":640:736  function _msgSender() internal view virtual returns (address) {... */\ntag_6:\n    /* \"https://github.com/OpenZeppelin/openzeppelin-contracts/contracts/utils/Context.sol\":693:700  address */\n  0x00\n    /* \"https://github.com/OpenZeppelin/openzeppelin-contracts/contracts/utils/Context.sol\":719:729  msg.sender */\n  caller\n    /* \"https://github.com/OpenZeppelin/openzeppelin-contracts/contracts/utils/Context.sol\":712:729  return msg.sender */\n  swap1\n  pop\n    /* \"https://github.com/OpenZeppelin/openzeppelin-contracts/contracts/utils/Context.sol\":640:736  function _msgSender() internal view virtual returns (address) {... */\n  swap1\n  jump\t// out\n    /* \"https://github.com/OpenZeppelin/openzeppelin-contracts/contracts/access/Ownable.sol\":2270:2457  function _transferOwnership(address newOwner) internal virtual {... */\ntag_7:\n    /* \"https://github.com/OpenZeppelin/openzeppelin-contracts/contracts/access/Ownable.sol\":2343:2359  address oldOwner */\n  0x00\n    /* \"https://github.com/OpenZeppelin/openzeppelin-contracts/contracts/access/Ownable.sol\":2362:2368  _owner */\n  dup1\n  0x00\n  swap1\n  sload\n  swap1\n  0x0100\n  exp\n  swap1\n  div\n  0xffffffffffffffffffffffffffffffffffffffff\n  and\n    /* \"https://github.com/OpenZeppelin/openzeppelin-contracts/contracts/access/Ownable.sol\":2343:2368  address oldOwner = _owner */\n  swap1\n  pop\n    /* \"https://github.com/OpenZeppelin/openzeppelin-contracts/contracts/access/Ownable.sol\":2387:2395  newOwner */\n  dup2\n    /* \"https://github.com/OpenZeppelin/openzeppelin-contracts/contracts/access/Ownable.sol\":2378:2384  _owner */\n  0x00\n  dup1\n    /* \"https://github.com/OpenZeppelin/openzeppelin-contracts/contracts/access/Ownable.sol\":2378:2395  _owner = newOwner */\n  0x0100\n  exp\n  dup2\n  sload\n  dup2\n  0xffffffffffffffffffffffffffffffffffffffff\n  mul\n  not\n  and\n  swap1\n  dup4\n  0xffffffffffffffffffffffffffffffffffffffff\n  and\n  mul\n  or\n  swap1\n  sstore\n  pop\n    /* \"https://github.com/OpenZeppelin/openzeppelin-contracts/contracts/access/Ownable.sol\":2441:2449  newOwner */\n  dup2\n    /* \"https://github.com/OpenZeppelin/openzeppelin-contracts/contracts/access/Ownable.sol\":2410:2450  OwnershipTransferred(oldOwner, newOwner) */\n  0xffffffffffffffffffffffffffffffffffffffff\n  and\n    /* \"https://github.com/OpenZeppelin/openzeppelin-contracts/contracts/access/Ownable.sol\":2431:2439  oldOwner */\n  dup2\n    /* \"https://github.com/OpenZeppelin/openzeppelin-contracts/contracts/access/Ownable.sol\":2410:2450  OwnershipTransferred(oldOwner, newOwner) */\n  0xffffffffffffffffffffffffffffffffffffffff\n  and\n  0x8be0079c531659141344cd1fd0a4f28419497f9722a3daafe3b4186f6b6457e0\n  mload(0x40)\n  mload(0x40)\n  dup1\n  swap2\n  sub\n  swap1\n  log3\n    /* \"https://github.com/OpenZeppelin/openzeppelin-contracts/contracts/access/Ownable.sol\":2333:2457  {... */\n  pop\n    /* \"https://github.com/OpenZeppelin/openzeppelin-contracts/contracts/access/Ownable.sol\":2270:2457  function _transferOwnership(address newOwner) internal virtual {... */\n  pop\n  jump\t// out\n    /* \"src/MerkleSalaryClaim.sol\":457:3602  contract MerkleSalaryClaim is Ownable {... */\ntag_8:\n  dataSize(sub_0)\n  dup1\n  dataOffset(sub_0)\n  0x00\n  codecopy\n  0x00\n  return\nstop\n\nsub_0: assembly {\n        /* \"src/MerkleSalaryClaim.sol\":457:3602  contract MerkleSalaryClaim is Ownable {... */\n      mstore(0x40, 0x80)\n      jumpi(tag_1, lt(calldatasize, 0x04))\n      shr(0xe0, calldataload(0x00))\n      dup1\n      0x715018a6\n      gt\n      tag_18\n      jumpi\n      dup1\n      0xa74da609\n      gt\n      tag_19\n      jumpi\n      dup1\n      0xa74da609\n      eq\n      tag_14\n      jumpi\n      dup1\n      0xc10f410b\n      eq\n      tag_15\n      jumpi\n      dup1\n      0xd56d511c\n      eq\n      tag_16\n      jumpi\n      dup1\n      0xf2fde38b\n      eq\n      tag_17\n      jumpi\n      jump(tag_2)\n    tag_19:\n      dup1\n      0x715018a6\n      eq\n      tag_10\n      jumpi\n      dup1\n      0x798bdfd1\n      eq\n      tag_11\n      jumpi\n      dup1\n      0x8da5cb5b\n      eq\n      tag_12\n      jumpi\n      dup1\n      0xa5109f7b\n      eq\n      tag_13\n      jumpi\n      jump(tag_2)\n    tag_18:\n      dup1\n      0x41f4921e\n      gt\n      tag_20\n      jumpi\n      dup1\n      0x41f4921e\n      eq\n      tag_6\n      jumpi\n      dup1\n      0x4783f0ef\n      eq\n      tag_7\n      jumpi\n      dup1\n      0x49ce5a0f\n      eq\n      tag_8\n      jumpi\n      dup1\n      0x5ab37a4c\n      eq\n      tag_9\n      jumpi\n      jump(tag_2)\n    tag_20:\n      dup1\n      0x129fa0fe\n      eq\n      tag_3\n      jumpi\n      dup1\n      0x21aee358\n      eq\n      tag_4\n      jumpi\n      dup1\n      0x2f52ebb7\n      eq\n      tag_5\n      jumpi\n      jump(tag_2)\n    tag_1:\n      jumpi(tag_2, calldatasize)\n      stop\n    tag_2:\n      0x00\n      dup1\n      revert\n        /* \"src/MerkleSalaryClaim.sol\":3255:3377  function seeEMployees() public view returns(Staff[] memory _staffsPayroll){... */\n    tag_3:\n      callvalue\n      dup1\n      iszero\n      tag_23\n      jumpi\n      0x00\n      dup1\n      revert\n    tag_23:\n      pop\n      tag_24\n      tag_25\n      jump\t// in\n    tag_24:\n      mload(0x40)\n      tag_26\n      swap2\n      swap1\n      tag_27\n      jump\t// in\n    tag_26:\n      mload(0x40)\n      dup1\n      swap2\n      sub\n      swap1\n      return\n        /* \"src/MerkleSalaryClaim.sol\":499:528  address public payrollAddress */\n    tag_4:\n      callvalue\n      dup1\n      iszero\n      tag_28\n      jumpi\n      0x00\n      dup1\n      revert\n    tag_28:\n      pop\n      tag_29\n      tag_30\n      jump\t// in\n    tag_29:\n      mload(0x40)\n      tag_31\n      swap2\n      swap1\n      tag_32\n      jump\t// in\n    tag_31:\n      mload(0x40)\n      dup1\n      swap2\n      sub\n      swap1\n      return\n        /* \"src/MerkleSalaryClaim.sol\":1680:2517  function claim(uint256 amount, bytes32[] calldata proof) external payable {... */\n    tag_5:\n      tag_33\n      0x04\n      dup1\n      calldatasize\n      sub\n      dup2\n      add\n      swap1\n      tag_34\n      swap2\n      swap1\n      tag_35\n      jump\t// in\n    tag_34:\n      tag_36\n      jump\t// in\n    tag_33:\n      stop\n        /* \"src/MerkleSalaryClaim.sol\":864:892  Staff[] public StaffsPayroll */\n    tag_6:\n      callvalue\n      dup1\n      iszero\n      tag_37\n      jumpi\n      0x00\n      dup1\n      revert\n    tag_37:\n      pop\n      tag_38\n      0x04\n      dup1\n      calldatasize\n      sub\n      dup2\n      add\n      swap1\n      tag_39\n      swap2\n      swap1\n      tag_40\n      jump\t// in\n    tag_39:\n      tag_41\n      jump\t// in\n    tag_38:\n      mload(0x40)\n      tag_42\n      swap3\n      swap2\n      swap1\n      tag_43\n      jump\t// in\n    tag_42:\n      mload(0x40)\n      dup1\n      swap2\n      sub\n      swap1\n      return\n        /* \"src/MerkleSalaryClaim.sol\":1570:1674  function updateMerkleRoot(bytes32 _merkleRoot) public onlyOwner{... */\n    tag_7:\n      callvalue\n      dup1\n      iszero\n      tag_44\n      jumpi\n      0x00\n      dup1\n      revert\n    tag_44:\n      pop\n      tag_45\n      0x04\n      dup1\n      calldatasize\n      sub\n      dup2\n      add\n      swap1\n      tag_46\n      swap2\n      swap1\n      tag_47\n      jump\t// in\n    tag_46:\n      tag_48\n      jump\t// in\n    tag_45:\n      stop\n        /* \"src/MerkleSalaryClaim.sol\":764:785  string public bizSymb */\n    tag_8:\n      callvalue\n      dup1\n      iszero\n      tag_49\n      jumpi\n      0x00\n      dup1\n      revert\n    tag_49:\n      pop\n      tag_50\n      tag_51\n      jump\t// in\n    tag_50:\n      mload(0x40)\n      tag_52\n      swap2\n      swap1\n      tag_53\n      jump\t// in\n    tag_52:\n      mload(0x40)\n      dup1\n      swap2\n      sub\n      swap1\n      return\n        /* \"src/MerkleSalaryClaim.sol\":737:758  string public bizName */\n    tag_9:\n      callvalue\n      dup1\n      iszero\n      tag_54\n      jumpi\n      0x00\n      dup1\n      revert\n    tag_54:\n      pop\n      tag_55\n      tag_56\n      jump\t// in\n    tag_55:\n      mload(0x40)\n      tag_57\n      swap2\n      swap1\n      tag_53\n      jump\t// in\n    tag_57:\n      mload(0x40)\n      dup1\n      swap2\n      sub\n      swap1\n      return\n        /* \"https://github.com/OpenZeppelin/openzeppelin-contracts/contracts/access/Ownable.sol\":1668:1769  function renounceOwnership() public virtual onlyOwner {... */\n    tag_10:\n      callvalue\n      dup1\n      iszero\n      tag_58\n      jumpi\n      0x00\n      dup1\n      revert\n    tag_58:\n      pop\n      tag_59\n      tag_60\n      jump\t// in\n    tag_59:\n      stop\n        /* \"src/MerkleSalaryClaim.sol\":1008:1056  mapping(address => bool) public hasClaimedSalary */\n    tag_11:\n      callvalue\n      dup1\n      iszero\n      tag_61\n      jumpi\n      0x00\n      dup1\n      revert\n    tag_61:\n      pop\n      tag_62\n      0x04\n      dup1\n      calldatasize\n      sub\n      dup2\n      add\n      swap1\n      tag_63\n      swap2\n      swap1\n      tag_64\n      jump\t// in\n    tag_63:\n      tag_65\n      jump\t// in\n    tag_62:\n      mload(0x40)\n      tag_66\n      swap2\n      swap1\n      tag_67\n      jump\t// in\n    tag_66:\n      mload(0x40)\n      dup1\n      swap2\n      sub\n      swap1\n      return\n        /* \"https://github.com/OpenZeppelin/openzeppelin-contracts/contracts/access/Ownable.sol\":1036:1121  function owner() public view virtual returns (address) {... */\n    tag_12:\n      callvalue\n      dup1\n      iszero\n      tag_68\n      jumpi\n      0x00\n      dup1\n      revert\n    tag_68:\n      pop\n      tag_69\n      tag_70\n      jump\t// in\n    tag_69:\n      mload(0x40)\n      tag_71\n      swap2\n      swap1\n      tag_32\n      jump\t// in\n    tag_71:\n      mload(0x40)\n      dup1\n      swap2\n      sub\n      swap1\n      return\n        /* \"src/MerkleSalaryClaim.sol\":3414:3591  function CreatePayroll() public {... */\n    tag_13:\n      callvalue\n      dup1\n      iszero\n      tag_72\n      jumpi\n      0x00\n      dup1\n      revert\n    tag_72:\n      pop\n      tag_73\n      tag_74\n      jump\t// in\n    tag_73:\n      stop\n        /* \"src/MerkleSalaryClaim.sol\":2522:2724  function setPayement() external payable onlyOwner{... */\n    tag_14:\n      tag_75\n      tag_76\n      jump\t// in\n    tag_75:\n      stop\n        /* \"src/MerkleSalaryClaim.sol\":2755:2976  function transferOut() public onlyOwner{... */\n    tag_15:\n      callvalue\n      dup1\n      iszero\n      tag_77\n      jumpi\n      0x00\n      dup1\n      revert\n    tag_77:\n      pop\n      tag_78\n      tag_79\n      jump\t// in\n    tag_78:\n      stop\n        /* \"src/MerkleSalaryClaim.sol\":2981:3250  function AddEmployees(address _employee, uint _salary) public onlyOwner returns (Staff[] memory _staffsPayroll){... */\n    tag_16:\n      callvalue\n      dup1\n      iszero\n      tag_80\n      jumpi\n      0x00\n      dup1\n      revert\n    tag_80:\n      pop\n      tag_81\n      0x04\n      dup1\n      calldatasize\n      sub\n      dup2\n      add\n      swap1\n      tag_82\n      swap2\n      swap1\n      tag_83\n      jump\t// in\n    tag_82:\n      tag_84\n      jump\t// in\n    tag_81:\n      mload(0x40)\n      tag_85\n      swap2\n      swap1\n      tag_27\n      jump\t// in\n    tag_85:\n      mload(0x40)\n      dup1\n      swap2\n      sub\n      swap1\n      return\n        /* \"https://github.com/OpenZeppelin/openzeppelin-contracts/contracts/access/Ownable.sol\":1918:2116  function transferOwnership(address newOwner) public virtual onlyOwner {... */\n    tag_17:\n      callvalue\n      dup1\n      iszero\n      tag_86\n      jumpi\n      0x00\n      dup1\n      revert\n    tag_86:\n      pop\n      tag_87\n      0x04\n      dup1\n      calldatasize\n      sub\n      dup2\n      add\n      swap1\n      tag_88\n      swap2\n      swap1\n      tag_64\n      jump\t// in\n    tag_88:\n      tag_89\n      jump\t// in\n    tag_87:\n      stop\n        /* \"src/MerkleSalaryClaim.sol\":3255:3377  function seeEMployees() public view returns(Staff[] memory _staffsPayroll){... */\n    tag_25:\n        /* \"src/MerkleSalaryClaim.sol\":3299:3328  Staff[] memory _staffsPayroll */\n      0x60\n        /* \"src/MerkleSalaryClaim.sol\":3356:3369  StaffsPayroll */\n      0x08\n        /* \"src/MerkleSalaryClaim.sol\":3339:3369  _staffsPayroll = StaffsPayroll */\n      dup1\n      sload\n      dup1\n      0x20\n      mul\n      0x20\n      add\n      mload(0x40)\n      swap1\n      dup2\n      add\n      0x40\n      mstore\n      dup1\n      swap3\n      swap2\n      swap1\n      dup2\n      dup2\n      mstore\n      0x20\n      add\n      0x00\n      swap1\n    tag_91:\n      dup3\n      dup3\n      lt\n      iszero\n      tag_92\n      jumpi\n      dup4\n      dup3\n      swap1\n      0x00\n      mstore\n      keccak256(0x00, 0x20)\n      swap1\n      0x02\n      mul\n      add\n      mload(0x40)\n      dup1\n      0x40\n      add\n      0x40\n      mstore\n      swap1\n      dup2\n      0x00\n      dup3\n      add\n      0x00\n      swap1\n      sload\n      swap1\n      0x0100\n      exp\n      swap1\n      div\n      0xffffffffffffffffffffffffffffffffffffffff\n      and\n      0xffffffffffffffffffffffffffffffffffffffff\n      and\n      0xffffffffffffffffffffffffffffffffffffffff\n      and\n      dup2\n      mstore\n      0x20\n      add\n      0x01\n      dup3\n      add\n      sload\n      dup2\n      mstore\n      pop\n      pop\n      dup2\n      mstore\n      0x20\n      add\n      swap1\n      0x01\n      add\n      swap1\n      jump(tag_91)\n    tag_92:\n      pop\n      pop\n      pop\n      pop\n      swap1\n      pop\n        /* \"src/MerkleSalaryClaim.sol\":3255:3377  function seeEMployees() public view returns(Staff[] memory _staffsPayroll){... */\n      swap1\n      jump\t// out\n        /* \"src/MerkleSalaryClaim.sol\":499:528  address public payrollAddress */\n    tag_30:\n      0x01\n      0x00\n      swap1\n      sload\n      swap1\n      0x0100\n      exp\n      swap1\n      div\n      0xffffffffffffffffffffffffffffffffffffffff\n      and\n      dup2\n      jump\t// out\n        /* \"src/MerkleSalaryClaim.sol\":1680:2517  function claim(uint256 amount, bytes32[] calldata proof) external payable {... */\n    tag_36:\n        /* \"src/MerkleSalaryClaim.sol\":1832:1847  activatePayment */\n      0x04\n      0x00\n      swap1\n      sload\n      swap1\n      0x0100\n      exp\n      swap1\n      div\n      0xff\n      and\n        /* \"src/MerkleSalaryClaim.sol\":1824:1869  require(activatePayment, \"not pament period\") */\n      tag_95\n      jumpi\n      mload(0x40)\n      0x08c379a000000000000000000000000000000000000000000000000000000000\n      dup2\n      mstore\n      0x04\n      add\n      tag_96\n      swap1\n      tag_97\n      jump\t// in\n    tag_96:\n      mload(0x40)\n      dup1\n      swap2\n      sub\n      swap1\n      revert\n    tag_95:\n        /* \"src/MerkleSalaryClaim.sol\":1965:1972  1209600 */\n      0x127500\n        /* \"src/MerkleSalaryClaim.sol\":1952:1961  startTime */\n      sload(0x05)\n        /* \"src/MerkleSalaryClaim.sol\":1934:1949  block.timestamp */\n      timestamp\n        /* \"src/MerkleSalaryClaim.sol\":1934:1961  block.timestamp - startTime */\n      tag_98\n      swap2\n      swap1\n      tag_99\n      jump\t// in\n    tag_98:\n        /* \"src/MerkleSalaryClaim.sol\":1934:1972  block.timestamp - startTime <= 1209600 */\n      gt\n      iszero\n        /* \"src/MerkleSalaryClaim.sol\":1926:2005  require(block.timestamp - startTime <= 1209600, \"time to claim salary elapsed\") */\n      tag_100\n      jumpi\n      mload(0x40)\n      0x08c379a000000000000000000000000000000000000000000000000000000000\n      dup2\n      mstore\n      0x04\n      add\n      tag_101\n      swap1\n      tag_102\n      jump\t// in\n    tag_101:\n      mload(0x40)\n      dup1\n      swap2\n      sub\n      swap1\n      revert\n    tag_100:\n        /* \"src/MerkleSalaryClaim.sol\":2079:2095  hasClaimedSalary */\n      0x09\n        /* \"src/MerkleSalaryClaim.sol\":2079:2107  hasClaimedSalary[msg.sender] */\n      0x00\n        /* \"src/MerkleSalaryClaim.sol\":2096:2106  msg.sender */\n      caller\n        /* \"src/MerkleSalaryClaim.sol\":2079:2107  hasClaimedSalary[msg.sender] */\n      0xffffffffffffffffffffffffffffffffffffffff\n      and\n      0xffffffffffffffffffffffffffffffffffffffff\n      and\n      dup2\n      mstore\n      0x20\n      add\n      swap1\n      dup2\n      mstore\n      0x20\n      add\n      0x00\n      keccak256\n      0x00\n      swap1\n      sload\n      swap1\n      0x0100\n      exp\n      swap1\n      div\n      0xff\n      and\n        /* \"src/MerkleSalaryClaim.sol\":2076:2132  if(hasClaimedSalary[msg.sender]) revert AlreadyClaimed() */\n      iszero\n      tag_103\n      jumpi\n        /* \"src/MerkleSalaryClaim.sol\":2116:2132  AlreadyClaimed() */\n      mload(0x40)\n      0x646cf55800000000000000000000000000000000000000000000000000000000\n      dup2\n      mstore\n      0x04\n      add\n      mload(0x40)\n      dup1\n      swap2\n      sub\n      swap1\n      revert\n        /* \"src/MerkleSalaryClaim.sol\":2076:2132  if(hasClaimedSalary[msg.sender]) revert AlreadyClaimed() */\n    tag_103:\n        /* \"src/MerkleSalaryClaim.sol\":2146:2158  bytes32 leaf */\n      0x00\n        /* \"src/MerkleSalaryClaim.sol\":2188:2198  msg.sender */\n      caller\n        /* \"src/MerkleSalaryClaim.sol\":2200:2206  amount */\n      dup5\n        /* \"src/MerkleSalaryClaim.sol\":2171:2207  abi.encodePacked(msg.sender, amount) */\n      add(0x20, mload(0x40))\n      tag_104\n      swap3\n      swap2\n      swap1\n      tag_105\n      jump\t// in\n    tag_104:\n      mload(0x40)\n      0x20\n      dup2\n      dup4\n      sub\n      sub\n      dup2\n      mstore\n      swap1\n      0x40\n      mstore\n        /* \"src/MerkleSalaryClaim.sol\":2161:2208  keccak256(abi.encodePacked(msg.sender, amount)) */\n      dup1\n      mload\n      swap1\n      0x20\n      add\n      keccak256\n        /* \"src/MerkleSalaryClaim.sol\":2146:2208  bytes32 leaf = keccak256(abi.encodePacked(msg.sender, amount)) */\n      swap1\n      pop\n        /* \"src/MerkleSalaryClaim.sol\":2222:2238  bool isValidLeaf */\n      0x00\n        /* \"src/MerkleSalaryClaim.sol\":2241:2284  MerkleProof.verify(proof, merkleRoot, leaf) */\n      tag_106\n        /* \"src/MerkleSalaryClaim.sol\":2260:2265  proof */\n      dup5\n      dup5\n        /* \"src/MerkleSalaryClaim.sol\":2241:2284  MerkleProof.verify(proof, merkleRoot, leaf) */\n      dup1\n      dup1\n      0x20\n      mul\n      0x20\n      add\n      mload(0x40)\n      swap1\n      dup2\n      add\n      0x40\n      mstore\n      dup1\n      swap4\n      swap3\n      swap2\n      swap1\n      dup2\n      dup2\n      mstore\n      0x20\n      add\n      dup4\n      dup4\n      0x20\n      mul\n      dup1\n      dup3\n      dup5\n      calldatacopy\n      0x00\n      dup2\n      dup5\n      add\n      mstore\n      not(0x1f)\n      0x1f\n      dup3\n      add\n      and\n      swap1\n      pop\n      dup1\n      dup4\n      add\n      swap3\n      pop\n      pop\n      pop\n      pop\n      pop\n      pop\n      pop\n        /* \"src/MerkleSalaryClaim.sol\":2267:2277  merkleRoot */\n      sload(0x03)\n        /* \"src/MerkleSalaryClaim.sol\":2279:2283  leaf */\n      dup5\n        /* \"src/MerkleSalaryClaim.sol\":2241:2259  MerkleProof.verify */\n      tag_107\n        /* \"src/MerkleSalaryClaim.sol\":2241:2284  MerkleProof.verify(proof, merkleRoot, leaf) */\n      jump\t// in\n    tag_106:\n        /* \"src/MerkleSalaryClaim.sol\":2222:2284  bool isValidLeaf = MerkleProof.verify(proof, merkleRoot, leaf) */\n      swap1\n      pop\n        /* \"src/MerkleSalaryClaim.sol\":2302:2313  isValidLeaf */\n      dup1\n        /* \"src/MerkleSalaryClaim.sol\":2298:2335  if(!isValidLeaf) revert NotInMerkle() */\n      tag_108\n      jumpi\n        /* \"src/MerkleSalaryClaim.sol\":2322:2335  NotInMerkle() */\n      mload(0x40)\n      0x8a585be200000000000000000000000000000000000000000000000000000000\n      dup2\n      mstore\n      0x04\n      add\n      mload(0x40)\n      dup1\n      swap2\n      sub\n      swap1\n      revert\n        /* \"src/MerkleSalaryClaim.sol\":2298:2335  if(!isValidLeaf) revert NotInMerkle() */\n    tag_108:\n        /* \"src/MerkleSalaryClaim.sol\":2380:2384  true */\n      0x01\n        /* \"src/MerkleSalaryClaim.sol\":2349:2365  hasClaimedSalary */\n      0x09\n        /* \"src/MerkleSalaryClaim.sol\":2349:2377  hasClaimedSalary[msg.sender] */\n      0x00\n        /* \"src/MerkleSalaryClaim.sol\":2366:2376  msg.sender */\n      caller\n        /* \"src/MerkleSalaryClaim.sol\":2349:2377  hasClaimedSalary[msg.sender] */\n      0xffffffffffffffffffffffffffffffffffffffff\n      and\n      0xffffffffffffffffffffffffffffffffffffffff\n      and\n      dup2\n      mstore\n      0x20\n      add\n      swap1\n      dup2\n      mstore\n      0x20\n      add\n      0x00\n      keccak256\n      0x00\n        /* \"src/MerkleSalaryClaim.sol\":2349:2384  hasClaimedSalary[msg.sender] = true */\n      0x0100\n      exp\n      dup2\n      sload\n      dup2\n      0xff\n      mul\n      not\n      and\n      swap1\n      dup4\n      iszero\n      iszero\n      mul\n      or\n      swap1\n      sstore\n      pop\n        /* \"src/MerkleSalaryClaim.sol\":2406:2416  msg.sender */\n      caller\n        /* \"src/MerkleSalaryClaim.sol\":2398:2426  payable(msg.sender).transfer */\n      0xffffffffffffffffffffffffffffffffffffffff\n      and\n        /* \"src/MerkleSalaryClaim.sol\":2398:2434  payable(msg.sender).transfer(amount) */\n      0x08fc\n        /* \"src/MerkleSalaryClaim.sol\":2427:2433  amount */\n      dup7\n        /* \"src/MerkleSalaryClaim.sol\":2398:2434  payable(msg.sender).transfer(amount) */\n      swap1\n      dup2\n      iszero\n      mul\n      swap1\n      mload(0x40)\n      0x00\n      mload(0x40)\n      dup1\n      dup4\n      sub\n      dup2\n      dup6\n      dup9\n      dup9\n      call\n      swap4\n      pop\n      pop\n      pop\n      pop\n      iszero\n      dup1\n      iszero\n      tag_110\n      jumpi\n      returndatasize\n      0x00\n      dup1\n      returndatacopy\n      revert(0x00, returndatasize)\n    tag_110:\n      pop\n        /* \"src/MerkleSalaryClaim.sol\":2485:2510  Claim(msg.sender, amount) */\n      0x47cee97cb7acd717b3c0aa1435d004cd5b3c8c57d70dbceb4e4458bbd60e39d4\n        /* \"src/MerkleSalaryClaim.sol\":2491:2501  msg.sender */\n      caller\n        /* \"src/MerkleSalaryClaim.sol\":2503:2509  amount */\n      dup7\n        /* \"src/MerkleSalaryClaim.sol\":2485:2510  Claim(msg.sender, amount) */\n      mload(0x40)\n      tag_111\n      swap3\n      swap2\n      swap1\n      tag_43\n      jump\t// in\n    tag_111:\n      mload(0x40)\n      dup1\n      swap2\n      sub\n      swap1\n      log1\n        /* \"src/MerkleSalaryClaim.sol\":1754:2517  {... */\n      pop\n      pop\n        /* \"src/MerkleSalaryClaim.sol\":1680:2517  function claim(uint256 amount, bytes32[] calldata proof) external payable {... */\n      pop\n      pop\n      pop\n      jump\t// out\n        /* \"src/MerkleSalaryClaim.sol\":864:892  Staff[] public StaffsPayroll */\n    tag_41:\n      0x08\n      dup2\n      dup2\n      sload\n      dup2\n      lt\n      tag_112\n      jumpi\n      0x00\n      dup1\n      revert\n    tag_112:\n      swap1\n      0x00\n      mstore\n      keccak256(0x00, 0x20)\n      swap1\n      0x02\n      mul\n      add\n      0x00\n      swap2\n      pop\n      swap1\n      pop\n      dup1\n      0x00\n      add\n      0x00\n      swap1\n      sload\n      swap1\n      0x0100\n      exp\n      swap1\n      div\n      0xffffffffffffffffffffffffffffffffffffffff\n      and\n      swap1\n      dup1\n      0x01\n      add\n      sload\n      swap1\n      pop\n      dup3\n      jump\t// out\n        /* \"src/MerkleSalaryClaim.sol\":1570:1674  function updateMerkleRoot(bytes32 _merkleRoot) public onlyOwner{... */\n    tag_48:\n        /* \"https://github.com/OpenZeppelin/openzeppelin-contracts/contracts/access/Ownable.sol\":1259:1271  _msgSender() */\n      tag_115\n        /* \"https://github.com/OpenZeppelin/openzeppelin-contracts/contracts/access/Ownable.sol\":1259:1269  _msgSender */\n      tag_116\n        /* \"https://github.com/OpenZeppelin/openzeppelin-contracts/contracts/access/Ownable.sol\":1259:1271  _msgSender() */\n      jump\t// in\n    tag_115:\n        /* \"https://github.com/OpenZeppelin/openzeppelin-contracts/contracts/access/Ownable.sol\":1248:1271  owner() == _msgSender() */\n      0xffffffffffffffffffffffffffffffffffffffff\n      and\n        /* \"https://github.com/OpenZeppelin/openzeppelin-contracts/contracts/access/Ownable.sol\":1248:1255  owner() */\n      tag_117\n        /* \"https://github.com/OpenZeppelin/openzeppelin-contracts/contracts/access/Ownable.sol\":1248:1253  owner */\n      tag_70\n        /* \"https://github.com/OpenZeppelin/openzeppelin-contracts/contracts/access/Ownable.sol\":1248:1255  owner() */\n      jump\t// in\n    tag_117:\n        /* \"https://github.com/OpenZeppelin/openzeppelin-contracts/contracts/access/Ownable.sol\":1248:1271  owner() == _msgSender() */\n      0xffffffffffffffffffffffffffffffffffffffff\n      and\n      eq\n        /* \"https://github.com/OpenZeppelin/openzeppelin-contracts/contracts/access/Ownable.sol\":1240:1308  require(owner() == _msgSender(), \"Ownable: caller is not the owner\") */\n      tag_118\n      jumpi\n      mload(0x40)\n      0x08c379a000000000000000000000000000000000000000000000000000000000\n      dup2\n      mstore\n      0x04\n      add\n      tag_119\n      swap1\n      tag_120\n      jump\t// in\n    tag_119:\n      mload(0x40)\n      dup1\n      swap2\n      sub\n      swap1\n      revert\n    tag_118:\n        /* \"src/MerkleSalaryClaim.sol\":1656:1667  _merkleRoot */\n      dup1\n        /* \"src/MerkleSalaryClaim.sol\":1643:1653  merkleRoot */\n      0x03\n        /* \"src/MerkleSalaryClaim.sol\":1643:1667  merkleRoot = _merkleRoot */\n      dup2\n      swap1\n      sstore\n      pop\n        /* \"src/MerkleSalaryClaim.sol\":1570:1674  function updateMerkleRoot(bytes32 _merkleRoot) public onlyOwner{... */\n      pop\n      jump\t// out\n        /* \"src/MerkleSalaryClaim.sol\":764:785  string public bizSymb */\n    tag_51:\n      0x07\n      dup1\n      sload\n      tag_122\n      swap1\n      tag_123\n      jump\t// in\n    tag_122:\n      dup1\n      0x1f\n      add\n      0x20\n      dup1\n      swap2\n      div\n      mul\n      0x20\n      add\n      mload(0x40)\n      swap1\n      dup2\n      add\n      0x40\n      mstore\n      dup1\n      swap3\n      swap2\n      swap1\n      dup2\n      dup2\n      mstore\n      0x20\n      add\n      dup3\n      dup1\n      sload\n      tag_124\n      swap1\n      tag_123\n      jump\t// in\n    tag_124:\n      dup1\n      iszero\n      tag_125\n      jumpi\n      dup1\n      0x1f\n      lt\n      tag_126\n      jumpi\n      0x0100\n      dup1\n      dup4\n      sload\n      div\n      mul\n      dup4\n      mstore\n      swap2\n      0x20\n      add\n      swap2\n      jump(tag_125)\n    tag_126:\n      dup3\n      add\n      swap2\n      swap1\n      0x00\n      mstore\n      keccak256(0x00, 0x20)\n      swap1\n    tag_127:\n      dup2\n      sload\n      dup2\n      mstore\n      swap1\n      0x01\n      add\n      swap1\n      0x20\n      add\n      dup1\n      dup4\n      gt\n      tag_127\n      jumpi\n      dup3\n      swap1\n      sub\n      0x1f\n      and\n      dup3\n      add\n      swap2\n    tag_125:\n      pop\n      pop\n      pop\n      pop\n      pop\n      dup2\n      jump\t// out\n        /* \"src/MerkleSalaryClaim.sol\":737:758  string public bizName */\n    tag_56:\n      0x06\n      dup1\n      sload\n      tag_128\n      swap1\n      tag_123\n      jump\t// in\n    tag_128:\n      dup1\n      0x1f\n      add\n      0x20\n      dup1\n      swap2\n      div\n      mul\n      0x20\n      add\n      mload(0x40)\n      swap1\n      dup2\n      add\n      0x40\n      mstore\n      dup1\n      swap3\n      swap2\n      swap1\n      dup2\n      dup2\n      mstore\n      0x20\n      add\n      dup3\n      dup1\n      sload\n      tag_129\n      swap1\n      tag_123\n      jump\t// in\n    tag_129:\n      dup1\n      iszero\n      tag_130\n      jumpi\n      dup1\n      0x1f\n      lt\n      tag_131\n      jumpi\n      0x0100\n      dup1\n      dup4\n      sload\n      div\n      mul\n      dup4\n      mstore\n      swap2\n      0x20\n      add\n      swap2\n      jump(tag_130)\n    tag_131:\n      dup3\n      add\n      swap2\n      swap1\n      0x00\n      mstore\n      keccak256(0x00, 0x20)\n      swap1\n    tag_132:\n      dup2\n      sload\n      dup2\n      mstore\n      swap1\n      0x01\n      add\n      swap1\n      0x20\n      add\n      dup1\n      dup4\n      gt\n      tag_132\n      jumpi\n      dup3\n      swap1\n      sub\n      0x1f\n      and\n      dup3\n      add\n      swap2\n    tag_130:\n      pop\n      pop\n      pop\n      pop\n      pop\n      dup2\n      jump\t// out\n        /* \"https://github.com/OpenZeppelin/openzeppelin-contracts/contracts/access/Ownable.sol\":1668:1769  function renounceOwnership() public virtual onlyOwner {... */\n    tag_60:\n        /* \"https://github.com/OpenZeppelin/openzeppelin-contracts/contracts/access/Ownable.sol\":1259:1271  _msgSender() */\n      tag_134\n        /* \"https://github.com/OpenZeppelin/openzeppelin-contracts/contracts/access/Ownable.sol\":1259:1269  _msgSender */\n      tag_116\n        /* \"https://github.com/OpenZeppelin/openzeppelin-contracts/contracts/access/Ownable.sol\":1259:1271  _msgSender() */\n      jump\t// in\n    tag_134:\n        /* \"https://github.com/OpenZeppelin/openzeppelin-contracts/contracts/access/Ownable.sol\":1248:1271  owner() == _msgSender() */\n      0xffffffffffffffffffffffffffffffffffffffff\n      and\n        /* \"https://github.com/OpenZeppelin/openzeppelin-contracts/contracts/access/Ownable.sol\":1248:1255  owner() */\n      tag_135\n        /* \"https://github.com/OpenZeppelin/openzeppelin-contracts/contracts/access/Ownable.sol\":1248:1253  owner */\n      tag_70\n        /* \"https://github.com/OpenZeppelin/openzeppelin-contracts/contracts/access/Ownable.sol\":1248:1255  owner() */\n      jump\t// in\n    tag_135:\n        /* \"https://github.com/OpenZeppelin/openzeppelin-contracts/contracts/access/Ownable.sol\":1248:1271  owner() == _msgSender() */\n      0xffffffffffffffffffffffffffffffffffffffff\n      and\n      eq\n        /* \"https://github.com/OpenZeppelin/openzeppelin-contracts/contracts/access/Ownable.sol\":1240:1308  require(owner() == _msgSender(), \"Ownable: caller is not the owner\") */\n      tag_136\n      jumpi\n      mload(0x40)\n      0x08c379a000000000000000000000000000000000000000000000000000000000\n      dup2\n      mstore\n      0x04\n      add\n      tag_137\n      swap1\n      tag_120\n      jump\t// in\n    tag_137:\n      mload(0x40)\n      dup1\n      swap2\n      sub\n      swap1\n      revert\n    tag_136:\n        /* \"https://github.com/OpenZeppelin/openzeppelin-contracts/contracts/access/Ownable.sol\":1732:1762  _transferOwnership(address(0)) */\n      tag_139\n        /* \"https://github.com/OpenZeppelin/openzeppelin-contracts/contracts/access/Ownable.sol\":1759:1760  0 */\n      0x00\n        /* \"https://github.com/OpenZeppelin/openzeppelin-contracts/contracts/access/Ownable.sol\":1732:1750  _transferOwnership */\n      tag_140\n        /* \"https://github.com/OpenZeppelin/openzeppelin-contracts/contracts/access/Ownable.sol\":1732:1762  _transferOwnership(address(0)) */\n      jump\t// in\n    tag_139:\n        /* \"https://github.com/OpenZeppelin/openzeppelin-contracts/contracts/access/Ownable.sol\":1668:1769  function renounceOwnership() public virtual onlyOwner {... */\n      jump\t// out\n        /* \"src/MerkleSalaryClaim.sol\":1008:1056  mapping(address => bool) public hasClaimedSalary */\n    tag_65:\n      mstore(0x20, 0x09)\n      dup1\n      0x00\n      mstore\n      keccak256(0x00, 0x40)\n      0x00\n      swap2\n      pop\n      sload\n      swap1\n      0x0100\n      exp\n      swap1\n      div\n      0xff\n      and\n      dup2\n      jump\t// out\n        /* \"https://github.com/OpenZeppelin/openzeppelin-contracts/contracts/access/Ownable.sol\":1036:1121  function owner() public view virtual returns (address) {... */\n    tag_70:\n        /* \"https://github.com/OpenZeppelin/openzeppelin-contracts/contracts/access/Ownable.sol\":1082:1089  address */\n      0x00\n        /* \"https://github.com/OpenZeppelin/openzeppelin-contracts/contracts/access/Ownable.sol\":1108:1114  _owner */\n      dup1\n      0x00\n      swap1\n      sload\n      swap1\n      0x0100\n      exp\n      swap1\n      div\n      0xffffffffffffffffffffffffffffffffffffffff\n      and\n        /* \"https://github.com/OpenZeppelin/openzeppelin-contracts/contracts/access/Ownable.sol\":1101:1114  return _owner */\n      swap1\n      pop\n        /* \"https://github.com/OpenZeppelin/openzeppelin-contracts/contracts/access/Ownable.sol\":1036:1121  function owner() public view virtual returns (address) {... */\n      swap1\n      jump\t// out\n        /* \"src/MerkleSalaryClaim.sol\":3414:3591  function CreatePayroll() public {... */\n    tag_74:\n        /* \"src/MerkleSalaryClaim.sol\":3452:3472  address clonePayroll */\n      0x00\n        /* \"src/MerkleSalaryClaim.sol\":3475:3503  Clones.clone(payrollAddress) */\n      tag_143\n        /* \"src/MerkleSalaryClaim.sol\":3488:3502  payrollAddress */\n      0x01\n      0x00\n      swap1\n      sload\n      swap1\n      0x0100\n      exp\n      swap1\n      div\n      0xffffffffffffffffffffffffffffffffffffffff\n      and\n        /* \"src/MerkleSalaryClaim.sol\":3475:3487  Clones.clone */\n      tag_144\n        /* \"src/MerkleSalaryClaim.sol\":3475:3503  Clones.clone(payrollAddress) */\n      jump\t// in\n    tag_143:\n        /* \"src/MerkleSalaryClaim.sol\":3452:3503  address clonePayroll = Clones.clone(payrollAddress) */\n      swap1\n      pop\n        /* \"src/MerkleSalaryClaim.sol\":3509:3525  payrollAddresses */\n      0x02\n        /* \"src/MerkleSalaryClaim.sol\":3531:3543  clonePayroll */\n      dup2\n        /* \"src/MerkleSalaryClaim.sol\":3509:3544  payrollAddresses.push(clonePayroll) */\n      swap1\n      dup1\n      0x01\n      dup2\n      sload\n      add\n      dup1\n      dup3\n      sstore\n      dup1\n      swap2\n      pop\n      pop\n      0x01\n      swap1\n      sub\n      swap1\n      0x00\n      mstore\n      keccak256(0x00, 0x20)\n      add\n      0x00\n      swap1\n      swap2\n      swap1\n      swap2\n      swap1\n      swap2\n      0x0100\n      exp\n      dup2\n      sload\n      dup2\n      0xffffffffffffffffffffffffffffffffffffffff\n      mul\n      not\n      and\n      swap1\n      dup4\n      0xffffffffffffffffffffffffffffffffffffffff\n      and\n      mul\n      or\n      swap1\n      sstore\n      pop\n        /* \"src/MerkleSalaryClaim.sol\":3570:3582  clonePayroll */\n      dup1\n        /* \"src/MerkleSalaryClaim.sol\":3555:3583  payrollCreated(clonePayroll) */\n      0xffffffffffffffffffffffffffffffffffffffff\n      and\n      0x5b6f2ca69c49e54072387225ba5fc2e130a2f96425b884e007ae49a82d12bdd9\n      mload(0x40)\n      mload(0x40)\n      dup1\n      swap2\n      sub\n      swap1\n      log2\n        /* \"src/MerkleSalaryClaim.sol\":3446:3591  {... */\n      pop\n        /* \"src/MerkleSalaryClaim.sol\":3414:3591  function CreatePayroll() public {... */\n      jump\t// out\n        /* \"src/MerkleSalaryClaim.sol\":2522:2724  function setPayement() external payable onlyOwner{... */\n    tag_76:\n        /* \"https://github.com/OpenZeppelin/openzeppelin-contracts/contracts/access/Ownable.sol\":1259:1271  _msgSender() */\n      tag_147\n        /* \"https://github.com/OpenZeppelin/openzeppelin-contracts/contracts/access/Ownable.sol\":1259:1269  _msgSender */\n      tag_116\n        /* \"https://github.com/OpenZeppelin/openzeppelin-contracts/contracts/access/Ownable.sol\":1259:1271  _msgSender() */\n      jump\t// in\n    tag_147:\n        /* \"https://github.com/OpenZeppelin/openzeppelin-contracts/contracts/access/Ownable.sol\":1248:1271  owner() == _msgSender() */\n      0xffffffffffffffffffffffffffffffffffffffff\n      and\n        /* \"https://github.com/OpenZeppelin/openzeppelin-contracts/contracts/access/Ownable.sol\":1248:1255  owner() */\n      tag_148\n        /* \"https://github.com/OpenZeppelin/openzeppelin-contracts/contracts/access/Ownable.sol\":1248:1253  owner */\n      tag_70\n        /* \"https://github.com/OpenZeppelin/openzeppelin-contracts/contracts/access/Ownable.sol\":1248:1255  owner() */\n      jump\t// in\n    tag_148:\n        /* \"https://github.com/OpenZeppelin/openzeppelin-contracts/contracts/access/Ownable.sol\":1248:1271  owner() == _msgSender() */\n      0xffffffffffffffffffffffffffffffffffffffff\n      and\n      eq\n        /* \"https://github.com/OpenZeppelin/openzeppelin-contracts/contracts/access/Ownable.sol\":1240:1308  require(owner() == _msgSender(), \"Ownable: caller is not the owner\") */\n      tag_149\n      jumpi\n      mload(0x40)\n      0x08c379a000000000000000000000000000000000000000000000000000000000\n      dup2\n      mstore\n      0x04\n      add\n      tag_150\n      swap1\n      tag_120\n      jump\t// in\n    tag_150:\n      mload(0x40)\n      dup1\n      swap2\n      sub\n      swap1\n      revert\n    tag_149:\n        /* \"src/MerkleSalaryClaim.sol\":2602:2609  1 ether */\n      0x0de0b6b3a7640000\n        /* \"src/MerkleSalaryClaim.sol\":2589:2598  msg.value */\n      callvalue\n        /* \"src/MerkleSalaryClaim.sol\":2589:2609  msg.value >= 1 ether */\n      lt\n      iszero\n        /* \"src/MerkleSalaryClaim.sol\":2581:2647  require(msg.value >= 1 ether, \"not enough money to pay employees\") */\n      tag_152\n      jumpi\n      mload(0x40)\n      0x08c379a000000000000000000000000000000000000000000000000000000000\n      dup2\n      mstore\n      0x04\n      add\n      tag_153\n      swap1\n      tag_154\n      jump\t// in\n    tag_153:\n      mload(0x40)\n      dup1\n      swap2\n      sub\n      swap1\n      revert\n    tag_152:\n        /* \"src/MerkleSalaryClaim.sol\":2675:2679  true */\n      0x01\n        /* \"src/MerkleSalaryClaim.sol\":2657:2672  activatePayment */\n      0x04\n      0x00\n        /* \"src/MerkleSalaryClaim.sol\":2657:2679  activatePayment = true */\n      0x0100\n      exp\n      dup2\n      sload\n      dup2\n      0xff\n      mul\n      not\n      and\n      swap1\n      dup4\n      iszero\n      iszero\n      mul\n      or\n      swap1\n      sstore\n      pop\n        /* \"src/MerkleSalaryClaim.sol\":2702:2717  block.timestamp */\n      timestamp\n        /* \"src/MerkleSalaryClaim.sol\":2690:2699  startTime */\n      0x05\n        /* \"src/MerkleSalaryClaim.sol\":2690:2717  startTime = block.timestamp */\n      dup2\n      swap1\n      sstore\n      pop\n        /* \"src/MerkleSalaryClaim.sol\":2522:2724  function setPayement() external payable onlyOwner{... */\n      jump\t// out\n        /* \"src/MerkleSalaryClaim.sol\":2755:2976  function transferOut() public onlyOwner{... */\n    tag_79:\n        /* \"https://github.com/OpenZeppelin/openzeppelin-contracts/contracts/access/Ownable.sol\":1259:1271  _msgSender() */\n      tag_156\n        /* \"https://github.com/OpenZeppelin/openzeppelin-contracts/contracts/access/Ownable.sol\":1259:1269  _msgSender */\n      tag_116\n        /* \"https://github.com/OpenZeppelin/openzeppelin-contracts/contracts/access/Ownable.sol\":1259:1271  _msgSender() */\n      jump\t// in\n    tag_156:\n        /* \"https://github.com/OpenZeppelin/openzeppelin-contracts/contracts/access/Ownable.sol\":1248:1271  owner() == _msgSender() */\n      0xffffffffffffffffffffffffffffffffffffffff\n      and\n        /* \"https://github.com/OpenZeppelin/openzeppelin-contracts/contracts/access/Ownable.sol\":1248:1255  owner() */\n      tag_157\n        /* \"https://github.com/OpenZeppelin/openzeppelin-contracts/contracts/access/Ownable.sol\":1248:1253  owner */\n      tag_70\n        /* \"https://github.com/OpenZeppelin/openzeppelin-contracts/contracts/access/Ownable.sol\":1248:1255  owner() */\n      jump\t// in\n    tag_157:\n        /* \"https://github.com/OpenZeppelin/openzeppelin-contracts/contracts/access/Ownable.sol\":1248:1271  owner() == _msgSender() */\n      0xffffffffffffffffffffffffffffffffffffffff\n      and\n      eq\n        /* \"https://github.com/OpenZeppelin/openzeppelin-contracts/contracts/access/Ownable.sol\":1240:1308  require(owner() == _msgSender(), \"Ownable: caller is not the owner\") */\n      tag_158\n      jumpi\n      mload(0x40)\n      0x08c379a000000000000000000000000000000000000000000000000000000000\n      dup2\n      mstore\n      0x04\n      add\n      tag_159\n      swap1\n      tag_120\n      jump\t// in\n    tag_159:\n      mload(0x40)\n      dup1\n      swap2\n      sub\n      swap1\n      revert\n    tag_158:\n        /* \"src/MerkleSalaryClaim.sol\":2843:2850  1209600 */\n      0x127500\n        /* \"src/MerkleSalaryClaim.sol\":2830:2839  startTime */\n      sload(0x05)\n        /* \"src/MerkleSalaryClaim.sol\":2812:2827  block.timestamp */\n      timestamp\n        /* \"src/MerkleSalaryClaim.sol\":2812:2839  block.timestamp - startTime */\n      tag_161\n      swap2\n      swap1\n      tag_99\n      jump\t// in\n    tag_161:\n        /* \"src/MerkleSalaryClaim.sol\":2812:2850  block.timestamp - startTime >= 1209600 */\n      lt\n      iszero\n        /* \"src/MerkleSalaryClaim.sol\":2804:2877  require(block.timestamp - startTime >= 1209600, \"salary payment ongoing\") */\n      tag_162\n      jumpi\n      mload(0x40)\n      0x08c379a000000000000000000000000000000000000000000000000000000000\n      dup2\n      mstore\n      0x04\n      add\n      tag_163\n      swap1\n      tag_164\n      jump\t// in\n    tag_163:\n      mload(0x40)\n      dup1\n      swap2\n      sub\n      swap1\n      revert\n    tag_162:\n        /* \"src/MerkleSalaryClaim.sol\":2895:2902  owner() */\n      tag_165\n        /* \"src/MerkleSalaryClaim.sol\":2895:2900  owner */\n      tag_70\n        /* \"src/MerkleSalaryClaim.sol\":2895:2902  owner() */\n      jump\t// in\n    tag_165:\n        /* \"src/MerkleSalaryClaim.sol\":2887:2912  payable(owner()).transfer */\n      0xffffffffffffffffffffffffffffffffffffffff\n      and\n        /* \"src/MerkleSalaryClaim.sol\":2887:2935  payable(owner()).transfer(address(this).balance) */\n      0x08fc\n        /* \"src/MerkleSalaryClaim.sol\":2913:2934  address(this).balance */\n      selfbalance\n        /* \"src/MerkleSalaryClaim.sol\":2887:2935  payable(owner()).transfer(address(this).balance) */\n      swap1\n      dup2\n      iszero\n      mul\n      swap1\n      mload(0x40)\n      0x00\n      mload(0x40)\n      dup1\n      dup4\n      sub\n      dup2\n      dup6\n      dup9\n      dup9\n      call\n      swap4\n      pop\n      pop\n      pop\n      pop\n      iszero\n      dup1\n      iszero\n      tag_167\n      jumpi\n      returndatasize\n      0x00\n      dup1\n      returndatacopy\n      revert(0x00, returndatasize)\n    tag_167:\n      pop\n        /* \"src/MerkleSalaryClaim.sol\":2963:2968  false */\n      0x00\n        /* \"src/MerkleSalaryClaim.sol\":2945:2960  activatePayment */\n      0x04\n      0x00\n        /* \"src/MerkleSalaryClaim.sol\":2945:2968  activatePayment = false */\n      0x0100\n      exp\n      dup2\n      sload\n      dup2\n      0xff\n      mul\n      not\n      and\n      swap1\n      dup4\n      iszero\n      iszero\n      mul\n      or\n      swap1\n      sstore\n      pop\n        /* \"src/MerkleSalaryClaim.sol\":2755:2976  function transferOut() public onlyOwner{... */\n      jump\t// out\n        /* \"src/MerkleSalaryClaim.sol\":2981:3250  function AddEmployees(address _employee, uint _salary) public onlyOwner returns (Staff[] memory _staffsPayroll){... */\n    tag_84:\n        /* \"src/MerkleSalaryClaim.sol\":3062:3091  Staff[] memory _staffsPayroll */\n      0x60\n        /* \"https://github.com/OpenZeppelin/openzeppelin-contracts/contracts/access/Ownable.sol\":1259:1271  _msgSender() */\n      tag_169\n        /* \"https://github.com/OpenZeppelin/openzeppelin-contracts/contracts/access/Ownable.sol\":1259:1269  _msgSender */\n      tag_116\n        /* \"https://github.com/OpenZeppelin/openzeppelin-contracts/contracts/access/Ownable.sol\":1259:1271  _msgSender() */\n      jump\t// in\n    tag_169:\n        /* \"https://github.com/OpenZeppelin/openzeppelin-contracts/contracts/access/Ownable.sol\":1248:1271  owner() == _msgSender() */\n      0xffffffffffffffffffffffffffffffffffffffff\n      and\n        /* \"https://github.com/OpenZeppelin/openzeppelin-contracts/contracts/access/Ownable.sol\":1248:1255  owner() */\n      tag_170\n        /* \"https://github.com/OpenZeppelin/openzeppelin-contracts/contracts/access/Ownable.sol\":1248:1253  owner */\n      tag_70\n        /* \"https://github.com/OpenZeppelin/openzeppelin-contracts/contracts/access/Ownable.sol\":1248:1255  owner() */\n      jump\t// in\n    tag_170:\n        /* \"https://github.com/OpenZeppelin/openzeppelin-contracts/contracts/access/Ownable.sol\":1248:1271  owner() == _msgSender() */\n      0xffffffffffffffffffffffffffffffffffffffff\n      and\n      eq\n        /* \"https://github.com/OpenZeppelin/openzeppelin-contracts/contracts/access/Ownable.sol\":1240:1308  require(owner() == _msgSender(), \"Ownable: caller is not the owner\") */\n      tag_171\n      jumpi\n      mload(0x40)\n      0x08c379a000000000000000000000000000000000000000000000000000000000\n      dup2\n      mstore\n      0x04\n      add\n      tag_172\n      swap1\n      tag_120\n      jump\t// in\n    tag_172:\n      mload(0x40)\n      dup1\n      swap2\n      sub\n      swap1\n      revert\n    tag_171:\n        /* \"src/MerkleSalaryClaim.sol\":3102:3129  Staff memory staffsPayrolls */\n      0x00\n        /* \"src/MerkleSalaryClaim.sol\":3132:3157  Staff(_employee, _salary) */\n      mload(0x40)\n      dup1\n      0x40\n      add\n      0x40\n      mstore\n      dup1\n        /* \"src/MerkleSalaryClaim.sol\":3138:3147  _employee */\n      dup6\n        /* \"src/MerkleSalaryClaim.sol\":3132:3157  Staff(_employee, _salary) */\n      0xffffffffffffffffffffffffffffffffffffffff\n      and\n      dup2\n      mstore\n      0x20\n      add\n        /* \"src/MerkleSalaryClaim.sol\":3149:3156  _salary */\n      dup5\n        /* \"src/MerkleSalaryClaim.sol\":3132:3157  Staff(_employee, _salary) */\n      dup2\n      mstore\n      pop\n        /* \"src/MerkleSalaryClaim.sol\":3102:3157  Staff memory staffsPayrolls = Staff(_employee, _salary) */\n      swap1\n      pop\n        /* \"src/MerkleSalaryClaim.sol\":3167:3180  StaffsPayroll */\n      0x08\n        /* \"src/MerkleSalaryClaim.sol\":3186:3200  staffsPayrolls */\n      dup2\n        /* \"src/MerkleSalaryClaim.sol\":3167:3201  StaffsPayroll.push(staffsPayrolls) */\n      swap1\n      dup1\n      0x01\n      dup2\n      sload\n      add\n      dup1\n      dup3\n      sstore\n      dup1\n      swap2\n      pop\n      pop\n      0x01\n      swap1\n      sub\n      swap1\n      0x00\n      mstore\n      keccak256(0x00, 0x20)\n      swap1\n      0x02\n      mul\n      add\n      0x00\n      swap1\n      swap2\n      swap1\n      swap2\n      swap1\n      swap2\n      pop\n      0x00\n      dup3\n      add\n      mload\n      dup2\n      0x00\n      add\n      exp(0x0100, 0x00)\n      dup2\n      sload\n      dup2\n      0xffffffffffffffffffffffffffffffffffffffff\n      mul\n      not\n      and\n      swap1\n      dup4\n      0xffffffffffffffffffffffffffffffffffffffff\n      and\n      mul\n      or\n      swap1\n      sstore\n      pop\n      0x20\n      dup3\n      add\n      mload\n      dup2\n      0x01\n      add\n      sstore\n      pop\n      pop\n        /* \"src/MerkleSalaryClaim.sol\":3228:3242  seeEMployees() */\n      tag_175\n        /* \"src/MerkleSalaryClaim.sol\":3228:3240  seeEMployees */\n      tag_25\n        /* \"src/MerkleSalaryClaim.sol\":3228:3242  seeEMployees() */\n      jump\t// in\n    tag_175:\n        /* \"src/MerkleSalaryClaim.sol\":3211:3242  _staffsPayroll = seeEMployees() */\n      swap2\n      pop\n        /* \"src/MerkleSalaryClaim.sol\":3092:3250  {... */\n      pop\n        /* \"src/MerkleSalaryClaim.sol\":2981:3250  function AddEmployees(address _employee, uint _salary) public onlyOwner returns (Staff[] memory _staffsPayroll){... */\n      swap3\n      swap2\n      pop\n      pop\n      jump\t// out\n        /* \"https://github.com/OpenZeppelin/openzeppelin-contracts/contracts/access/Ownable.sol\":1918:2116  function transferOwnership(address newOwner) public virtual onlyOwner {... */\n    tag_89:\n        /* \"https://github.com/OpenZeppelin/openzeppelin-contracts/contracts/access/Ownable.sol\":1259:1271  _msgSender() */\n      tag_177\n        /* \"https://github.com/OpenZeppelin/openzeppelin-contracts/contracts/access/Ownable.sol\":1259:1269  _msgSender */\n      tag_116\n        /* \"https://github.com/OpenZeppelin/openzeppelin-contracts/contracts/access/Ownable.sol\":1259:1271  _msgSender() */\n      jump\t// in\n    tag_177:\n        /* \"https://github.com/OpenZeppelin/openzeppelin-contracts/contracts/access/Ownable.sol\":1248:1271  owner() == _msgSender() */\n      0xffffffffffffffffffffffffffffffffffffffff\n      and\n        /* \"https://github.com/OpenZeppelin/openzeppelin-contracts/contracts/access/Ownable.sol\":1248:1255  owner() */\n      tag_178\n        /* \"https://github.com/OpenZeppelin/openzeppelin-contracts/contracts/access/Ownable.sol\":1248:1253  owner */\n      tag_70\n        /* \"https://github.com/OpenZeppelin/openzeppelin-contracts/contracts/access/Ownable.sol\":1248:1255  owner() */\n      jump\t// in\n    tag_178:\n        /* \"https://github.com/OpenZeppelin/openzeppelin-contracts/contracts/access/Ownable.sol\":1248:1271  owner() == _msgSender() */\n      0xffffffffffffffffffffffffffffffffffffffff\n      and\n      eq\n        /* \"https://github.com/OpenZeppelin/openzeppelin-contracts/contracts/access/Ownable.sol\":1240:1308  require(owner() == _msgSender(), \"Ownable: caller is not the owner\") */\n      tag_179\n      jumpi\n      mload(0x40)\n      0x08c379a000000000000000000000000000000000000000000000000000000000\n      dup2\n      mstore\n      0x04\n      add\n      tag_180\n      swap1\n      tag_120\n      jump\t// in\n    tag_180:\n      mload(0x40)\n      dup1\n      swap2\n      sub\n      swap1\n      revert\n    tag_179:\n        /* \"https://github.com/OpenZeppelin/openzeppelin-contracts/contracts/access/Ownable.sol\":2026:2027  0 */\n      0x00\n        /* \"https://github.com/OpenZeppelin/openzeppelin-contracts/contracts/access/Ownable.sol\":2006:2028  newOwner != address(0) */\n      0xffffffffffffffffffffffffffffffffffffffff\n      and\n        /* \"https://github.com/OpenZeppelin/openzeppelin-contracts/contracts/access/Ownable.sol\":2006:2014  newOwner */\n      dup2\n        /* \"https://github.com/OpenZeppelin/openzeppelin-contracts/contracts/access/Ownable.sol\":2006:2028  newOwner != address(0) */\n      0xffffffffffffffffffffffffffffffffffffffff\n      and\n      eq\n      iszero\n        /* \"https://github.com/OpenZeppelin/openzeppelin-contracts/contracts/access/Ownable.sol\":1998:2071  require(newOwner != address(0), \"Ownable: new owner is the zero address\") */\n      tag_182\n      jumpi\n      mload(0x40)\n      0x08c379a000000000000000000000000000000000000000000000000000000000\n      dup2\n      mstore\n      0x04\n      add\n      tag_183\n      swap1\n      tag_184\n      jump\t// in\n    tag_183:\n      mload(0x40)\n      dup1\n      swap2\n      sub\n      swap1\n      revert\n    tag_182:\n        /* \"https://github.com/OpenZeppelin/openzeppelin-contracts/contracts/access/Ownable.sol\":2081:2109  _transferOwnership(newOwner) */\n      tag_185\n        /* \"https://github.com/OpenZeppelin/openzeppelin-contracts/contracts/access/Ownable.sol\":2100:2108  newOwner */\n      dup2\n        /* \"https://github.com/OpenZeppelin/openzeppelin-contracts/contracts/access/Ownable.sol\":2081:2099  _transferOwnership */\n      tag_140\n        /* \"https://github.com/OpenZeppelin/openzeppelin-contracts/contracts/access/Ownable.sol\":2081:2109  _transferOwnership(newOwner) */\n      jump\t// in\n    tag_185:\n        /* \"https://github.com/OpenZeppelin/openzeppelin-contracts/contracts/access/Ownable.sol\":1918:2116  function transferOwnership(address newOwner) public virtual onlyOwner {... */\n      pop\n      jump\t// out\n        /* \"https://github.com/OpenZeppelin/openzeppelin-contracts/contracts/utils/cryptography/MerkleProof.sol\":1154:1338  function verify(... */\n    tag_107:\n        /* \"https://github.com/OpenZeppelin/openzeppelin-contracts/contracts/utils/cryptography/MerkleProof.sol\":1275:1279  bool */\n      0x00\n        /* \"https://github.com/OpenZeppelin/openzeppelin-contracts/contracts/utils/cryptography/MerkleProof.sol\":1327:1331  root */\n      dup3\n        /* \"https://github.com/OpenZeppelin/openzeppelin-contracts/contracts/utils/cryptography/MerkleProof.sol\":1298:1323  processProof(proof, leaf) */\n      tag_187\n        /* \"https://github.com/OpenZeppelin/openzeppelin-contracts/contracts/utils/cryptography/MerkleProof.sol\":1311:1316  proof */\n      dup6\n        /* \"https://github.com/OpenZeppelin/openzeppelin-contracts/contracts/utils/cryptography/MerkleProof.sol\":1318:1322  leaf */\n      dup5\n        /* \"https://github.com/OpenZeppelin/openzeppelin-contracts/contracts/utils/cryptography/MerkleProof.sol\":1298:1310  processProof */\n      tag_188\n        /* \"https://github.com/OpenZeppelin/openzeppelin-contracts/contracts/utils/cryptography/MerkleProof.sol\":1298:1323  processProof(proof, leaf) */\n      jump\t// in\n    tag_187:\n        /* \"https://github.com/OpenZeppelin/openzeppelin-contracts/contracts/utils/cryptography/MerkleProof.sol\":1298:1331  processProof(proof, leaf) == root */\n      eq\n        /* \"https://github.com/OpenZeppelin/openzeppelin-contracts/contracts/utils/cryptography/MerkleProof.sol\":1291:1331  return processProof(proof, leaf) == root */\n      swap1\n      pop\n        /* \"https://github.com/OpenZeppelin/openzeppelin-contracts/contracts/utils/cryptography/MerkleProof.sol\":1154:1338  function verify(... */\n      swap4\n      swap3\n      pop\n      pop\n      pop\n      jump\t// out\n        /* \"https://github.com/OpenZeppelin/openzeppelin-contracts/contracts/utils/Context.sol\":640:736  function _msgSender() internal view virtual returns (address) {... */\n    tag_116:\n        /* \"https://github.com/OpenZeppelin/openzeppelin-contracts/contracts/utils/Context.sol\":693:700  address */\n      0x00\n        /* \"https://github.com/OpenZeppelin/openzeppelin-contracts/contracts/utils/Context.sol\":719:729  msg.sender */\n      caller\n        /* \"https://github.com/OpenZeppelin/openzeppelin-contracts/contracts/utils/Context.sol\":712:729  return msg.sender */\n      swap1\n      pop\n        /* \"https://github.com/OpenZeppelin/openzeppelin-contracts/contracts/utils/Context.sol\":640:736  function _msgSender() internal view virtual returns (address) {... */\n      swap1\n      jump\t// out\n        /* \"https://github.com/OpenZeppelin/openzeppelin-contracts/contracts/access/Ownable.sol\":2270:2457  function _transferOwnership(address newOwner) internal virtual {... */\n    tag_140:\n        /* \"https://github.com/OpenZeppelin/openzeppelin-contracts/contracts/access/Ownable.sol\":2343:2359  address oldOwner */\n      0x00\n        /* \"https://github.com/OpenZeppelin/openzeppelin-contracts/contracts/access/Ownable.sol\":2362:2368  _owner */\n      dup1\n      0x00\n      swap1\n      sload\n      swap1\n      0x0100\n      exp\n      swap1\n      div\n      0xffffffffffffffffffffffffffffffffffffffff\n      and\n        /* \"https://github.com/OpenZeppelin/openzeppelin-contracts/contracts/access/Ownable.sol\":2343:2368  address oldOwner = _owner */\n      swap1\n      pop\n        /* \"https://github.com/OpenZeppelin/openzeppelin-contracts/contracts/access/Ownable.sol\":2387:2395  newOwner */\n      dup2\n        /* \"https://github.com/OpenZeppelin/openzeppelin-contracts/contracts/access/Ownable.sol\":2378:2384  _owner */\n      0x00\n      dup1\n        /* \"https://github.com/OpenZeppelin/openzeppelin-contracts/contracts/access/Ownable.sol\":2378:2395  _owner = newOwner */\n      0x0100\n      exp\n      dup2\n      sload\n      dup2\n      0xffffffffffffffffffffffffffffffffffffffff\n      mul\n      not\n      and\n      swap1\n      dup4\n      0xffffffffffffffffffffffffffffffffffffffff\n      and\n      mul\n      or\n      swap1\n      sstore\n      pop\n        /* \"https://github.com/OpenZeppelin/openzeppelin-contracts/contracts/access/Ownable.sol\":2441:2449  newOwner */\n      dup2\n        /* \"https://github.com/OpenZeppelin/openzeppelin-contracts/contracts/access/Ownable.sol\":2410:2450  OwnershipTransferred(oldOwner, newOwner) */\n      0xffffffffffffffffffffffffffffffffffffffff\n      and\n        /* \"https://github.com/OpenZeppelin/openzeppelin-contracts/contracts/access/Ownable.sol\":2431:2439  oldOwner */\n      dup2\n        /* \"https://github.com/OpenZeppelin/openzeppelin-contracts/contracts/access/Ownable.sol\":2410:2450  OwnershipTransferred(oldOwner, newOwner) */\n      0xffffffffffffffffffffffffffffffffffffffff\n      and\n      0x8be0079c531659141344cd1fd0a4f28419497f9722a3daafe3b4186f6b6457e0\n      mload(0x40)\n      mload(0x40)\n      dup1\n      swap2\n      sub\n      swap1\n      log3\n        /* \"https://github.com/OpenZeppelin/openzeppelin-contracts/contracts/access/Ownable.sol\":2333:2457  {... */\n      pop\n        /* \"https://github.com/OpenZeppelin/openzeppelin-contracts/contracts/access/Ownable.sol\":2270:2457  function _transferOwnership(address newOwner) internal virtual {... */\n      pop\n      jump\t// out\n        /* \"https://github.com/OpenZeppelin/openzeppelin-contracts/contracts/proxy/Clones.sol\":958:1473  function clone(address implementation) internal returns (address instance) {... */\n    tag_144:\n        /* \"https://github.com/OpenZeppelin/openzeppelin-contracts/contracts/proxy/Clones.sol\":1015:1031  address instance */\n      0x00\n        /* \"https://github.com/OpenZeppelin/openzeppelin-contracts/contracts/proxy/Clones.sol\":1083:1087  0x40 */\n      0x40\n        /* \"https://github.com/OpenZeppelin/openzeppelin-contracts/contracts/proxy/Clones.sol\":1077:1088  mload(0x40) */\n      mload\n        /* \"https://github.com/OpenZeppelin/openzeppelin-contracts/contracts/proxy/Clones.sol\":1113:1179  0x602d8060093d393df3363d3d373d3d3d363d7300000000000000000000000000 */\n      0x602d8060093d393df3363d3d373d3d3d363d7300000000000000000000000000\n        /* \"https://github.com/OpenZeppelin/openzeppelin-contracts/contracts/proxy/Clones.sol\":1108:1111  ptr */\n      dup2\n        /* \"https://github.com/OpenZeppelin/openzeppelin-contracts/contracts/proxy/Clones.sol\":1101:1180  mstore(ptr, 0x602d8060093d393df3363d3d373d3d3d363d7300000000000000000000000000) */\n      mstore\n        /* \"https://github.com/OpenZeppelin/openzeppelin-contracts/contracts/proxy/Clones.sol\":1226:1240  implementation */\n      dup3\n        /* \"https://github.com/OpenZeppelin/openzeppelin-contracts/contracts/proxy/Clones.sol\":1220:1224  0x60 */\n      0x60\n        /* \"https://github.com/OpenZeppelin/openzeppelin-contracts/contracts/proxy/Clones.sol\":1216:1241  shl(0x60, implementation) */\n      shl\n        /* \"https://github.com/OpenZeppelin/openzeppelin-contracts/contracts/proxy/Clones.sol\":1209:1213  0x13 */\n      0x13\n        /* \"https://github.com/OpenZeppelin/openzeppelin-contracts/contracts/proxy/Clones.sol\":1204:1207  ptr */\n      dup3\n        /* \"https://github.com/OpenZeppelin/openzeppelin-contracts/contracts/proxy/Clones.sol\":1200:1214  add(ptr, 0x13) */\n      add\n        /* \"https://github.com/OpenZeppelin/openzeppelin-contracts/contracts/proxy/Clones.sol\":1193:1242  mstore(add(ptr, 0x13), shl(0x60, implementation)) */\n      mstore\n        /* \"https://github.com/OpenZeppelin/openzeppelin-contracts/contracts/proxy/Clones.sol\":1278:1344  0x5af43d82803e903d91602b57fd5bf30000000000000000000000000000000000 */\n      0x5af43d82803e903d91602b57fd5bf30000000000000000000000000000000000\n        /* \"https://github.com/OpenZeppelin/openzeppelin-contracts/contracts/proxy/Clones.sol\":1271:1275  0x27 */\n      0x27\n        /* \"https://github.com/OpenZeppelin/openzeppelin-contracts/contracts/proxy/Clones.sol\":1266:1269  ptr */\n      dup3\n        /* \"https://github.com/OpenZeppelin/openzeppelin-contracts/contracts/proxy/Clones.sol\":1262:1276  add(ptr, 0x27) */\n      add\n        /* \"https://github.com/OpenZeppelin/openzeppelin-contracts/contracts/proxy/Clones.sol\":1255:1345  mstore(add(ptr, 0x27), 0x5af43d82803e903d91602b57fd5bf30000000000000000000000000000000000) */\n      mstore\n        /* \"https://github.com/OpenZeppelin/openzeppelin-contracts/contracts/proxy/Clones.sol\":1385:1389  0x36 */\n      0x36\n        /* \"https://github.com/OpenZeppelin/openzeppelin-contracts/contracts/proxy/Clones.sol\":1380:1383  ptr */\n      dup2\n        /* \"https://github.com/OpenZeppelin/openzeppelin-contracts/contracts/proxy/Clones.sol\":1377:1378  0 */\n      0x00\n        /* \"https://github.com/OpenZeppelin/openzeppelin-contracts/contracts/proxy/Clones.sol\":1370:1390  create(0, ptr, 0x36) */\n      create\n        /* \"https://github.com/OpenZeppelin/openzeppelin-contracts/contracts/proxy/Clones.sol\":1358:1390  instance := create(0, ptr, 0x36) */\n      swap2\n      pop\n        /* \"https://github.com/OpenZeppelin/openzeppelin-contracts/contracts/proxy/Clones.sol\":1052:1400  {... */\n      pop\n        /* \"https://github.com/OpenZeppelin/openzeppelin-contracts/contracts/proxy/Clones.sol\":1437:1438  0 */\n      0x00\n        /* \"https://github.com/OpenZeppelin/openzeppelin-contracts/contracts/proxy/Clones.sol\":1417:1439  instance != address(0) */\n      0xffffffffffffffffffffffffffffffffffffffff\n      and\n        /* \"https://github.com/OpenZeppelin/openzeppelin-contracts/contracts/proxy/Clones.sol\":1417:1425  instance */\n      dup2\n        /* \"https://github.com/OpenZeppelin/openzeppelin-contracts/contracts/proxy/Clones.sol\":1417:1439  instance != address(0) */\n      0xffffffffffffffffffffffffffffffffffffffff\n      and\n      eq\n      iszero\n        /* \"https://github.com/OpenZeppelin/openzeppelin-contracts/contracts/proxy/Clones.sol\":1409:1466  require(instance != address(0), \"ERC1167: create failed\") */\n      tag_192\n      jumpi\n      mload(0x40)\n      0x08c379a000000000000000000000000000000000000000000000000000000000\n      dup2\n      mstore\n      0x04\n      add\n      tag_193\n      swap1\n      tag_194\n      jump\t// in\n    tag_193:\n      mload(0x40)\n      dup1\n      swap2\n      sub\n      swap1\n      revert\n    tag_192:\n        /* \"https://github.com/OpenZeppelin/openzeppelin-contracts/contracts/proxy/Clones.sol\":958:1473  function clone(address implementation) internal returns (address instance) {... */\n      swap2\n      swap1\n      pop\n      jump\t// out\n        /* \"https://github.com/OpenZeppelin/openzeppelin-contracts/contracts/utils/cryptography/MerkleProof.sol\":1689:2351  function processProof(bytes32[] memory proof, bytes32 leaf) internal pure returns (bytes32) {... */\n    tag_188:\n        /* \"https://github.com/OpenZeppelin/openzeppelin-contracts/contracts/utils/cryptography/MerkleProof.sol\":1772:1779  bytes32 */\n      0x00\n        /* \"https://github.com/OpenZeppelin/openzeppelin-contracts/contracts/utils/cryptography/MerkleProof.sol\":1791:1811  bytes32 computedHash */\n      dup1\n        /* \"https://github.com/OpenZeppelin/openzeppelin-contracts/contracts/utils/cryptography/MerkleProof.sol\":1814:1818  leaf */\n      dup3\n        /* \"https://github.com/OpenZeppelin/openzeppelin-contracts/contracts/utils/cryptography/MerkleProof.sol\":1791:1818  bytes32 computedHash = leaf */\n      swap1\n      pop\n        /* \"https://github.com/OpenZeppelin/openzeppelin-contracts/contracts/utils/cryptography/MerkleProof.sol\":1833:1842  uint256 i */\n      0x00\n        /* \"https://github.com/OpenZeppelin/openzeppelin-contracts/contracts/utils/cryptography/MerkleProof.sol\":1828:2316  for (uint256 i = 0; i < proof.length; i++) {... */\n    tag_196:\n        /* \"https://github.com/OpenZeppelin/openzeppelin-contracts/contracts/utils/cryptography/MerkleProof.sol\":1852:1857  proof */\n      dup5\n        /* \"https://github.com/OpenZeppelin/openzeppelin-contracts/contracts/utils/cryptography/MerkleProof.sol\":1852:1864  proof.length */\n      mload\n        /* \"https://github.com/OpenZeppelin/openzeppelin-contracts/contracts/utils/cryptography/MerkleProof.sol\":1848:1849  i */\n      dup2\n        /* \"https://github.com/OpenZeppelin/openzeppelin-contracts/contracts/utils/cryptography/MerkleProof.sol\":1848:1864  i < proof.length */\n      lt\n        /* \"https://github.com/OpenZeppelin/openzeppelin-contracts/contracts/utils/cryptography/MerkleProof.sol\":1828:2316  for (uint256 i = 0; i < proof.length; i++) {... */\n      iszero\n      tag_197\n      jumpi\n        /* \"https://github.com/OpenZeppelin/openzeppelin-contracts/contracts/utils/cryptography/MerkleProof.sol\":1885:1905  bytes32 proofElement */\n      0x00\n        /* \"https://github.com/OpenZeppelin/openzeppelin-contracts/contracts/utils/cryptography/MerkleProof.sol\":1908:1913  proof */\n      dup6\n        /* \"https://github.com/OpenZeppelin/openzeppelin-contracts/contracts/utils/cryptography/MerkleProof.sol\":1914:1915  i */\n      dup3\n        /* \"https://github.com/OpenZeppelin/openzeppelin-contracts/contracts/utils/cryptography/MerkleProof.sol\":1908:1916  proof[i] */\n      dup2\n      mload\n      dup2\n      lt\n      tag_199\n      jumpi\n      tag_200\n      tag_201\n      jump\t// in\n    tag_200:\n    tag_199:\n      0x20\n      mul\n      0x20\n      add\n      add\n      mload\n        /* \"https://github.com/OpenZeppelin/openzeppelin-contracts/contracts/utils/cryptography/MerkleProof.sol\":1885:1916  bytes32 proofElement = proof[i] */\n      swap1\n      pop\n        /* \"https://github.com/OpenZeppelin/openzeppelin-contracts/contracts/utils/cryptography/MerkleProof.sol\":1950:1962  proofElement */\n      dup1\n        /* \"https://github.com/OpenZeppelin/openzeppelin-contracts/contracts/utils/cryptography/MerkleProof.sol\":1934:1946  computedHash */\n      dup4\n        /* \"https://github.com/OpenZeppelin/openzeppelin-contracts/contracts/utils/cryptography/MerkleProof.sol\":1934:1962  computedHash <= proofElement */\n      gt\n        /* \"https://github.com/OpenZeppelin/openzeppelin-contracts/contracts/utils/cryptography/MerkleProof.sol\":1930:2306  if (computedHash <= proofElement) {... */\n      tag_202\n      jumpi\n        /* \"https://github.com/OpenZeppelin/openzeppelin-contracts/contracts/utils/cryptography/MerkleProof.sol\":2075:2117  _efficientHash(computedHash, proofElement) */\n      tag_203\n        /* \"https://github.com/OpenZeppelin/openzeppelin-contracts/contracts/utils/cryptography/MerkleProof.sol\":2090:2102  computedHash */\n      dup4\n        /* \"https://github.com/OpenZeppelin/openzeppelin-contracts/contracts/utils/cryptography/MerkleProof.sol\":2104:2116  proofElement */\n      dup3\n        /* \"https://github.com/OpenZeppelin/openzeppelin-contracts/contracts/utils/cryptography/MerkleProof.sol\":2075:2089  _efficientHash */\n      tag_204\n        /* \"https://github.com/OpenZeppelin/openzeppelin-contracts/contracts/utils/cryptography/MerkleProof.sol\":2075:2117  _efficientHash(computedHash, proofElement) */\n      jump\t// in\n    tag_203:\n        /* \"https://github.com/OpenZeppelin/openzeppelin-contracts/contracts/utils/cryptography/MerkleProof.sol\":2060:2117  computedHash = _efficientHash(computedHash, proofElement) */\n      swap3\n      pop\n        /* \"https://github.com/OpenZeppelin/openzeppelin-contracts/contracts/utils/cryptography/MerkleProof.sol\":1930:2306  if (computedHash <= proofElement) {... */\n      jump(tag_205)\n    tag_202:\n        /* \"https://github.com/OpenZeppelin/openzeppelin-contracts/contracts/utils/cryptography/MerkleProof.sol\":2249:2291  _efficientHash(proofElement, computedHash) */\n      tag_206\n        /* \"https://github.com/OpenZeppelin/openzeppelin-contracts/contracts/utils/cryptography/MerkleProof.sol\":2264:2276  proofElement */\n      dup2\n        /* \"https://github.com/OpenZeppelin/openzeppelin-contracts/contracts/utils/cryptography/MerkleProof.sol\":2278:2290  computedHash */\n      dup5\n        /* \"https://github.com/OpenZeppelin/openzeppelin-contracts/contracts/utils/cryptography/MerkleProof.sol\":2249:2263  _efficientHash */\n      tag_204\n        /* \"https://github.com/OpenZeppelin/openzeppelin-contracts/contracts/utils/cryptography/MerkleProof.sol\":2249:2291  _efficientHash(proofElement, computedHash) */\n      jump\t// in\n    tag_206:\n        /* \"https://github.com/OpenZeppelin/openzeppelin-contracts/contracts/utils/cryptography/MerkleProof.sol\":2234:2291  computedHash = _efficientHash(proofElement, computedHash) */\n      swap3\n      pop\n        /* \"https://github.com/OpenZeppelin/openzeppelin-contracts/contracts/utils/cryptography/MerkleProof.sol\":1930:2306  if (computedHash <= proofElement) {... */\n    tag_205:\n        /* \"https://github.com/OpenZeppelin/openzeppelin-contracts/contracts/utils/cryptography/MerkleProof.sol\":1871:2316  {... */\n      pop\n        /* \"https://github.com/OpenZeppelin/openzeppelin-contracts/contracts/utils/cryptography/MerkleProof.sol\":1866:1869  i++ */\n      dup1\n      dup1\n      tag_207\n      swap1\n      tag_208\n      jump\t// in\n    tag_207:\n      swap2\n      pop\n      pop\n        /* \"https://github.com/OpenZeppelin/openzeppelin-contracts/contracts/utils/cryptography/MerkleProof.sol\":1828:2316  for (uint256 i = 0; i < proof.length; i++) {... */\n      jump(tag_196)\n    tag_197:\n      pop\n        /* \"https://github.com/OpenZeppelin/openzeppelin-contracts/contracts/utils/cryptography/MerkleProof.sol\":2332:2344  computedHash */\n      dup1\n        /* \"https://github.com/OpenZeppelin/openzeppelin-contracts/contracts/utils/cryptography/MerkleProof.sol\":2325:2344  return computedHash */\n      swap2\n      pop\n      pop\n        /* \"https://github.com/OpenZeppelin/openzeppelin-contracts/contracts/utils/cryptography/MerkleProof.sol\":1689:2351  function processProof(bytes32[] memory proof, bytes32 leaf) internal pure returns (bytes32) {... */\n      swap3\n      swap2\n      pop\n      pop\n      jump\t// out\n        /* \"https://github.com/OpenZeppelin/openzeppelin-contracts/contracts/utils/cryptography/MerkleProof.sol\":2357:2618  function _efficientHash(bytes32 a, bytes32 b) private pure returns (bytes32 value) {... */\n    tag_204:\n        /* \"https://github.com/OpenZeppelin/openzeppelin-contracts/contracts/utils/cryptography/MerkleProof.sol\":2425:2438  bytes32 value */\n      0x00\n        /* \"https://github.com/OpenZeppelin/openzeppelin-contracts/contracts/utils/cryptography/MerkleProof.sol\":2529:2530  a */\n      dup3\n        /* \"https://github.com/OpenZeppelin/openzeppelin-contracts/contracts/utils/cryptography/MerkleProof.sol\":2523:2527  0x00 */\n      0x00\n        /* \"https://github.com/OpenZeppelin/openzeppelin-contracts/contracts/utils/cryptography/MerkleProof.sol\":2516:2531  mstore(0x00, a) */\n      mstore\n        /* \"https://github.com/OpenZeppelin/openzeppelin-contracts/contracts/utils/cryptography/MerkleProof.sol\":2557:2558  b */\n      dup2\n        /* \"https://github.com/OpenZeppelin/openzeppelin-contracts/contracts/utils/cryptography/MerkleProof.sol\":2551:2555  0x20 */\n      0x20\n        /* \"https://github.com/OpenZeppelin/openzeppelin-contracts/contracts/utils/cryptography/MerkleProof.sol\":2544:2559  mstore(0x20, b) */\n      mstore\n        /* \"https://github.com/OpenZeppelin/openzeppelin-contracts/contracts/utils/cryptography/MerkleProof.sol\":2597:2601  0x40 */\n      0x40\n        /* \"https://github.com/OpenZeppelin/openzeppelin-contracts/contracts/utils/cryptography/MerkleProof.sol\":2591:2595  0x00 */\n      0x00\n        /* \"https://github.com/OpenZeppelin/openzeppelin-contracts/contracts/utils/cryptography/MerkleProof.sol\":2581:2602  keccak256(0x00, 0x40) */\n      keccak256\n        /* \"https://github.com/OpenZeppelin/openzeppelin-contracts/contracts/utils/cryptography/MerkleProof.sol\":2572:2602  value := keccak256(0x00, 0x40) */\n      swap1\n      pop\n        /* \"https://github.com/OpenZeppelin/openzeppelin-contracts/contracts/utils/cryptography/MerkleProof.sol\":2357:2618  function _efficientHash(bytes32 a, bytes32 b) private pure returns (bytes32 value) {... */\n      swap3\n      swap2\n      pop\n      pop\n      jump\t// out\n        /* \"#utility.yul\":7:146   */\n    tag_211:\n        /* \"#utility.yul\":53:58   */\n      0x00\n        /* \"#utility.yul\":91:97   */\n      dup2\n        /* \"#utility.yul\":78:98   */\n      calldataload\n        /* \"#utility.yul\":69:98   */\n      swap1\n      pop\n        /* \"#utility.yul\":107:140   */\n      tag_213\n        /* \"#utility.yul\":134:139   */\n      dup2\n        /* \"#utility.yul\":107:140   */\n      tag_214\n      jump\t// in\n    tag_213:\n        /* \"#utility.yul\":7:146   */\n      swap3\n      swap2\n      pop\n      pop\n      jump\t// out\n        /* \"#utility.yul\":169:737   */\n    tag_215:\n        /* \"#utility.yul\":242:250   */\n      0x00\n        /* \"#utility.yul\":252:258   */\n      dup1\n        /* \"#utility.yul\":302:305   */\n      dup4\n        /* \"#utility.yul\":295:299   */\n      0x1f\n        /* \"#utility.yul\":287:293   */\n      dup5\n        /* \"#utility.yul\":283:300   */\n      add\n        /* \"#utility.yul\":279:306   */\n      slt\n        /* \"#utility.yul\":269:391   */\n      tag_217\n      jumpi\n        /* \"#utility.yul\":310:389   */\n      tag_218\n      tag_219\n      jump\t// in\n    tag_218:\n        /* \"#utility.yul\":269:391   */\n    tag_217:\n        /* \"#utility.yul\":423:429   */\n      dup3\n        /* \"#utility.yul\":410:430   */\n      calldataload\n        /* \"#utility.yul\":400:430   */\n      swap1\n      pop\n        /* \"#utility.yul\":453:471   */\n      0xffffffffffffffff\n        /* \"#utility.yul\":445:451   */\n      dup2\n        /* \"#utility.yul\":442:472   */\n      gt\n        /* \"#utility.yul\":439:556   */\n      iszero\n      tag_220\n      jumpi\n        /* \"#utility.yul\":475:554   */\n      tag_221\n      tag_222\n      jump\t// in\n    tag_221:\n        /* \"#utility.yul\":439:556   */\n    tag_220:\n        /* \"#utility.yul\":589:593   */\n      0x20\n        /* \"#utility.yul\":581:587   */\n      dup4\n        /* \"#utility.yul\":577:594   */\n      add\n        /* \"#utility.yul\":565:594   */\n      swap2\n      pop\n        /* \"#utility.yul\":643:646   */\n      dup4\n        /* \"#utility.yul\":635:639   */\n      0x20\n        /* \"#utility.yul\":627:633   */\n      dup3\n        /* \"#utility.yul\":623:640   */\n      mul\n        /* \"#utility.yul\":613:621   */\n      dup4\n        /* \"#utility.yul\":609:641   */\n      add\n        /* \"#utility.yul\":606:647   */\n      gt\n        /* \"#utility.yul\":603:731   */\n      iszero\n      tag_223\n      jumpi\n        /* \"#utility.yul\":650:729   */\n      tag_224\n      tag_225\n      jump\t// in\n    tag_224:\n        /* \"#utility.yul\":603:731   */\n    tag_223:\n        /* \"#utility.yul\":169:737   */\n      swap3\n      pop\n      swap3\n      swap1\n      pop\n      jump\t// out\n        /* \"#utility.yul\":743:882   */\n    tag_226:\n        /* \"#utility.yul\":789:794   */\n      0x00\n        /* \"#utility.yul\":827:833   */\n      dup2\n        /* \"#utility.yul\":814:834   */\n      calldataload\n        /* \"#utility.yul\":805:834   */\n      swap1\n      pop\n        /* \"#utility.yul\":843:876   */\n      tag_228\n        /* \"#utility.yul\":870:875   */\n      dup2\n        /* \"#utility.yul\":843:876   */\n      tag_229\n      jump\t// in\n    tag_228:\n        /* \"#utility.yul\":743:882   */\n      swap3\n      swap2\n      pop\n      pop\n      jump\t// out\n        /* \"#utility.yul\":888:1027   */\n    tag_230:\n        /* \"#utility.yul\":934:939   */\n      0x00\n        /* \"#utility.yul\":972:978   */\n      dup2\n        /* \"#utility.yul\":959:979   */\n      calldataload\n        /* \"#utility.yul\":950:979   */\n      swap1\n      pop\n        /* \"#utility.yul\":988:1021   */\n      tag_232\n        /* \"#utility.yul\":1015:1020   */\n      dup2\n        /* \"#utility.yul\":988:1021   */\n      tag_233\n      jump\t// in\n    tag_232:\n        /* \"#utility.yul\":888:1027   */\n      swap3\n      swap2\n      pop\n      pop\n      jump\t// out\n        /* \"#utility.yul\":1033:1362   */\n    tag_64:\n        /* \"#utility.yul\":1092:1098   */\n      0x00\n        /* \"#utility.yul\":1141:1143   */\n      0x20\n        /* \"#utility.yul\":1129:1138   */\n      dup3\n        /* \"#utility.yul\":1120:1127   */\n      dup5\n        /* \"#utility.yul\":1116:1139   */\n      sub\n        /* \"#utility.yul\":1112:1144   */\n      slt\n        /* \"#utility.yul\":1109:1228   */\n      iszero\n      tag_235\n      jumpi\n        /* \"#utility.yul\":1147:1226   */\n      tag_236\n      tag_237\n      jump\t// in\n    tag_236:\n        /* \"#utility.yul\":1109:1228   */\n    tag_235:\n        /* \"#utility.yul\":1267:1268   */\n      0x00\n        /* \"#utility.yul\":1292:1345   */\n      tag_238\n        /* \"#utility.yul\":1337:1344   */\n      dup5\n        /* \"#utility.yul\":1328:1334   */\n      dup3\n        /* \"#utility.yul\":1317:1326   */\n      dup6\n        /* \"#utility.yul\":1313:1335   */\n      add\n        /* \"#utility.yul\":1292:1345   */\n      tag_211\n      jump\t// in\n    tag_238:\n        /* \"#utility.yul\":1282:1345   */\n      swap2\n      pop\n        /* \"#utility.yul\":1238:1355   */\n      pop\n        /* \"#utility.yul\":1033:1362   */\n      swap3\n      swap2\n      pop\n      pop\n      jump\t// out\n        /* \"#utility.yul\":1368:1842   */\n    tag_83:\n        /* \"#utility.yul\":1436:1442   */\n      0x00\n        /* \"#utility.yul\":1444:1450   */\n      dup1\n        /* \"#utility.yul\":1493:1495   */\n      0x40\n        /* \"#utility.yul\":1481:1490   */\n      dup4\n        /* \"#utility.yul\":1472:1479   */\n      dup6\n        /* \"#utility.yul\":1468:1491   */\n      sub\n        /* \"#utility.yul\":1464:1496   */\n      slt\n        /* \"#utility.yul\":1461:1580   */\n      iszero\n      tag_240\n      jumpi\n        /* \"#utility.yul\":1499:1578   */\n      tag_241\n      tag_237\n      jump\t// in\n    tag_241:\n        /* \"#utility.yul\":1461:1580   */\n    tag_240:\n        /* \"#utility.yul\":1619:1620   */\n      0x00\n        /* \"#utility.yul\":1644:1697   */\n      tag_242\n        /* \"#utility.yul\":1689:1696   */\n      dup6\n        /* \"#utility.yul\":1680:1686   */\n      dup3\n        /* \"#utility.yul\":1669:1678   */\n      dup7\n        /* \"#utility.yul\":1665:1687   */\n      add\n        /* \"#utility.yul\":1644:1697   */\n      tag_211\n      jump\t// in\n    tag_242:\n        /* \"#utility.yul\":1634:1697   */\n      swap3\n      pop\n        /* \"#utility.yul\":1590:1707   */\n      pop\n        /* \"#utility.yul\":1746:1748   */\n      0x20\n        /* \"#utility.yul\":1772:1825   */\n      tag_243\n        /* \"#utility.yul\":1817:1824   */\n      dup6\n        /* \"#utility.yul\":1808:1814   */\n      dup3\n        /* \"#utility.yul\":1797:1806   */\n      dup7\n        /* \"#utility.yul\":1793:1815   */\n      add\n        /* \"#utility.yul\":1772:1825   */\n      tag_230\n      jump\t// in\n    tag_243:\n        /* \"#utility.yul\":1762:1825   */\n      swap2\n      pop\n        /* \"#utility.yul\":1717:1835   */\n      pop\n        /* \"#utility.yul\":1368:1842   */\n      swap3\n      pop\n      swap3\n      swap1\n      pop\n      jump\t// out\n        /* \"#utility.yul\":1848:2177   */\n    tag_47:\n        /* \"#utility.yul\":1907:1913   */\n      0x00\n        /* \"#utility.yul\":1956:1958   */\n      0x20\n        /* \"#utility.yul\":1944:1953   */\n      dup3\n        /* \"#utility.yul\":1935:1942   */\n      dup5\n        /* \"#utility.yul\":1931:1954   */\n      sub\n        /* \"#utility.yul\":1927:1959   */\n      slt\n        /* \"#utility.yul\":1924:2043   */\n      iszero\n      tag_245\n      jumpi\n        /* \"#utility.yul\":1962:2041   */\n      tag_246\n      tag_237\n      jump\t// in\n    tag_246:\n        /* \"#utility.yul\":1924:2043   */\n    tag_245:\n        /* \"#utility.yul\":2082:2083   */\n      0x00\n        /* \"#utility.yul\":2107:2160   */\n      tag_247\n        /* \"#utility.yul\":2152:2159   */\n      dup5\n        /* \"#utility.yul\":2143:2149   */\n      dup3\n        /* \"#utility.yul\":2132:2141   */\n      dup6\n        /* \"#utility.yul\":2128:2150   */\n      add\n        /* \"#utility.yul\":2107:2160   */\n      tag_226\n      jump\t// in\n    tag_247:\n        /* \"#utility.yul\":2097:2160   */\n      swap2\n      pop\n        /* \"#utility.yul\":2053:2170   */\n      pop\n        /* \"#utility.yul\":1848:2177   */\n      swap3\n      swap2\n      pop\n      pop\n      jump\t// out\n        /* \"#utility.yul\":2183:2512   */\n    tag_40:\n        /* \"#utility.yul\":2242:2248   */\n      0x00\n        /* \"#utility.yul\":2291:2293   */\n      0x20\n        /* \"#utility.yul\":2279:2288   */\n      dup3\n        /* \"#utility.yul\":2270:2277   */\n      dup5\n        /* \"#utility.yul\":2266:2289   */\n      sub\n        /* \"#utility.yul\":2262:2294   */\n      slt\n        /* \"#utility.yul\":2259:2378   */\n      iszero\n      tag_249\n      jumpi\n        /* \"#utility.yul\":2297:2376   */\n      tag_250\n      tag_237\n      jump\t// in\n    tag_250:\n        /* \"#utility.yul\":2259:2378   */\n    tag_249:\n        /* \"#utility.yul\":2417:2418   */\n      0x00\n        /* \"#utility.yul\":2442:2495   */\n      tag_251\n        /* \"#utility.yul\":2487:2494   */\n      dup5\n        /* \"#utility.yul\":2478:2484   */\n      dup3\n        /* \"#utility.yul\":2467:2476   */\n      dup6\n        /* \"#utility.yul\":2463:2485   */\n      add\n        /* \"#utility.yul\":2442:2495   */\n      tag_230\n      jump\t// in\n    tag_251:\n        /* \"#utility.yul\":2432:2495   */\n      swap2\n      pop\n        /* \"#utility.yul\":2388:2505   */\n      pop\n        /* \"#utility.yul\":2183:2512   */\n      swap3\n      swap2\n      pop\n      pop\n      jump\t// out\n        /* \"#utility.yul\":2518:3222   */\n    tag_35:\n        /* \"#utility.yul\":2613:2619   */\n      0x00\n        /* \"#utility.yul\":2621:2627   */\n      dup1\n        /* \"#utility.yul\":2629:2635   */\n      0x00\n        /* \"#utility.yul\":2678:2680   */\n      0x40\n        /* \"#utility.yul\":2666:2675   */\n      dup5\n        /* \"#utility.yul\":2657:2664   */\n      dup7\n        /* \"#utility.yul\":2653:2676   */\n      sub\n        /* \"#utility.yul\":2649:2681   */\n      slt\n        /* \"#utility.yul\":2646:2765   */\n      iszero\n      tag_253\n      jumpi\n        /* \"#utility.yul\":2684:2763   */\n      tag_254\n      tag_237\n      jump\t// in\n    tag_254:\n        /* \"#utility.yul\":2646:2765   */\n    tag_253:\n        /* \"#utility.yul\":2804:2805   */\n      0x00\n        /* \"#utility.yul\":2829:2882   */\n      tag_255\n        /* \"#utility.yul\":2874:2881   */\n      dup7\n        /* \"#utility.yul\":2865:2871   */\n      dup3\n        /* \"#utility.yul\":2854:2863   */\n      dup8\n        /* \"#utility.yul\":2850:2872   */\n      add\n        /* \"#utility.yul\":2829:2882   */\n      tag_230\n      jump\t// in\n    tag_255:\n        /* \"#utility.yul\":2819:2882   */\n      swap4\n      pop\n        /* \"#utility.yul\":2775:2892   */\n      pop\n        /* \"#utility.yul\":2959:2961   */\n      0x20\n        /* \"#utility.yul\":2948:2957   */\n      dup5\n        /* \"#utility.yul\":2944:2962   */\n      add\n        /* \"#utility.yul\":2931:2963   */\n      calldataload\n        /* \"#utility.yul\":2990:3008   */\n      0xffffffffffffffff\n        /* \"#utility.yul\":2982:2988   */\n      dup2\n        /* \"#utility.yul\":2979:3009   */\n      gt\n        /* \"#utility.yul\":2976:3093   */\n      iszero\n      tag_256\n      jumpi\n        /* \"#utility.yul\":3012:3091   */\n      tag_257\n      tag_258\n      jump\t// in\n    tag_257:\n        /* \"#utility.yul\":2976:3093   */\n    tag_256:\n        /* \"#utility.yul\":3125:3205   */\n      tag_259\n        /* \"#utility.yul\":3197:3204   */\n      dup7\n        /* \"#utility.yul\":3188:3194   */\n      dup3\n        /* \"#utility.yul\":3177:3186   */\n      dup8\n        /* \"#utility.yul\":3173:3195   */\n      add\n        /* \"#utility.yul\":3125:3205   */\n      tag_215\n      jump\t// in\n    tag_259:\n        /* \"#utility.yul\":3107:3205   */\n      swap3\n      pop\n      swap3\n      pop\n        /* \"#utility.yul\":2902:3215   */\n      pop\n        /* \"#utility.yul\":2518:3222   */\n      swap3\n      pop\n      swap3\n      pop\n      swap3\n      jump\t// out\n        /* \"#utility.yul\":3228:3499   */\n    tag_260:\n        /* \"#utility.yul\":3343:3353   */\n      0x00\n        /* \"#utility.yul\":3364:3456   */\n      tag_262\n        /* \"#utility.yul\":3452:3455   */\n      dup4\n        /* \"#utility.yul\":3444:3450   */\n      dup4\n        /* \"#utility.yul\":3364:3456   */\n      tag_263\n      jump\t// in\n    tag_262:\n        /* \"#utility.yul\":3488:3492   */\n      0x40\n        /* \"#utility.yul\":3483:3486   */\n      dup4\n        /* \"#utility.yul\":3479:3493   */\n      add\n        /* \"#utility.yul\":3465:3493   */\n      swap1\n      pop\n        /* \"#utility.yul\":3228:3499   */\n      swap3\n      swap2\n      pop\n      pop\n      jump\t// out\n        /* \"#utility.yul\":3505:3613   */\n    tag_264:\n        /* \"#utility.yul\":3582:3606   */\n      tag_266\n        /* \"#utility.yul\":3600:3605   */\n      dup2\n        /* \"#utility.yul\":3582:3606   */\n      tag_267\n      jump\t// in\n    tag_266:\n        /* \"#utility.yul\":3577:3580   */\n      dup3\n        /* \"#utility.yul\":3570:3607   */\n      mstore\n        /* \"#utility.yul\":3505:3613   */\n      pop\n      pop\n      jump\t// out\n        /* \"#utility.yul\":3619:3737   */\n    tag_268:\n        /* \"#utility.yul\":3706:3730   */\n      tag_270\n        /* \"#utility.yul\":3724:3729   */\n      dup2\n        /* \"#utility.yul\":3706:3730   */\n      tag_267\n      jump\t// in\n    tag_270:\n        /* \"#utility.yul\":3701:3704   */\n      dup3\n        /* \"#utility.yul\":3694:3731   */\n      mstore\n        /* \"#utility.yul\":3619:3737   */\n      pop\n      pop\n      jump\t// out\n        /* \"#utility.yul\":3743:3900   */\n    tag_271:\n        /* \"#utility.yul\":3848:3893   */\n      tag_273\n        /* \"#utility.yul\":3868:3892   */\n      tag_274\n        /* \"#utility.yul\":3886:3891   */\n      dup3\n        /* \"#utility.yul\":3868:3892   */\n      tag_267\n      jump\t// in\n    tag_274:\n        /* \"#utility.yul\":3848:3893   */\n      tag_275\n      jump\t// in\n    tag_273:\n        /* \"#utility.yul\":3843:3846   */\n      dup3\n        /* \"#utility.yul\":3836:3894   */\n      mstore\n        /* \"#utility.yul\":3743:3900   */\n      pop\n      pop\n      jump\t// out\n        /* \"#utility.yul\":3982:4898   */\n    tag_276:\n        /* \"#utility.yul\":4147:4150   */\n      0x00\n        /* \"#utility.yul\":4176:4253   */\n      tag_278\n        /* \"#utility.yul\":4247:4252   */\n      dup3\n        /* \"#utility.yul\":4176:4253   */\n      tag_279\n      jump\t// in\n    tag_278:\n        /* \"#utility.yul\":4269:4378   */\n      tag_280\n        /* \"#utility.yul\":4371:4377   */\n      dup2\n        /* \"#utility.yul\":4366:4369   */\n      dup6\n        /* \"#utility.yul\":4269:4378   */\n      tag_281\n      jump\t// in\n    tag_280:\n        /* \"#utility.yul\":4262:4378   */\n      swap4\n      pop\n        /* \"#utility.yul\":4402:4481   */\n      tag_282\n        /* \"#utility.yul\":4475:4480   */\n      dup4\n        /* \"#utility.yul\":4402:4481   */\n      tag_283\n      jump\t// in\n    tag_282:\n        /* \"#utility.yul\":4504:4511   */\n      dup1\n        /* \"#utility.yul\":4535:4536   */\n      0x00\n        /* \"#utility.yul\":4520:4873   */\n    tag_284:\n        /* \"#utility.yul\":4545:4551   */\n      dup4\n        /* \"#utility.yul\":4542:4543   */\n      dup2\n        /* \"#utility.yul\":4539:4552   */\n      lt\n        /* \"#utility.yul\":4520:4873   */\n      iszero\n      tag_286\n      jumpi\n        /* \"#utility.yul\":4621:4627   */\n      dup2\n        /* \"#utility.yul\":4615:4628   */\n      mload\n        /* \"#utility.yul\":4648:4757   */\n      tag_287\n        /* \"#utility.yul\":4753:4756   */\n      dup9\n        /* \"#utility.yul\":4738:4751   */\n      dup3\n        /* \"#utility.yul\":4648:4757   */\n      tag_260\n      jump\t// in\n    tag_287:\n        /* \"#utility.yul\":4641:4757   */\n      swap8\n      pop\n        /* \"#utility.yul\":4780:4863   */\n      tag_288\n        /* \"#utility.yul\":4856:4862   */\n      dup4\n        /* \"#utility.yul\":4780:4863   */\n      tag_289\n      jump\t// in\n    tag_288:\n        /* \"#utility.yul\":4770:4863   */\n      swap3\n      pop\n        /* \"#utility.yul\":4580:4873   */\n      pop\n        /* \"#utility.yul\":4567:4568   */\n      0x01\n        /* \"#utility.yul\":4564:4565   */\n      dup2\n        /* \"#utility.yul\":4560:4569   */\n      add\n        /* \"#utility.yul\":4555:4569   */\n      swap1\n      pop\n        /* \"#utility.yul\":4520:4873   */\n      jump(tag_284)\n    tag_286:\n        /* \"#utility.yul\":4524:4538   */\n      pop\n        /* \"#utility.yul\":4889:4892   */\n      dup6\n        /* \"#utility.yul\":4882:4892   */\n      swap4\n      pop\n        /* \"#utility.yul\":4152:4898   */\n      pop\n      pop\n      pop\n        /* \"#utility.yul\":3982:4898   */\n      swap3\n      swap2\n      pop\n      pop\n      jump\t// out\n        /* \"#utility.yul\":4904:5013   */\n    tag_290:\n        /* \"#utility.yul\":4985:5006   */\n      tag_292\n        /* \"#utility.yul\":5000:5005   */\n      dup2\n        /* \"#utility.yul\":4985:5006   */\n      tag_293\n      jump\t// in\n    tag_292:\n        /* \"#utility.yul\":4980:4983   */\n      dup3\n        /* \"#utility.yul\":4973:5007   */\n      mstore\n        /* \"#utility.yul\":4904:5013   */\n      pop\n      pop\n      jump\t// out\n        /* \"#utility.yul\":5019:5383   */\n    tag_294:\n        /* \"#utility.yul\":5107:5110   */\n      0x00\n        /* \"#utility.yul\":5135:5174   */\n      tag_296\n        /* \"#utility.yul\":5168:5173   */\n      dup3\n        /* \"#utility.yul\":5135:5174   */\n      tag_297\n      jump\t// in\n    tag_296:\n        /* \"#utility.yul\":5190:5261   */\n      tag_298\n        /* \"#utility.yul\":5254:5260   */\n      dup2\n        /* \"#utility.yul\":5249:5252   */\n      dup6\n        /* \"#utility.yul\":5190:5261   */\n      tag_299\n      jump\t// in\n    tag_298:\n        /* \"#utility.yul\":5183:5261   */\n      swap4\n      pop\n        /* \"#utility.yul\":5270:5322   */\n      tag_300\n        /* \"#utility.yul\":5315:5321   */\n      dup2\n        /* \"#utility.yul\":5310:5313   */\n      dup6\n        /* \"#utility.yul\":5303:5307   */\n      0x20\n        /* \"#utility.yul\":5296:5301   */\n      dup7\n        /* \"#utility.yul\":5292:5308   */\n      add\n        /* \"#utility.yul\":5270:5322   */\n      tag_301\n      jump\t// in\n    tag_300:\n        /* \"#utility.yul\":5347:5376   */\n      tag_302\n        /* \"#utility.yul\":5369:5375   */\n      dup2\n        /* \"#utility.yul\":5347:5376   */\n      tag_303\n      jump\t// in\n    tag_302:\n        /* \"#utility.yul\":5342:5345   */\n      dup5\n        /* \"#utility.yul\":5338:5377   */\n      add\n        /* \"#utility.yul\":5331:5377   */\n      swap2\n      pop\n        /* \"#utility.yul\":5111:5383   */\n      pop\n        /* \"#utility.yul\":5019:5383   */\n      swap3\n      swap2\n      pop\n      pop\n      jump\t// out\n        /* \"#utility.yul\":5389:5755   */\n    tag_304:\n        /* \"#utility.yul\":5531:5534   */\n      0x00\n        /* \"#utility.yul\":5552:5619   */\n      tag_306\n        /* \"#utility.yul\":5616:5618   */\n      0x26\n        /* \"#utility.yul\":5611:5614   */\n      dup4\n        /* \"#utility.yul\":5552:5619   */\n      tag_299\n      jump\t// in\n    tag_306:\n        /* \"#utility.yul\":5545:5619   */\n      swap2\n      pop\n        /* \"#utility.yul\":5628:5721   */\n      tag_307\n        /* \"#utility.yul\":5717:5720   */\n      dup3\n        /* \"#utility.yul\":5628:5721   */\n      tag_308\n      jump\t// in\n    tag_307:\n        /* \"#utility.yul\":5746:5748   */\n      0x40\n        /* \"#utility.yul\":5741:5744   */\n      dup3\n        /* \"#utility.yul\":5737:5749   */\n      add\n        /* \"#utility.yul\":5730:5749   */\n      swap1\n      pop\n        /* \"#utility.yul\":5389:5755   */\n      swap2\n      swap1\n      pop\n      jump\t// out\n        /* \"#utility.yul\":5761:6127   */\n    tag_309:\n        /* \"#utility.yul\":5903:5906   */\n      0x00\n        /* \"#utility.yul\":5924:5991   */\n      tag_311\n        /* \"#utility.yul\":5988:5990   */\n      0x21\n        /* \"#utility.yul\":5983:5986   */\n      dup4\n        /* \"#utility.yul\":5924:5991   */\n      tag_299\n      jump\t// in\n    tag_311:\n        /* \"#utility.yul\":5917:5991   */\n      swap2\n      pop\n        /* \"#utility.yul\":6000:6093   */\n      tag_312\n        /* \"#utility.yul\":6089:6092   */\n      dup3\n        /* \"#utility.yul\":6000:6093   */\n      tag_313\n      jump\t// in\n    tag_312:\n        /* \"#utility.yul\":6118:6120   */\n      0x40\n        /* \"#utility.yul\":6113:6116   */\n      dup3\n        /* \"#utility.yul\":6109:6121   */\n      add\n        /* \"#utility.yul\":6102:6121   */\n      swap1\n      pop\n        /* \"#utility.yul\":5761:6127   */\n      swap2\n      swap1\n      pop\n      jump\t// out\n        /* \"#utility.yul\":6133:6499   */\n    tag_314:\n        /* \"#utility.yul\":6275:6278   */\n      0x00\n        /* \"#utility.yul\":6296:6363   */\n      tag_316\n        /* \"#utility.yul\":6360:6362   */\n      0x16\n        /* \"#utility.yul\":6355:6358   */\n      dup4\n        /* \"#utility.yul\":6296:6363   */\n      tag_299\n      jump\t// in\n    tag_316:\n        /* \"#utility.yul\":6289:6363   */\n      swap2\n      pop\n        /* \"#utility.yul\":6372:6465   */\n      tag_317\n        /* \"#utility.yul\":6461:6464   */\n      dup3\n        /* \"#utility.yul\":6372:6465   */\n      tag_318\n      jump\t// in\n    tag_317:\n        /* \"#utility.yul\":6490:6492   */\n      0x20\n        /* \"#utility.yul\":6485:6488   */\n      dup3\n        /* \"#utility.yul\":6481:6493   */\n      add\n        /* \"#utility.yul\":6474:6493   */\n      swap1\n      pop\n        /* \"#utility.yul\":6133:6499   */\n      swap2\n      swap1\n      pop\n      jump\t// out\n        /* \"#utility.yul\":6505:6871   */\n    tag_319:\n        /* \"#utility.yul\":6647:6650   */\n      0x00\n        /* \"#utility.yul\":6668:6735   */\n      tag_321\n        /* \"#utility.yul\":6732:6734   */\n      0x11\n        /* \"#utility.yul\":6727:6730   */\n      dup4\n        /* \"#utility.yul\":6668:6735   */\n      tag_299\n      jump\t// in\n    tag_321:\n        /* \"#utility.yul\":6661:6735   */\n      swap2\n      pop\n        /* \"#utility.yul\":6744:6837   */\n      tag_322\n        /* \"#utility.yul\":6833:6836   */\n      dup3\n        /* \"#utility.yul\":6744:6837   */\n      tag_323\n      jump\t// in\n    tag_322:\n        /* \"#utility.yul\":6862:6864   */\n      0x20\n        /* \"#utility.yul\":6857:6860   */\n      dup3\n        /* \"#utility.yul\":6853:6865   */\n      add\n        /* \"#utility.yul\":6846:6865   */\n      swap1\n      pop\n        /* \"#utility.yul\":6505:6871   */\n      swap2\n      swap1\n      pop\n      jump\t// out\n        /* \"#utility.yul\":6877:7243   */\n    tag_324:\n        /* \"#utility.yul\":7019:7022   */\n      0x00\n        /* \"#utility.yul\":7040:7107   */\n      tag_326\n        /* \"#utility.yul\":7104:7106   */\n      0x16\n        /* \"#utility.yul\":7099:7102   */\n      dup4\n        /* \"#utility.yul\":7040:7107   */\n      tag_299\n      jump\t// in\n    tag_326:\n        /* \"#utility.yul\":7033:7107   */\n      swap2\n      pop\n        /* \"#utility.yul\":7116:7209   */\n      tag_327\n        /* \"#utility.yul\":7205:7208   */\n      dup3\n        /* \"#utility.yul\":7116:7209   */\n      tag_328\n      jump\t// in\n    tag_327:\n        /* \"#utility.yul\":7234:7236   */\n      0x20\n        /* \"#utility.yul\":7229:7232   */\n      dup3\n        /* \"#utility.yul\":7225:7237   */\n      add\n        /* \"#utility.yul\":7218:7237   */\n      swap1\n      pop\n        /* \"#utility.yul\":6877:7243   */\n      swap2\n      swap1\n      pop\n      jump\t// out\n        /* \"#utility.yul\":7249:7615   */\n    tag_329:\n        /* \"#utility.yul\":7391:7394   */\n      0x00\n        /* \"#utility.yul\":7412:7479   */\n      tag_331\n        /* \"#utility.yul\":7476:7478   */\n      0x20\n        /* \"#utility.yul\":7471:7474   */\n      dup4\n        /* \"#utility.yul\":7412:7479   */\n      tag_299\n      jump\t// in\n    tag_331:\n        /* \"#utility.yul\":7405:7479   */\n      swap2\n      pop\n        /* \"#utility.yul\":7488:7581   */\n      tag_332\n        /* \"#utility.yul\":7577:7580   */\n      dup3\n        /* \"#utility.yul\":7488:7581   */\n      tag_333\n      jump\t// in\n    tag_332:\n        /* \"#utility.yul\":7606:7608   */\n      0x20\n        /* \"#utility.yul\":7601:7604   */\n      dup3\n        /* \"#utility.yul\":7597:7609   */\n      add\n        /* \"#utility.yul\":7590:7609   */\n      swap1\n      pop\n        /* \"#utility.yul\":7249:7615   */\n      swap2\n      swap1\n      pop\n      jump\t// out\n        /* \"#utility.yul\":7621:7987   */\n    tag_334:\n        /* \"#utility.yul\":7763:7766   */\n      0x00\n        /* \"#utility.yul\":7784:7851   */\n      tag_336\n        /* \"#utility.yul\":7848:7850   */\n      0x1c\n        /* \"#utility.yul\":7843:7846   */\n      dup4\n        /* \"#utility.yul\":7784:7851   */\n      tag_299\n      jump\t// in\n    tag_336:\n        /* \"#utility.yul\":7777:7851   */\n      swap2\n      pop\n        /* \"#utility.yul\":7860:7953   */\n      tag_337\n        /* \"#utility.yul\":7949:7952   */\n      dup3\n        /* \"#utility.yul\":7860:7953   */\n      tag_338\n      jump\t// in\n    tag_337:\n        /* \"#utility.yul\":7978:7980   */\n      0x20\n        /* \"#utility.yul\":7973:7976   */\n      dup3\n        /* \"#utility.yul\":7969:7981   */\n      add\n        /* \"#utility.yul\":7962:7981   */\n      swap1\n      pop\n        /* \"#utility.yul\":7621:7987   */\n      swap2\n      swap1\n      pop\n      jump\t// out\n        /* \"#utility.yul\":8065:8564   */\n    tag_263:\n        /* \"#utility.yul\":8198:8202   */\n      0x40\n        /* \"#utility.yul\":8193:8196   */\n      dup3\n        /* \"#utility.yul\":8189:8203   */\n      add\n        /* \"#utility.yul\":8289:8293   */\n      0x00\n        /* \"#utility.yul\":8282:8287   */\n      dup3\n        /* \"#utility.yul\":8278:8294   */\n      add\n        /* \"#utility.yul\":8272:8295   */\n      mload\n        /* \"#utility.yul\":8308:8371   */\n      tag_340\n        /* \"#utility.yul\":8365:8369   */\n      0x00\n        /* \"#utility.yul\":8360:8363   */\n      dup6\n        /* \"#utility.yul\":8356:8370   */\n      add\n        /* \"#utility.yul\":8342:8354   */\n      dup3\n        /* \"#utility.yul\":8308:8371   */\n      tag_264\n      jump\t// in\n    tag_340:\n        /* \"#utility.yul\":8213:8381   */\n      pop\n        /* \"#utility.yul\":8465:8469   */\n      0x20\n        /* \"#utility.yul\":8458:8463   */\n      dup3\n        /* \"#utility.yul\":8454:8470   */\n      add\n        /* \"#utility.yul\":8448:8471   */\n      mload\n        /* \"#utility.yul\":8484:8547   */\n      tag_341\n        /* \"#utility.yul\":8541:8545   */\n      0x20\n        /* \"#utility.yul\":8536:8539   */\n      dup6\n        /* \"#utility.yul\":8532:8546   */\n      add\n        /* \"#utility.yul\":8518:8530   */\n      dup3\n        /* \"#utility.yul\":8484:8547   */\n      tag_342\n      jump\t// in\n    tag_341:\n        /* \"#utility.yul\":8391:8557   */\n      pop\n        /* \"#utility.yul\":8167:8564   */\n      pop\n        /* \"#utility.yul\":8065:8564   */\n      pop\n      pop\n      jump\t// out\n        /* \"#utility.yul\":8570:8678   */\n    tag_342:\n        /* \"#utility.yul\":8647:8671   */\n      tag_344\n        /* \"#utility.yul\":8665:8670   */\n      dup2\n        /* \"#utility.yul\":8647:8671   */\n      tag_345\n      jump\t// in\n    tag_344:\n        /* \"#utility.yul\":8642:8645   */\n      dup3\n        /* \"#utility.yul\":8635:8672   */\n      mstore\n        /* \"#utility.yul\":8570:8678   */\n      pop\n      pop\n      jump\t// out\n        /* \"#utility.yul\":8684:8802   */\n    tag_346:\n        /* \"#utility.yul\":8771:8795   */\n      tag_348\n        /* \"#utility.yul\":8789:8794   */\n      dup2\n        /* \"#utility.yul\":8771:8795   */\n      tag_345\n      jump\t// in\n    tag_348:\n        /* \"#utility.yul\":8766:8769   */\n      dup3\n        /* \"#utility.yul\":8759:8796   */\n      mstore\n        /* \"#utility.yul\":8684:8802   */\n      pop\n      pop\n      jump\t// out\n        /* \"#utility.yul\":8808:8965   */\n    tag_349:\n        /* \"#utility.yul\":8913:8958   */\n      tag_351\n        /* \"#utility.yul\":8933:8957   */\n      tag_352\n        /* \"#utility.yul\":8951:8956   */\n      dup3\n        /* \"#utility.yul\":8933:8957   */\n      tag_345\n      jump\t// in\n    tag_352:\n        /* \"#utility.yul\":8913:8958   */\n      tag_353\n      jump\t// in\n    tag_351:\n        /* \"#utility.yul\":8908:8911   */\n      dup3\n        /* \"#utility.yul\":8901:8959   */\n      mstore\n        /* \"#utility.yul\":8808:8965   */\n      pop\n      pop\n      jump\t// out\n        /* \"#utility.yul\":8971:9368   */\n    tag_105:\n        /* \"#utility.yul\":9111:9114   */\n      0x00\n        /* \"#utility.yul\":9126:9201   */\n      tag_355\n        /* \"#utility.yul\":9197:9200   */\n      dup3\n        /* \"#utility.yul\":9188:9194   */\n      dup6\n        /* \"#utility.yul\":9126:9201   */\n      tag_271\n      jump\t// in\n    tag_355:\n        /* \"#utility.yul\":9226:9228   */\n      0x14\n        /* \"#utility.yul\":9221:9224   */\n      dup3\n        /* \"#utility.yul\":9217:9229   */\n      add\n        /* \"#utility.yul\":9210:9229   */\n      swap2\n      pop\n        /* \"#utility.yul\":9239:9314   */\n      tag_356\n        /* \"#utility.yul\":9310:9313   */\n      dup3\n        /* \"#utility.yul\":9301:9307   */\n      dup5\n        /* \"#utility.yul\":9239:9314   */\n      tag_349\n      jump\t// in\n    tag_356:\n        /* \"#utility.yul\":9339:9341   */\n      0x20\n        /* \"#utility.yul\":9334:9337   */\n      dup3\n        /* \"#utility.yul\":9330:9342   */\n      add\n        /* \"#utility.yul\":9323:9342   */\n      swap2\n      pop\n        /* \"#utility.yul\":9359:9362   */\n      dup2\n        /* \"#utility.yul\":9352:9362   */\n      swap1\n      pop\n        /* \"#utility.yul\":8971:9368   */\n      swap4\n      swap3\n      pop\n      pop\n      pop\n      jump\t// out\n        /* \"#utility.yul\":9374:9596   */\n    tag_32:\n        /* \"#utility.yul\":9467:9471   */\n      0x00\n        /* \"#utility.yul\":9505:9507   */\n      0x20\n        /* \"#utility.yul\":9494:9503   */\n      dup3\n        /* \"#utility.yul\":9490:9508   */\n      add\n        /* \"#utility.yul\":9482:9508   */\n      swap1\n      pop\n        /* \"#utility.yul\":9518:9589   */\n      tag_358\n        /* \"#utility.yul\":9586:9587   */\n      0x00\n        /* \"#utility.yul\":9575:9584   */\n      dup4\n        /* \"#utility.yul\":9571:9588   */\n      add\n        /* \"#utility.yul\":9562:9568   */\n      dup5\n        /* \"#utility.yul\":9518:9589   */\n      tag_268\n      jump\t// in\n    tag_358:\n        /* \"#utility.yul\":9374:9596   */\n      swap3\n      swap2\n      pop\n      pop\n      jump\t// out\n        /* \"#utility.yul\":9602:9934   */\n    tag_43:\n        /* \"#utility.yul\":9723:9727   */\n      0x00\n        /* \"#utility.yul\":9761:9763   */\n      0x40\n        /* \"#utility.yul\":9750:9759   */\n      dup3\n        /* \"#utility.yul\":9746:9764   */\n      add\n        /* \"#utility.yul\":9738:9764   */\n      swap1\n      pop\n        /* \"#utility.yul\":9774:9845   */\n      tag_360\n        /* \"#utility.yul\":9842:9843   */\n      0x00\n        /* \"#utility.yul\":9831:9840   */\n      dup4\n        /* \"#utility.yul\":9827:9844   */\n      add\n        /* \"#utility.yul\":9818:9824   */\n      dup6\n        /* \"#utility.yul\":9774:9845   */\n      tag_268\n      jump\t// in\n    tag_360:\n        /* \"#utility.yul\":9855:9927   */\n      tag_361\n        /* \"#utility.yul\":9923:9925   */\n      0x20\n        /* \"#utility.yul\":9912:9921   */\n      dup4\n        /* \"#utility.yul\":9908:9926   */\n      add\n        /* \"#utility.yul\":9899:9905   */\n      dup5\n        /* \"#utility.yul\":9855:9927   */\n      tag_346\n      jump\t// in\n    tag_361:\n        /* \"#utility.yul\":9602:9934   */\n      swap4\n      swap3\n      pop\n      pop\n      pop\n      jump\t// out\n        /* \"#utility.yul\":9940:10405   */\n    tag_27:\n        /* \"#utility.yul\":10129:10133   */\n      0x00\n        /* \"#utility.yul\":10167:10169   */\n      0x20\n        /* \"#utility.yul\":10156:10165   */\n      dup3\n        /* \"#utility.yul\":10152:10170   */\n      add\n        /* \"#utility.yul\":10144:10170   */\n      swap1\n      pop\n        /* \"#utility.yul\":10216:10225   */\n      dup2\n        /* \"#utility.yul\":10210:10214   */\n      dup2\n        /* \"#utility.yul\":10206:10226   */\n      sub\n        /* \"#utility.yul\":10202:10203   */\n      0x00\n        /* \"#utility.yul\":10191:10200   */\n      dup4\n        /* \"#utility.yul\":10187:10204   */\n      add\n        /* \"#utility.yul\":10180:10227   */\n      mstore\n        /* \"#utility.yul\":10244:10398   */\n      tag_363\n        /* \"#utility.yul\":10393:10397   */\n      dup2\n        /* \"#utility.yul\":10384:10390   */\n      dup5\n        /* \"#utility.yul\":10244:10398   */\n      tag_276\n      jump\t// in\n    tag_363:\n        /* \"#utility.yul\":10236:10398   */\n      swap1\n      pop\n        /* \"#utility.yul\":9940:10405   */\n      swap3\n      swap2\n      pop\n      pop\n      jump\t// out\n        /* \"#utility.yul\":10411:10621   */\n    tag_67:\n        /* \"#utility.yul\":10498:10502   */\n      0x00\n        /* \"#utility.yul\":10536:10538   */\n      0x20\n        /* \"#utility.yul\":10525:10534   */\n      dup3\n        /* \"#utility.yul\":10521:10539   */\n      add\n        /* \"#utility.yul\":10513:10539   */\n      swap1\n      pop\n        /* \"#utility.yul\":10549:10614   */\n      tag_365\n        /* \"#utility.yul\":10611:10612   */\n      0x00\n        /* \"#utility.yul\":10600:10609   */\n      dup4\n        /* \"#utility.yul\":10596:10613   */\n      add\n        /* \"#utility.yul\":10587:10593   */\n      dup5\n        /* \"#utility.yul\":10549:10614   */\n      tag_290\n      jump\t// in\n    tag_365:\n        /* \"#utility.yul\":10411:10621   */\n      swap3\n      swap2\n      pop\n      pop\n      jump\t// out\n        /* \"#utility.yul\":10627:10940   */\n    tag_53:\n        /* \"#utility.yul\":10740:10744   */\n      0x00\n        /* \"#utility.yul\":10778:10780   */\n      0x20\n        /* \"#utility.yul\":10767:10776   */\n      dup3\n        /* \"#utility.yul\":10763:10781   */\n      add\n        /* \"#utility.yul\":10755:10781   */\n      swap1\n      pop\n        /* \"#utility.yul\":10827:10836   */\n      dup2\n        /* \"#utility.yul\":10821:10825   */\n      dup2\n        /* \"#utility.yul\":10817:10837   */\n      sub\n        /* \"#utility.yul\":10813:10814   */\n      0x00\n        /* \"#utility.yul\":10802:10811   */\n      dup4\n        /* \"#utility.yul\":10798:10815   */\n      add\n        /* \"#utility.yul\":10791:10838   */\n      mstore\n        /* \"#utility.yul\":10855:10933   */\n      tag_367\n        /* \"#utility.yul\":10928:10932   */\n      dup2\n        /* \"#utility.yul\":10919:10925   */\n      dup5\n        /* \"#utility.yul\":10855:10933   */\n      tag_294\n      jump\t// in\n    tag_367:\n        /* \"#utility.yul\":10847:10933   */\n      swap1\n      pop\n        /* \"#utility.yul\":10627:10940   */\n      swap3\n      swap2\n      pop\n      pop\n      jump\t// out\n        /* \"#utility.yul\":10946:11365   */\n    tag_184:\n        /* \"#utility.yul\":11112:11116   */\n      0x00\n        /* \"#utility.yul\":11150:11152   */\n      0x20\n        /* \"#utility.yul\":11139:11148   */\n      dup3\n        /* \"#utility.yul\":11135:11153   */\n      add\n        /* \"#utility.yul\":11127:11153   */\n      swap1\n      pop\n        /* \"#utility.yul\":11199:11208   */\n      dup2\n        /* \"#utility.yul\":11193:11197   */\n      dup2\n        /* \"#utility.yul\":11189:11209   */\n      sub\n        /* \"#utility.yul\":11185:11186   */\n      0x00\n        /* \"#utility.yul\":11174:11183   */\n      dup4\n        /* \"#utility.yul\":11170:11187   */\n      add\n        /* \"#utility.yul\":11163:11210   */\n      mstore\n        /* \"#utility.yul\":11227:11358   */\n      tag_369\n        /* \"#utility.yul\":11353:11357   */\n      dup2\n        /* \"#utility.yul\":11227:11358   */\n      tag_304\n      jump\t// in\n    tag_369:\n        /* \"#utility.yul\":11219:11358   */\n      swap1\n      pop\n        /* \"#utility.yul\":10946:11365   */\n      swap2\n      swap1\n      pop\n      jump\t// out\n        /* \"#utility.yul\":11371:11790   */\n    tag_154:\n        /* \"#utility.yul\":11537:11541   */\n      0x00\n        /* \"#utility.yul\":11575:11577   */\n      0x20\n        /* \"#utility.yul\":11564:11573   */\n      dup3\n        /* \"#utility.yul\":11560:11578   */\n      add\n        /* \"#utility.yul\":11552:11578   */\n      swap1\n      pop\n        /* \"#utility.yul\":11624:11633   */\n      dup2\n        /* \"#utility.yul\":11618:11622   */\n      dup2\n        /* \"#utility.yul\":11614:11634   */\n      sub\n        /* \"#utility.yul\":11610:11611   */\n      0x00\n        /* \"#utility.yul\":11599:11608   */\n      dup4\n        /* \"#utility.yul\":11595:11612   */\n      add\n        /* \"#utility.yul\":11588:11635   */\n      mstore\n        /* \"#utility.yul\":11652:11783   */\n      tag_371\n        /* \"#utility.yul\":11778:11782   */\n      dup2\n        /* \"#utility.yul\":11652:11783   */\n      tag_309\n      jump\t// in\n    tag_371:\n        /* \"#utility.yul\":11644:11783   */\n      swap1\n      pop\n        /* \"#utility.yul\":11371:11790   */\n      swap2\n      swap1\n      pop\n      jump\t// out\n        /* \"#utility.yul\":11796:12215   */\n    tag_194:\n        /* \"#utility.yul\":11962:11966   */\n      0x00\n        /* \"#utility.yul\":12000:12002   */\n      0x20\n        /* \"#utility.yul\":11989:11998   */\n      dup3\n        /* \"#utility.yul\":11985:12003   */\n      add\n        /* \"#utility.yul\":11977:12003   */\n      swap1\n      pop\n        /* \"#utility.yul\":12049:12058   */\n      dup2\n        /* \"#utility.yul\":12043:12047   */\n      dup2\n        /* \"#utility.yul\":12039:12059   */\n      sub\n        /* \"#utility.yul\":12035:12036   */\n      0x00\n        /* \"#utility.yul\":12024:12033   */\n      dup4\n        /* \"#utility.yul\":12020:12037   */\n      add\n        /* \"#utility.yul\":12013:12060   */\n      mstore\n        /* \"#utility.yul\":12077:12208   */\n      tag_373\n        /* \"#utility.yul\":12203:12207   */\n      dup2\n        /* \"#utility.yul\":12077:12208   */\n      tag_314\n      jump\t// in\n    tag_373:\n        /* \"#utility.yul\":12069:12208   */\n      swap1\n      pop\n        /* \"#utility.yul\":11796:12215   */\n      swap2\n      swap1\n      pop\n      jump\t// out\n        /* \"#utility.yul\":12221:12640   */\n    tag_97:\n        /* \"#utility.yul\":12387:12391   */\n      0x00\n        /* \"#utility.yul\":12425:12427   */\n      0x20\n        /* \"#utility.yul\":12414:12423   */\n      dup3\n        /* \"#utility.yul\":12410:12428   */\n      add\n        /* \"#utility.yul\":12402:12428   */\n      swap1\n      pop\n        /* \"#utility.yul\":12474:12483   */\n      dup2\n        /* \"#utility.yul\":12468:12472   */\n      dup2\n        /* \"#utility.yul\":12464:12484   */\n      sub\n        /* \"#utility.yul\":12460:12461   */\n      0x00\n        /* \"#utility.yul\":12449:12458   */\n      dup4\n        /* \"#utility.yul\":12445:12462   */\n      add\n        /* \"#utility.yul\":12438:12485   */\n      mstore\n        /* \"#utility.yul\":12502:12633   */\n      tag_375\n        /* \"#utility.yul\":12628:12632   */\n      dup2\n        /* \"#utility.yul\":12502:12633   */\n      tag_319\n      jump\t// in\n    tag_375:\n        /* \"#utility.yul\":12494:12633   */\n      swap1\n      pop\n        /* \"#utility.yul\":12221:12640   */\n      swap2\n      swap1\n      pop\n      jump\t// out\n        /* \"#utility.yul\":12646:13065   */\n    tag_164:\n        /* \"#utility.yul\":12812:12816   */\n      0x00\n        /* \"#utility.yul\":12850:12852   */\n      0x20\n        /* \"#utility.yul\":12839:12848   */\n      dup3\n        /* \"#utility.yul\":12835:12853   */\n      add\n        /* \"#utility.yul\":12827:12853   */\n      swap1\n      pop\n        /* \"#utility.yul\":12899:12908   */\n      dup2\n        /* \"#utility.yul\":12893:12897   */\n      dup2\n        /* \"#utility.yul\":12889:12909   */\n      sub\n        /* \"#utility.yul\":12885:12886   */\n      0x00\n        /* \"#utility.yul\":12874:12883   */\n      dup4\n        /* \"#utility.yul\":12870:12887   */\n      add\n        /* \"#utility.yul\":12863:12910   */\n      mstore\n        /* \"#utility.yul\":12927:13058   */\n      tag_377\n        /* \"#utility.yul\":13053:13057   */\n      dup2\n        /* \"#utility.yul\":12927:13058   */\n      tag_324\n      jump\t// in\n    tag_377:\n        /* \"#utility.yul\":12919:13058   */\n      swap1\n      pop\n        /* \"#utility.yul\":12646:13065   */\n      swap2\n      swap1\n      pop\n      jump\t// out\n        /* \"#utility.yul\":13071:13490   */\n    tag_120:\n        /* \"#utility.yul\":13237:13241   */\n      0x00\n        /* \"#utility.yul\":13275:13277   */\n      0x20\n        /* \"#utility.yul\":13264:13273   */\n      dup3\n        /* \"#utility.yul\":13260:13278   */\n      add\n        /* \"#utility.yul\":13252:13278   */\n      swap1\n      pop\n        /* \"#utility.yul\":13324:13333   */\n      dup2\n        /* \"#utility.yul\":13318:13322   */\n      dup2\n        /* \"#utility.yul\":13314:13334   */\n      sub\n        /* \"#utility.yul\":13310:13311   */\n      0x00\n        /* \"#utility.yul\":13299:13308   */\n      dup4\n        /* \"#utility.yul\":13295:13312   */\n      add\n        /* \"#utility.yul\":13288:13335   */\n      mstore\n        /* \"#utility.yul\":13352:13483   */\n      tag_379\n        /* \"#utility.yul\":13478:13482   */\n      dup2\n        /* \"#utility.yul\":13352:13483   */\n      tag_329\n      jump\t// in\n    tag_379:\n        /* \"#utility.yul\":13344:13483   */\n      swap1\n      pop\n        /* \"#utility.yul\":13071:13490   */\n      swap2\n      swap1\n      pop\n      jump\t// out\n        /* \"#utility.yul\":13496:13915   */\n    tag_102:\n        /* \"#utility.yul\":13662:13666   */\n      0x00\n        /* \"#utility.yul\":13700:13702   */\n      0x20\n        /* \"#utility.yul\":13689:13698   */\n      dup3\n        /* \"#utility.yul\":13685:13703   */\n      add\n        /* \"#utility.yul\":13677:13703   */\n      swap1\n      pop\n        /* \"#utility.yul\":13749:13758   */\n      dup2\n        /* \"#utility.yul\":13743:13747   */\n      dup2\n        /* \"#utility.yul\":13739:13759   */\n      sub\n        /* \"#utility.yul\":13735:13736   */\n      0x00\n        /* \"#utility.yul\":13724:13733   */\n      dup4\n        /* \"#utility.yul\":13720:13737   */\n      add\n        /* \"#utility.yul\":13713:13760   */\n      mstore\n        /* \"#utility.yul\":13777:13908   */\n      tag_381\n        /* \"#utility.yul\":13903:13907   */\n      dup2\n        /* \"#utility.yul\":13777:13908   */\n      tag_334\n      jump\t// in\n    tag_381:\n        /* \"#utility.yul\":13769:13908   */\n      swap1\n      pop\n        /* \"#utility.yul\":13496:13915   */\n      swap2\n      swap1\n      pop\n      jump\t// out\n        /* \"#utility.yul\":14002:14157   */\n    tag_283:\n        /* \"#utility.yul\":14092:14096   */\n      0x00\n        /* \"#utility.yul\":14115:14118   */\n      dup2\n        /* \"#utility.yul\":14107:14118   */\n      swap1\n      pop\n        /* \"#utility.yul\":14145:14149   */\n      0x20\n        /* \"#utility.yul\":14140:14143   */\n      dup3\n        /* \"#utility.yul\":14136:14150   */\n      add\n        /* \"#utility.yul\":14128:14150   */\n      swap1\n      pop\n        /* \"#utility.yul\":14002:14157   */\n      swap2\n      swap1\n      pop\n      jump\t// out\n        /* \"#utility.yul\":14163:14300   */\n    tag_279:\n        /* \"#utility.yul\":14253:14259   */\n      0x00\n        /* \"#utility.yul\":14287:14292   */\n      dup2\n        /* \"#utility.yul\":14281:14293   */\n      mload\n        /* \"#utility.yul\":14271:14293   */\n      swap1\n      pop\n        /* \"#utility.yul\":14163:14300   */\n      swap2\n      swap1\n      pop\n      jump\t// out\n        /* \"#utility.yul\":14306:14405   */\n    tag_297:\n        /* \"#utility.yul\":14358:14364   */\n      0x00\n        /* \"#utility.yul\":14392:14397   */\n      dup2\n        /* \"#utility.yul\":14386:14398   */\n      mload\n        /* \"#utility.yul\":14376:14398   */\n      swap1\n      pop\n        /* \"#utility.yul\":14306:14405   */\n      swap2\n      swap1\n      pop\n      jump\t// out\n        /* \"#utility.yul\":14411:14547   */\n    tag_289:\n        /* \"#utility.yul\":14504:14508   */\n      0x00\n        /* \"#utility.yul\":14536:14540   */\n      0x20\n        /* \"#utility.yul\":14531:14534   */\n      dup3\n        /* \"#utility.yul\":14527:14541   */\n      add\n        /* \"#utility.yul\":14519:14541   */\n      swap1\n      pop\n        /* \"#utility.yul\":14411:14547   */\n      swap2\n      swap1\n      pop\n      jump\t// out\n        /* \"#utility.yul\":14553:14760   */\n    tag_281:\n        /* \"#utility.yul\":14675:14686   */\n      0x00\n        /* \"#utility.yul\":14709:14715   */\n      dup3\n        /* \"#utility.yul\":14704:14707   */\n      dup3\n        /* \"#utility.yul\":14697:14716   */\n      mstore\n        /* \"#utility.yul\":14749:14753   */\n      0x20\n        /* \"#utility.yul\":14744:14747   */\n      dup3\n        /* \"#utility.yul\":14740:14754   */\n      add\n        /* \"#utility.yul\":14725:14754   */\n      swap1\n      pop\n        /* \"#utility.yul\":14553:14760   */\n      swap3\n      swap2\n      pop\n      pop\n      jump\t// out\n        /* \"#utility.yul\":14766:14935   */\n    tag_299:\n        /* \"#utility.yul\":14850:14861   */\n      0x00\n        /* \"#utility.yul\":14884:14890   */\n      dup3\n        /* \"#utility.yul\":14879:14882   */\n      dup3\n        /* \"#utility.yul\":14872:14891   */\n      mstore\n        /* \"#utility.yul\":14924:14928   */\n      0x20\n        /* \"#utility.yul\":14919:14922   */\n      dup3\n        /* \"#utility.yul\":14915:14929   */\n      add\n        /* \"#utility.yul\":14900:14929   */\n      swap1\n      pop\n        /* \"#utility.yul\":14766:14935   */\n      swap3\n      swap2\n      pop\n      pop\n      jump\t// out\n        /* \"#utility.yul\":14941:15132   */\n    tag_99:\n        /* \"#utility.yul\":14981:14985   */\n      0x00\n        /* \"#utility.yul\":15001:15021   */\n      tag_391\n        /* \"#utility.yul\":15019:15020   */\n      dup3\n        /* \"#utility.yul\":15001:15021   */\n      tag_345\n      jump\t// in\n    tag_391:\n        /* \"#utility.yul\":14996:15021   */\n      swap2\n      pop\n        /* \"#utility.yul\":15035:15055   */\n      tag_392\n        /* \"#utility.yul\":15053:15054   */\n      dup4\n        /* \"#utility.yul\":15035:15055   */\n      tag_345\n      jump\t// in\n    tag_392:\n        /* \"#utility.yul\":15030:15055   */\n      swap3\n      pop\n        /* \"#utility.yul\":15074:15075   */\n      dup3\n        /* \"#utility.yul\":15071:15072   */\n      dup3\n        /* \"#utility.yul\":15068:15076   */\n      lt\n        /* \"#utility.yul\":15065:15099   */\n      iszero\n      tag_393\n      jumpi\n        /* \"#utility.yul\":15079:15097   */\n      tag_394\n      tag_395\n      jump\t// in\n    tag_394:\n        /* \"#utility.yul\":15065:15099   */\n    tag_393:\n        /* \"#utility.yul\":15124:15125   */\n      dup3\n        /* \"#utility.yul\":15121:15122   */\n      dup3\n        /* \"#utility.yul\":15117:15126   */\n      sub\n        /* \"#utility.yul\":15109:15126   */\n      swap1\n      pop\n        /* \"#utility.yul\":14941:15132   */\n      swap3\n      swap2\n      pop\n      pop\n      jump\t// out\n        /* \"#utility.yul\":15138:15234   */\n    tag_267:\n        /* \"#utility.yul\":15175:15182   */\n      0x00\n        /* \"#utility.yul\":15204:15228   */\n      tag_397\n        /* \"#utility.yul\":15222:15227   */\n      dup3\n        /* \"#utility.yul\":15204:15228   */\n      tag_398\n      jump\t// in\n    tag_397:\n        /* \"#utility.yul\":15193:15228   */\n      swap1\n      pop\n        /* \"#utility.yul\":15138:15234   */\n      swap2\n      swap1\n      pop\n      jump\t// out\n        /* \"#utility.yul\":15240:15330   */\n    tag_293:\n        /* \"#utility.yul\":15274:15281   */\n      0x00\n        /* \"#utility.yul\":15317:15322   */\n      dup2\n        /* \"#utility.yul\":15310:15323   */\n      iszero\n        /* \"#utility.yul\":15303:15324   */\n      iszero\n        /* \"#utility.yul\":15292:15324   */\n      swap1\n      pop\n        /* \"#utility.yul\":15240:15330   */\n      swap2\n      swap1\n      pop\n      jump\t// out\n        /* \"#utility.yul\":15336:15413   */\n    tag_400:\n        /* \"#utility.yul\":15373:15380   */\n      0x00\n        /* \"#utility.yul\":15402:15407   */\n      dup2\n        /* \"#utility.yul\":15391:15407   */\n      swap1\n      pop\n        /* \"#utility.yul\":15336:15413   */\n      swap2\n      swap1\n      pop\n      jump\t// out\n        /* \"#utility.yul\":15419:15545   */\n    tag_398:\n        /* \"#utility.yul\":15456:15463   */\n      0x00\n        /* \"#utility.yul\":15496:15538   */\n      0xffffffffffffffffffffffffffffffffffffffff\n        /* \"#utility.yul\":15489:15494   */\n      dup3\n        /* \"#utility.yul\":15485:15539   */\n      and\n        /* \"#utility.yul\":15474:15539   */\n      swap1\n      pop\n        /* \"#utility.yul\":15419:15545   */\n      swap2\n      swap1\n      pop\n      jump\t// out\n        /* \"#utility.yul\":15551:15628   */\n    tag_345:\n        /* \"#utility.yul\":15588:15595   */\n      0x00\n        /* \"#utility.yul\":15617:15622   */\n      dup2\n        /* \"#utility.yul\":15606:15622   */\n      swap1\n      pop\n        /* \"#utility.yul\":15551:15628   */\n      swap2\n      swap1\n      pop\n      jump\t// out\n        /* \"#utility.yul\":15634:15941   */\n    tag_301:\n        /* \"#utility.yul\":15702:15703   */\n      0x00\n        /* \"#utility.yul\":15712:15825   */\n    tag_405:\n        /* \"#utility.yul\":15726:15732   */\n      dup4\n        /* \"#utility.yul\":15723:15724   */\n      dup2\n        /* \"#utility.yul\":15720:15733   */\n      lt\n        /* \"#utility.yul\":15712:15825   */\n      iszero\n      tag_407\n      jumpi\n        /* \"#utility.yul\":15811:15812   */\n      dup1\n        /* \"#utility.yul\":15806:15809   */\n      dup3\n        /* \"#utility.yul\":15802:15813   */\n      add\n        /* \"#utility.yul\":15796:15814   */\n      mload\n        /* \"#utility.yul\":15792:15793   */\n      dup2\n        /* \"#utility.yul\":15787:15790   */\n      dup5\n        /* \"#utility.yul\":15783:15794   */\n      add\n        /* \"#utility.yul\":15776:15815   */\n      mstore\n        /* \"#utility.yul\":15748:15750   */\n      0x20\n        /* \"#utility.yul\":15745:15746   */\n      dup2\n        /* \"#utility.yul\":15741:15751   */\n      add\n        /* \"#utility.yul\":15736:15751   */\n      swap1\n      pop\n        /* \"#utility.yul\":15712:15825   */\n      jump(tag_405)\n    tag_407:\n        /* \"#utility.yul\":15843:15849   */\n      dup4\n        /* \"#utility.yul\":15840:15841   */\n      dup2\n        /* \"#utility.yul\":15837:15850   */\n      gt\n        /* \"#utility.yul\":15834:15935   */\n      iszero\n      tag_408\n      jumpi\n        /* \"#utility.yul\":15923:15924   */\n      0x00\n        /* \"#utility.yul\":15914:15920   */\n      dup5\n        /* \"#utility.yul\":15909:15912   */\n      dup5\n        /* \"#utility.yul\":15905:15921   */\n      add\n        /* \"#utility.yul\":15898:15925   */\n      mstore\n        /* \"#utility.yul\":15834:15935   */\n    tag_408:\n        /* \"#utility.yul\":15683:15941   */\n      pop\n        /* \"#utility.yul\":15634:15941   */\n      pop\n      pop\n      pop\n      jump\t// out\n        /* \"#utility.yul\":15947:16267   */\n    tag_123:\n        /* \"#utility.yul\":15991:15997   */\n      0x00\n        /* \"#utility.yul\":16028:16029   */\n      0x02\n        /* \"#utility.yul\":16022:16026   */\n      dup3\n        /* \"#utility.yul\":16018:16030   */\n      div\n        /* \"#utility.yul\":16008:16030   */\n      swap1\n      pop\n        /* \"#utility.yul\":16075:16076   */\n      0x01\n        /* \"#utility.yul\":16069:16073   */\n      dup3\n        /* \"#utility.yul\":16065:16077   */\n      and\n        /* \"#utility.yul\":16096:16114   */\n      dup1\n        /* \"#utility.yul\":16086:16167   */\n      tag_410\n      jumpi\n        /* \"#utility.yul\":16152:16156   */\n      0x7f\n        /* \"#utility.yul\":16144:16150   */\n      dup3\n        /* \"#utility.yul\":16140:16157   */\n      and\n        /* \"#utility.yul\":16130:16157   */\n      swap2\n      pop\n        /* \"#utility.yul\":16086:16167   */\n    tag_410:\n        /* \"#utility.yul\":16214:16216   */\n      0x20\n        /* \"#utility.yul\":16206:16212   */\n      dup3\n        /* \"#utility.yul\":16203:16217   */\n      lt\n        /* \"#utility.yul\":16183:16201   */\n      dup2\n        /* \"#utility.yul\":16180:16218   */\n      eq\n        /* \"#utility.yul\":16177:16261   */\n      iszero\n      tag_411\n      jumpi\n        /* \"#utility.yul\":16233:16251   */\n      tag_412\n      tag_413\n      jump\t// in\n    tag_412:\n        /* \"#utility.yul\":16177:16261   */\n    tag_411:\n        /* \"#utility.yul\":15998:16267   */\n      pop\n        /* \"#utility.yul\":15947:16267   */\n      swap2\n      swap1\n      pop\n      jump\t// out\n        /* \"#utility.yul\":16273:16506   */\n    tag_208:\n        /* \"#utility.yul\":16312:16315   */\n      0x00\n        /* \"#utility.yul\":16335:16359   */\n      tag_415\n        /* \"#utility.yul\":16353:16358   */\n      dup3\n        /* \"#utility.yul\":16335:16359   */\n      tag_345\n      jump\t// in\n    tag_415:\n        /* \"#utility.yul\":16326:16359   */\n      swap2\n      pop\n        /* \"#utility.yul\":16381:16447   */\n      0xffffffffffffffffffffffffffffffffffffffffffffffffffffffffffffffff\n        /* \"#utility.yul\":16374:16379   */\n      dup3\n        /* \"#utility.yul\":16371:16448   */\n      eq\n        /* \"#utility.yul\":16368:16471   */\n      iszero\n      tag_416\n      jumpi\n        /* \"#utility.yul\":16451:16469   */\n      tag_417\n      tag_395\n      jump\t// in\n    tag_417:\n        /* \"#utility.yul\":16368:16471   */\n    tag_416:\n        /* \"#utility.yul\":16498:16499   */\n      0x01\n        /* \"#utility.yul\":16491:16496   */\n      dup3\n        /* \"#utility.yul\":16487:16500   */\n      add\n        /* \"#utility.yul\":16480:16500   */\n      swap1\n      pop\n        /* \"#utility.yul\":16273:16506   */\n      swap2\n      swap1\n      pop\n      jump\t// out\n        /* \"#utility.yul\":16512:16612   */\n    tag_275:\n        /* \"#utility.yul\":16551:16558   */\n      0x00\n        /* \"#utility.yul\":16580:16606   */\n      tag_419\n        /* \"#utility.yul\":16600:16605   */\n      dup3\n        /* \"#utility.yul\":16580:16606   */\n      tag_420\n      jump\t// in\n    tag_419:\n        /* \"#utility.yul\":16569:16606   */\n      swap1\n      pop\n        /* \"#utility.yul\":16512:16612   */\n      swap2\n      swap1\n      pop\n      jump\t// out\n        /* \"#utility.yul\":16618:16712   */\n    tag_420:\n        /* \"#utility.yul\":16657:16664   */\n      0x00\n        /* \"#utility.yul\":16686:16706   */\n      tag_422\n        /* \"#utility.yul\":16700:16705   */\n      dup3\n        /* \"#utility.yul\":16686:16706   */\n      tag_423\n      jump\t// in\n    tag_422:\n        /* \"#utility.yul\":16675:16706   */\n      swap1\n      pop\n        /* \"#utility.yul\":16618:16712   */\n      swap2\n      swap1\n      pop\n      jump\t// out\n        /* \"#utility.yul\":16718:16797   */\n    tag_353:\n        /* \"#utility.yul\":16757:16764   */\n      0x00\n        /* \"#utility.yul\":16786:16791   */\n      dup2\n        /* \"#utility.yul\":16775:16791   */\n      swap1\n      pop\n        /* \"#utility.yul\":16718:16797   */\n      swap2\n      swap1\n      pop\n      jump\t// out\n        /* \"#utility.yul\":16803:16983   */\n    tag_395:\n        /* \"#utility.yul\":16851:16928   */\n      0x4e487b7100000000000000000000000000000000000000000000000000000000\n        /* \"#utility.yul\":16848:16849   */\n      0x00\n        /* \"#utility.yul\":16841:16929   */\n      mstore\n        /* \"#utility.yul\":16948:16952   */\n      0x11\n        /* \"#utility.yul\":16945:16946   */\n      0x04\n        /* \"#utility.yul\":16938:16953   */\n      mstore\n        /* \"#utility.yul\":16972:16976   */\n      0x24\n        /* \"#utility.yul\":16969:16970   */\n      0x00\n        /* \"#utility.yul\":16962:16977   */\n      revert\n        /* \"#utility.yul\":16989:17169   */\n    tag_413:\n        /* \"#utility.yul\":17037:17114   */\n      0x4e487b7100000000000000000000000000000000000000000000000000000000\n        /* \"#utility.yul\":17034:17035   */\n      0x00\n        /* \"#utility.yul\":17027:17115   */\n      mstore\n        /* \"#utility.yul\":17134:17138   */\n      0x22\n        /* \"#utility.yul\":17131:17132   */\n      0x04\n        /* \"#utility.yul\":17124:17139   */\n      mstore\n        /* \"#utility.yul\":17158:17162   */\n      0x24\n        /* \"#utility.yul\":17155:17156   */\n      0x00\n        /* \"#utility.yul\":17148:17163   */\n      revert\n        /* \"#utility.yul\":17175:17355   */\n    tag_201:\n        /* \"#utility.yul\":17223:17300   */\n      0x4e487b7100000000000000000000000000000000000000000000000000000000\n        /* \"#utility.yul\":17220:17221   */\n      0x00\n        /* \"#utility.yul\":17213:17301   */\n      mstore\n        /* \"#utility.yul\":17320:17324   */\n      0x32\n        /* \"#utility.yul\":17317:17318   */\n      0x04\n        /* \"#utility.yul\":17310:17325   */\n      mstore\n        /* \"#utility.yul\":17344:17348   */\n      0x24\n        /* \"#utility.yul\":17341:17342   */\n      0x00\n        /* \"#utility.yul\":17334:17349   */\n      revert\n        /* \"#utility.yul\":17361:17478   */\n    tag_222:\n        /* \"#utility.yul\":17470:17471   */\n      0x00\n        /* \"#utility.yul\":17467:17468   */\n      dup1\n        /* \"#utility.yul\":17460:17472   */\n      revert\n        /* \"#utility.yul\":17484:17601   */\n    tag_219:\n        /* \"#utility.yul\":17593:17594   */\n      0x00\n        /* \"#utility.yul\":17590:17591   */\n      dup1\n        /* \"#utility.yul\":17583:17595   */\n      revert\n        /* \"#utility.yul\":17607:17724   */\n    tag_225:\n        /* \"#utility.yul\":17716:17717   */\n      0x00\n        /* \"#utility.yul\":17713:17714   */\n      dup1\n        /* \"#utility.yul\":17706:17718   */\n      revert\n        /* \"#utility.yul\":17730:17847   */\n    tag_258:\n        /* \"#utility.yul\":17839:17840   */\n      0x00\n        /* \"#utility.yul\":17836:17837   */\n      dup1\n        /* \"#utility.yul\":17829:17841   */\n      revert\n        /* \"#utility.yul\":17853:17970   */\n    tag_237:\n        /* \"#utility.yul\":17962:17963   */\n      0x00\n        /* \"#utility.yul\":17959:17960   */\n      dup1\n        /* \"#utility.yul\":17952:17964   */\n      revert\n        /* \"#utility.yul\":17976:18078   */\n    tag_303:\n        /* \"#utility.yul\":18017:18023   */\n      0x00\n        /* \"#utility.yul\":18068:18070   */\n      0x1f\n        /* \"#utility.yul\":18064:18071   */\n      not\n        /* \"#utility.yul\":18059:18061   */\n      0x1f\n        /* \"#utility.yul\":18052:18057   */\n      dup4\n        /* \"#utility.yul\":18048:18062   */\n      add\n        /* \"#utility.yul\":18044:18072   */\n      and\n        /* \"#utility.yul\":18034:18072   */\n      swap1\n      pop\n        /* \"#utility.yul\":17976:18078   */\n      swap2\n      swap1\n      pop\n      jump\t// out\n        /* \"#utility.yul\":18084:18178   */\n    tag_423:\n        /* \"#utility.yul\":18117:18125   */\n      0x00\n        /* \"#utility.yul\":18165:18170   */\n      dup2\n        /* \"#utility.yul\":18161:18163   */\n      0x60\n        /* \"#utility.yul\":18157:18171   */\n      shl\n        /* \"#utility.yul\":18136:18171   */\n      swap1\n      pop\n        /* \"#utility.yul\":18084:18178   */\n      swap2\n      swap1\n      pop\n      jump\t// out\n        /* \"#utility.yul\":18184:18409   */\n    tag_308:\n        /* \"#utility.yul\":18324:18358   */\n      0x4f776e61626c653a206e6577206f776e657220697320746865207a65726f2061\n        /* \"#utility.yul\":18320:18321   */\n      0x00\n        /* \"#utility.yul\":18312:18318   */\n      dup3\n        /* \"#utility.yul\":18308:18322   */\n      add\n        /* \"#utility.yul\":18301:18359   */\n      mstore\n        /* \"#utility.yul\":18393:18401   */\n      0x6464726573730000000000000000000000000000000000000000000000000000\n        /* \"#utility.yul\":18388:18390   */\n      0x20\n        /* \"#utility.yul\":18380:18386   */\n      dup3\n        /* \"#utility.yul\":18376:18391   */\n      add\n        /* \"#utility.yul\":18369:18402   */\n      mstore\n        /* \"#utility.yul\":18184:18409   */\n      pop\n      jump\t// out\n        /* \"#utility.yul\":18415:18635   */\n    tag_313:\n        /* \"#utility.yul\":18555:18589   */\n      0x6e6f7420656e6f756768206d6f6e657920746f2070617920656d706c6f796565\n        /* \"#utility.yul\":18551:18552   */\n      0x00\n        /* \"#utility.yul\":18543:18549   */\n      dup3\n        /* \"#utility.yul\":18539:18553   */\n      add\n        /* \"#utility.yul\":18532:18590   */\n      mstore\n        /* \"#utility.yul\":18624:18627   */\n      0x7300000000000000000000000000000000000000000000000000000000000000\n        /* \"#utility.yul\":18619:18621   */\n      0x20\n        /* \"#utility.yul\":18611:18617   */\n      dup3\n        /* \"#utility.yul\":18607:18622   */\n      add\n        /* \"#utility.yul\":18600:18628   */\n      mstore\n        /* \"#utility.yul\":18415:18635   */\n      pop\n      jump\t// out\n        /* \"#utility.yul\":18641:18813   */\n    tag_318:\n        /* \"#utility.yul\":18781:18805   */\n      0x455243313136373a20637265617465206661696c656400000000000000000000\n        /* \"#utility.yul\":18777:18778   */\n      0x00\n        /* \"#utility.yul\":18769:18775   */\n      dup3\n        /* \"#utility.yul\":18765:18779   */\n      add\n        /* \"#utility.yul\":18758:18806   */\n      mstore\n        /* \"#utility.yul\":18641:18813   */\n      pop\n      jump\t// out\n        /* \"#utility.yul\":18819:18986   */\n    tag_323:\n        /* \"#utility.yul\":18959:18978   */\n      0x6e6f742070616d656e7420706572696f64000000000000000000000000000000\n        /* \"#utility.yul\":18955:18956   */\n      0x00\n        /* \"#utility.yul\":18947:18953   */\n      dup3\n        /* \"#utility.yul\":18943:18957   */\n      add\n        /* \"#utility.yul\":18936:18979   */\n      mstore\n        /* \"#utility.yul\":18819:18986   */\n      pop\n      jump\t// out\n        /* \"#utility.yul\":18992:19164   */\n    tag_328:\n        /* \"#utility.yul\":19132:19156   */\n      0x73616c617279207061796d656e74206f6e676f696e6700000000000000000000\n        /* \"#utility.yul\":19128:19129   */\n      0x00\n        /* \"#utility.yul\":19120:19126   */\n      dup3\n        /* \"#utility.yul\":19116:19130   */\n      add\n        /* \"#utility.yul\":19109:19157   */\n      mstore\n        /* \"#utility.yul\":18992:19164   */\n      pop\n      jump\t// out\n        /* \"#utility.yul\":19170:19352   */\n    tag_333:\n        /* \"#utility.yul\":19310:19344   */\n      0x4f776e61626c653a2063616c6c6572206973206e6f7420746865206f776e6572\n        /* \"#utility.yul\":19306:19307   */\n      0x00\n        /* \"#utility.yul\":19298:19304   */\n      dup3\n        /* \"#utility.yul\":19294:19308   */\n      add\n        /* \"#utility.yul\":19287:19345   */\n      mstore\n        /* \"#utility.yul\":19170:19352   */\n      pop\n      jump\t// out\n        /* \"#utility.yul\":19358:19536   */\n    tag_338:\n        /* \"#utility.yul\":19498:19528   */\n      0x74696d6520746f20636c61696d2073616c61727920656c617073656400000000\n        /* \"#utility.yul\":19494:19495   */\n      0x00\n        /* \"#utility.yul\":19486:19492   */\n      dup3\n        /* \"#utility.yul\":19482:19496   */\n      add\n        /* \"#utility.yul\":19475:19529   */\n      mstore\n        /* \"#utility.yul\":19358:19536   */\n      pop\n      jump\t// out\n        /* \"#utility.yul\":19542:19664   */\n    tag_214:\n        /* \"#utility.yul\":19615:19639   */\n      tag_443\n        /* \"#utility.yul\":19633:19638   */\n      dup2\n        /* \"#utility.yul\":19615:19639   */\n      tag_267\n      jump\t// in\n    tag_443:\n        /* \"#utility.yul\":19608:19613   */\n      dup2\n        /* \"#utility.yul\":19605:19640   */\n      eq\n        /* \"#utility.yul\":19595:19658   */\n      tag_444\n      jumpi\n        /* \"#utility.yul\":19654:19655   */\n      0x00\n        /* \"#utility.yul\":19651:19652   */\n      dup1\n        /* \"#utility.yul\":19644:19656   */\n      revert\n        /* \"#utility.yul\":19595:19658   */\n    tag_444:\n        /* \"#utility.yul\":19542:19664   */\n      pop\n      jump\t// out\n        /* \"#utility.yul\":19670:19792   */\n    tag_229:\n        /* \"#utility.yul\":19743:19767   */\n      tag_446\n        /* \"#utility.yul\":19761:19766   */\n      dup2\n        /* \"#utility.yul\":19743:19767   */\n      tag_400\n      jump\t// in\n    tag_446:\n        /* \"#utility.yul\":19736:19741   */\n      dup2\n        /* \"#utility.yul\":19733:19768   */\n      eq\n        /* \"#utility.yul\":19723:19786   */\n      tag_447\n      jumpi\n        /* \"#utility.yul\":19782:19783   */\n      0x00\n        /* \"#utility.yul\":19779:19780   */\n      dup1\n        /* \"#utility.yul\":19772:19784   */\n      revert\n        /* \"#utility.yul\":19723:19786   */\n    tag_447:\n        /* \"#utility.yul\":19670:19792   */\n      pop\n      jump\t// out\n        /* \"#utility.yul\":19798:19920   */\n    tag_233:\n        /* \"#utility.yul\":19871:19895   */\n      tag_449\n        /* \"#utility.yul\":19889:19894   */\n      dup2\n        /* \"#utility.yul\":19871:19895   */\n      tag_345\n      jump\t// in\n    tag_449:\n        /* \"#utility.yul\":19864:19869   */\n      dup2\n        /* \"#utility.yul\":19861:19896   */\n      eq\n        /* \"#utility.yul\":19851:19914   */\n      tag_450\n      jumpi\n        /* \"#utility.yul\":19910:19911   */\n      0x00\n        /* \"#utility.yul\":19907:19908   */\n      dup1\n        /* \"#utility.yul\":19900:19912   */\n      revert\n        /* \"#utility.yul\":19851:19914   */\n    tag_450:\n        /* \"#utility.yul\":19798:19920   */\n      pop\n      jump\t// out\n\n    auxdata: 0xa264697066735822122011c397bcfd89d52b970ba29b82a91328e4fbb0b7b85180f6116ad5948386e4b664736f6c63430008070033\n}\n",
				"bytecode": {
					"linkReferences": {},
					"object": "608060405234801561001057600080fd5b5061002d61002261003260201b60201c565b61003a60201b60201c565b6100fe565b600033905090565b60008060009054906101000a900473ffffffffffffffffffffffffffffffffffffffff169050816000806101000a81548173ffffffffffffffffffffffffffffffffffffffff021916908373ffffffffffffffffffffffffffffffffffffffff1602179055508173ffffffffffffffffffffffffffffffffffffffff168173ffffffffffffffffffffffffffffffffffffffff167f8be0079c531659141344cd1fd0a4f28419497f9722a3daafe3b4186f6b6457e060405160405180910390a35050565b611b398061010d6000396000f3fe6080604052600436106100ec5760003560e01c8063715018a61161008a578063a74da60911610059578063a74da609146102bd578063c10f410b146102c7578063d56d511c146102de578063f2fde38b1461031b576100f3565b8063715018a614610227578063798bdfd11461023e5780638da5cb5b1461027b578063a5109f7b146102a6576100f3565b806341f4921e116100c657806341f4921e1461016a5780634783f0ef146101a857806349ce5a0f146101d15780635ab37a4c146101fc576100f3565b8063129fa0fe146100f857806321aee358146101235780632f52ebb71461014e576100f3565b366100f357005b600080fd5b34801561010457600080fd5b5061010d610344565b60405161011a9190611599565b60405180910390f35b34801561012f57600080fd5b50610138610403565b6040516101459190611555565b60405180910390f35b6101686004803603810190610163919061127d565b610429565b005b34801561017657600080fd5b50610191600480360381019061018c9190611250565b6106e4565b60405161019f929190611570565b60405180910390f35b3480156101b457600080fd5b506101cf60048036038101906101ca9190611223565b610738565b005b3480156101dd57600080fd5b506101e66107be565b6040516101f391906115d6565b60405180910390f35b34801561020857600080fd5b5061021161084c565b60405161021e91906115d6565b60405180910390f35b34801561023357600080fd5b5061023c6108da565b005b34801561024a57600080fd5b50610265600480360381019061026091906111b6565b610962565b60405161027291906115bb565b60405180910390f35b34801561028757600080fd5b50610290610982565b60405161029d9190611555565b60405180910390f35b3480156102b257600080fd5b506102bb6109ab565b005b6102c5610a83565b005b3480156102d357600080fd5b506102dc610b6e565b005b3480156102ea57600080fd5b50610305600480360381019061030091906111e3565b610ca8565b6040516103129190611599565b60405180910390f35b34801561032757600080fd5b50610342600480360381019061033d91906111b6565b610de5565b005b60606008805480602002602001604051908101604052809291908181526020016000905b828210156103fa57838290600052602060002090600202016040518060400160405290816000820160009054906101000a900473ffffffffffffffffffffffffffffffffffffffff1673ffffffffffffffffffffffffffffffffffffffff1673ffffffffffffffffffffffffffffffffffffffff16815260200160018201548152505081526020019060010190610368565b50505050905090565b600160009054906101000a900473ffffffffffffffffffffffffffffffffffffffff1681565b600460009054906101000a900460ff16610478576040517f08c379a000000000000000000000000000000000000000000000000000000000815260040161046f90611658565b60405180910390fd5b621275006005544261048a919061172d565b11156104cb576040517f08c379a00000000000000000000000000000000000000000000000000000000081526004016104c2906116b8565b60405180910390fd5b600960003373ffffffffffffffffffffffffffffffffffffffff1673ffffffffffffffffffffffffffffffffffffffff16815260200190815260200160002060009054906101000a900460ff161561054f576040517f646cf55800000000000000000000000000000000000000000000000000000000815260040160405180910390fd5b60003384604051602001610564929190611529565b60405160208183030381529060405280519060200120905060006105cc848480806020026020016040519081016040528093929190818152602001838360200280828437600081840152601f19601f8201169050808301925050505050505060035484610edd565b905080610605576040517f8a585be200000000000000000000000000000000000000000000000000000000815260040160405180910390fd5b6001600960003373ffffffffffffffffffffffffffffffffffffffff1673ffffffffffffffffffffffffffffffffffffffff16815260200190815260200160002060006101000a81548160ff0219169083151502179055503373ffffffffffffffffffffffffffffffffffffffff166108fc869081150290604051600060405180830381858888f193505050501580156106a3573d6000803e3d6000fd5b507f47cee97cb7acd717b3c0aa1435d004cd5b3c8c57d70dbceb4e4458bbd60e39d433866040516106d5929190611570565b60405180910390a15050505050565b600881815481106106f457600080fd5b90600052602060002090600202016000915090508060000160009054906101000a900473ffffffffffffffffffffffffffffffffffffffff16908060010154905082565b610740610ef4565b73ffffffffffffffffffffffffffffffffffffffff1661075e610982565b73ffffffffffffffffffffffffffffffffffffffff16146107b4576040517f08c379a00000000000000000000000000000000000000000000000000000000081526004016107ab90611698565b60405180910390fd5b8060038190555050565b600780546107cb906117e6565b80601f01602080910402602001604051908101604052809291908181526020018280546107f7906117e6565b80156108445780601f1061081957610100808354040283529160200191610844565b820191906000526020600020905b81548152906001019060200180831161082757829003601f168201915b505050505081565b60068054610859906117e6565b80601f0160208091040260200160405190810160405280929190818152602001828054610885906117e6565b80156108d25780601f106108a7576101008083540402835291602001916108d2565b820191906000526020600020905b8154815290600101906020018083116108b557829003601f168201915b505050505081565b6108e2610ef4565b73ffffffffffffffffffffffffffffffffffffffff16610900610982565b73ffffffffffffffffffffffffffffffffffffffff1614610956576040517f08c379a000000000000000000000000000000000000000000000000000000000815260040161094d90611698565b60405180910390fd5b6109606000610efc565b565b60096020528060005260406000206000915054906101000a900460ff1681565b60008060009054906101000a900473ffffffffffffffffffffffffffffffffffffffff16905090565b60006109d8600160009054906101000a900473ffffffffffffffffffffffffffffffffffffffff16610fc0565b90506002819080600181540180825580915050600190039060005260206000200160009091909190916101000a81548173ffffffffffffffffffffffffffffffffffffffff021916908373ffffffffffffffffffffffffffffffffffffffff1602179055508073ffffffffffffffffffffffffffffffffffffffff167f5b6f2ca69c49e54072387225ba5fc2e130a2f96425b884e007ae49a82d12bdd960405160405180910390a250565b610a8b610ef4565b73ffffffffffffffffffffffffffffffffffffffff16610aa9610982565b73ffffffffffffffffffffffffffffffffffffffff1614610aff576040517f08c379a0000000000000000000000000000000000000000000000000000000008152600401610af690611698565b60405180910390fd5b670de0b6b3a7640000341015610b4a576040517f08c379a0000000000000000000000000000000000000000000000000000000008152600401610b4190611618565b60405180910390fd5b6001600460006101000a81548160ff02191690831515021790555042600581905550565b610b76610ef4565b73ffffffffffffffffffffffffffffffffffffffff16610b94610982565b73ffffffffffffffffffffffffffffffffffffffff1614610bea576040517f08c379a0000000000000000000000000000000000000000000000000000000008152600401610be190611698565b60405180910390fd5b6212750060055442610bfc919061172d565b1015610c3d576040517f08c379a0000000000000000000000000000000000000000000000000000000008152600401610c3490611678565b60405180910390fd5b610c45610982565b73ffffffffffffffffffffffffffffffffffffffff166108fc479081150290604051600060405180830381858888f19350505050158015610c8a573d6000803e3d6000fd5b506000600460006101000a81548160ff021916908315150217905550565b6060610cb2610ef4565b73ffffffffffffffffffffffffffffffffffffffff16610cd0610982565b73ffffffffffffffffffffffffffffffffffffffff1614610d26576040517f08c379a0000000000000000000000000000000000000000000000000000000008152600401610d1d90611698565b60405180910390fd5b600060405180604001604052808573ffffffffffffffffffffffffffffffffffffffff168152602001848152509050600881908060018154018082558091505060019003906000526020600020906002020160009091909190915060008201518160000160006101000a81548173ffffffffffffffffffffffffffffffffffffffff021916908373ffffffffffffffffffffffffffffffffffffffff160217905550602082015181600101555050610ddc610344565b91505092915050565b610ded610ef4565b73ffffffffffffffffffffffffffffffffffffffff16610e0b610982565b73ffffffffffffffffffffffffffffffffffffffff1614610e61576040517f08c379a0000000000000000000000000000000000000000000000000000000008152600401610e5890611698565b60405180910390fd5b600073ffffffffffffffffffffffffffffffffffffffff168173ffffffffffffffffffffffffffffffffffffffff161415610ed1576040517f08c379a0000000000000000000000000000000000000000000000000000000008152600401610ec8906115f8565b60405180910390fd5b610eda81610efc565b50565b600082610eea8584611095565b1490509392505050565b600033905090565b60008060009054906101000a900473ffffffffffffffffffffffffffffffffffffffff169050816000806101000a81548173ffffffffffffffffffffffffffffffffffffffff021916908373ffffffffffffffffffffffffffffffffffffffff1602179055508173ffffffffffffffffffffffffffffffffffffffff168173ffffffffffffffffffffffffffffffffffffffff167f8be0079c531659141344cd1fd0a4f28419497f9722a3daafe3b4186f6b6457e060405160405180910390a35050565b60006040517f602d8060093d393df3363d3d373d3d3d363d730000000000000000000000000081528260601b60138201527f5af43d82803e903d91602b57fd5bf3000000000000000000000000000000000060278201526036816000f0915050600073ffffffffffffffffffffffffffffffffffffffff168173ffffffffffffffffffffffffffffffffffffffff161415611090576040517f08c379a000000000000000000000000000000000000000000000000000000000815260040161108790611638565b60405180910390fd5b919050565b60008082905060005b84518110156110ff5760008582815181106110bc576110bb6118ed565b5b602002602001015190508083116110de576110d7838261110a565b92506110eb565b6110e8818461110a565b92505b5080806110f790611818565b91505061109e565b508091505092915050565b600082600052816020526040600020905092915050565b60008135905061113081611abe565b92915050565b60008083601f84011261114c5761114b611921565b5b8235905067ffffffffffffffff8111156111695761116861191c565b5b60208301915083602082028301111561118557611184611926565b5b9250929050565b60008135905061119b81611ad5565b92915050565b6000813590506111b081611aec565b92915050565b6000602082840312156111cc576111cb611930565b5b60006111da84828501611121565b91505092915050565b600080604083850312156111fa576111f9611930565b5b600061120885828601611121565b9250506020611219858286016111a1565b9150509250929050565b60006020828403121561123957611238611930565b5b60006112478482850161118c565b91505092915050565b60006020828403121561126657611265611930565b5b6000611274848285016111a1565b91505092915050565b60008060006040848603121561129657611295611930565b5b60006112a4868287016111a1565b935050602084013567ffffffffffffffff8111156112c5576112c461192b565b5b6112d186828701611136565b92509250509250925092565b60006112e983836114c5565b60408301905092915050565b6112fe81611761565b82525050565b61130d81611761565b82525050565b61132461131f82611761565b611861565b82525050565b6000611335826116e8565b61133f818561170b565b935061134a836116d8565b8060005b8381101561137b57815161136288826112dd565b975061136d836116fe565b92505060018101905061134e565b5085935050505092915050565b61139181611773565b82525050565b60006113a2826116f3565b6113ac818561171c565b93506113bc8185602086016117b3565b6113c581611935565b840191505092915050565b60006113dd60268361171c565b91506113e882611953565b604082019050919050565b600061140060218361171c565b915061140b826119a2565b604082019050919050565b600061142360168361171c565b915061142e826119f1565b602082019050919050565b600061144660118361171c565b915061145182611a1a565b602082019050919050565b600061146960168361171c565b915061147482611a43565b602082019050919050565b600061148c60208361171c565b915061149782611a6c565b602082019050919050565b60006114af601c8361171c565b91506114ba82611a95565b602082019050919050565b6040820160008201516114db60008501826112f5565b5060208201516114ee60208501826114f4565b50505050565b6114fd816117a9565b82525050565b61150c816117a9565b82525050565b61152361151e826117a9565b611885565b82525050565b60006115358285611313565b6014820191506115458284611512565b6020820191508190509392505050565b600060208201905061156a6000830184611304565b92915050565b60006040820190506115856000830185611304565b6115926020830184611503565b9392505050565b600060208201905081810360008301526115b3818461132a565b905092915050565b60006020820190506115d06000830184611388565b92915050565b600060208201905081810360008301526115f08184611397565b905092915050565b60006020820190508181036000830152611611816113d0565b9050919050565b60006020820190508181036000830152611631816113f3565b9050919050565b6000602082019050818103600083015261165181611416565b9050919050565b6000602082019050818103600083015261167181611439565b9050919050565b600060208201905081810360008301526116918161145c565b9050919050565b600060208201905081810360008301526116b18161147f565b9050919050565b600060208201905081810360008301526116d1816114a2565b9050919050565b6000819050602082019050919050565b600081519050919050565b600081519050919050565b6000602082019050919050565b600082825260208201905092915050565b600082825260208201905092915050565b6000611738826117a9565b9150611743836117a9565b9250828210156117565761175561188f565b5b828203905092915050565b600061176c82611789565b9050919050565b60008115159050919050565b6000819050919050565b600073ffffffffffffffffffffffffffffffffffffffff82169050919050565b6000819050919050565b60005b838110156117d15780820151818401526020810190506117b6565b838111156117e0576000848401525b50505050565b600060028204905060018216806117fe57607f821691505b60208210811415611812576118116118be565b5b50919050565b6000611823826117a9565b91507fffffffffffffffffffffffffffffffffffffffffffffffffffffffffffffffff8214156118565761185561188f565b5b600182019050919050565b600061186c82611873565b9050919050565b600061187e82611946565b9050919050565b6000819050919050565b7f4e487b7100000000000000000000000000000000000000000000000000000000600052601160045260246000fd5b7f4e487b7100000000000000000000000000000000000000000000000000000000600052602260045260246000fd5b7f4e487b7100000000000000000000000000000000000000000000000000000000600052603260045260246000fd5b600080fd5b600080fd5b600080fd5b600080fd5b600080fd5b6000601f19601f8301169050919050565b60008160601b9050919050565b7f4f776e61626c653a206e6577206f776e657220697320746865207a65726f206160008201527f6464726573730000000000000000000000000000000000000000000000000000602082015250565b7f6e6f7420656e6f756768206d6f6e657920746f2070617920656d706c6f79656560008201527f7300000000000000000000000000000000000000000000000000000000000000602082015250565b7f455243313136373a20637265617465206661696c656400000000000000000000600082015250565b7f6e6f742070616d656e7420706572696f64000000000000000000000000000000600082015250565b7f73616c617279207061796d656e74206f6e676f696e6700000000000000000000600082015250565b7f4f776e61626c653a2063616c6c6572206973206e6f7420746865206f776e6572600082015250565b7f74696d6520746f20636c61696d2073616c61727920656c617073656400000000600082015250565b611ac781611761565b8114611ad257600080fd5b50565b611ade8161177f565b8114611ae957600080fd5b50565b611af5816117a9565b8114611b0057600080fd5b5056fea264697066735822122011c397bcfd89d52b970ba29b82a91328e4fbb0b7b85180f6116ad5948386e4b664736f6c63430008070033",
					"opcodes": "PUSH1 0x80 PUSH1 0x40 MSTORE CALLVALUE DUP1 ISZERO PUSH2 0x10 JUMPI PUSH1 0x0 DUP1 REVERT JUMPDEST POP PUSH2 0x2D PUSH2 0x22 PUSH2 0x32 PUSH1 0x20 SHL PUSH1 0x20 SHR JUMP JUMPDEST PUSH2 0x3A PUSH1 0x20 SHL PUSH1 0x20 SHR JUMP JUMPDEST PUSH2 0xFE JUMP JUMPDEST PUSH1 0x0 CALLER SWAP1 POP SWAP1 JUMP JUMPDEST PUSH1 0x0 DUP1 PUSH1 0x0 SWAP1 SLOAD SWAP1 PUSH2 0x100 EXP SWAP1 DIV PUSH20 0xFFFFFFFFFFFFFFFFFFFFFFFFFFFFFFFFFFFFFFFF AND SWAP1 POP DUP2 PUSH1 0x0 DUP1 PUSH2 0x100 EXP DUP2 SLOAD DUP2 PUSH20 0xFFFFFFFFFFFFFFFFFFFFFFFFFFFFFFFFFFFFFFFF MUL NOT AND SWAP1 DUP4 PUSH20 0xFFFFFFFFFFFFFFFFFFFFFFFFFFFFFFFFFFFFFFFF AND MUL OR SWAP1 SSTORE POP DUP2 PUSH20 0xFFFFFFFFFFFFFFFFFFFFFFFFFFFFFFFFFFFFFFFF AND DUP2 PUSH20 0xFFFFFFFFFFFFFFFFFFFFFFFFFFFFFFFFFFFFFFFF AND PUSH32 0x8BE0079C531659141344CD1FD0A4F28419497F9722A3DAAFE3B4186F6B6457E0 PUSH1 0x40 MLOAD PUSH1 0x40 MLOAD DUP1 SWAP2 SUB SWAP1 LOG3 POP POP JUMP JUMPDEST PUSH2 0x1B39 DUP1 PUSH2 0x10D PUSH1 0x0 CODECOPY PUSH1 0x0 RETURN INVALID PUSH1 0x80 PUSH1 0x40 MSTORE PUSH1 0x4 CALLDATASIZE LT PUSH2 0xEC JUMPI PUSH1 0x0 CALLDATALOAD PUSH1 0xE0 SHR DUP1 PUSH4 0x715018A6 GT PUSH2 0x8A JUMPI DUP1 PUSH4 0xA74DA609 GT PUSH2 0x59 JUMPI DUP1 PUSH4 0xA74DA609 EQ PUSH2 0x2BD JUMPI DUP1 PUSH4 0xC10F410B EQ PUSH2 0x2C7 JUMPI DUP1 PUSH4 0xD56D511C EQ PUSH2 0x2DE JUMPI DUP1 PUSH4 0xF2FDE38B EQ PUSH2 0x31B JUMPI PUSH2 0xF3 JUMP JUMPDEST DUP1 PUSH4 0x715018A6 EQ PUSH2 0x227 JUMPI DUP1 PUSH4 0x798BDFD1 EQ PUSH2 0x23E JUMPI DUP1 PUSH4 0x8DA5CB5B EQ PUSH2 0x27B JUMPI DUP1 PUSH4 0xA5109F7B EQ PUSH2 0x2A6 JUMPI PUSH2 0xF3 JUMP JUMPDEST DUP1 PUSH4 0x41F4921E GT PUSH2 0xC6 JUMPI DUP1 PUSH4 0x41F4921E EQ PUSH2 0x16A JUMPI DUP1 PUSH4 0x4783F0EF EQ PUSH2 0x1A8 JUMPI DUP1 PUSH4 0x49CE5A0F EQ PUSH2 0x1D1 JUMPI DUP1 PUSH4 0x5AB37A4C EQ PUSH2 0x1FC JUMPI PUSH2 0xF3 JUMP JUMPDEST DUP1 PUSH4 0x129FA0FE EQ PUSH2 0xF8 JUMPI DUP1 PUSH4 0x21AEE358 EQ PUSH2 0x123 JUMPI DUP1 PUSH4 0x2F52EBB7 EQ PUSH2 0x14E JUMPI PUSH2 0xF3 JUMP JUMPDEST CALLDATASIZE PUSH2 0xF3 JUMPI STOP JUMPDEST PUSH1 0x0 DUP1 REVERT JUMPDEST CALLVALUE DUP1 ISZERO PUSH2 0x104 JUMPI PUSH1 0x0 DUP1 REVERT JUMPDEST POP PUSH2 0x10D PUSH2 0x344 JUMP JUMPDEST PUSH1 0x40 MLOAD PUSH2 0x11A SWAP2 SWAP1 PUSH2 0x1599 JUMP JUMPDEST PUSH1 0x40 MLOAD DUP1 SWAP2 SUB SWAP1 RETURN JUMPDEST CALLVALUE DUP1 ISZERO PUSH2 0x12F JUMPI PUSH1 0x0 DUP1 REVERT JUMPDEST POP PUSH2 0x138 PUSH2 0x403 JUMP JUMPDEST PUSH1 0x40 MLOAD PUSH2 0x145 SWAP2 SWAP1 PUSH2 0x1555 JUMP JUMPDEST PUSH1 0x40 MLOAD DUP1 SWAP2 SUB SWAP1 RETURN JUMPDEST PUSH2 0x168 PUSH1 0x4 DUP1 CALLDATASIZE SUB DUP2 ADD SWAP1 PUSH2 0x163 SWAP2 SWAP1 PUSH2 0x127D JUMP JUMPDEST PUSH2 0x429 JUMP JUMPDEST STOP JUMPDEST CALLVALUE DUP1 ISZERO PUSH2 0x176 JUMPI PUSH1 0x0 DUP1 REVERT JUMPDEST POP PUSH2 0x191 PUSH1 0x4 DUP1 CALLDATASIZE SUB DUP2 ADD SWAP1 PUSH2 0x18C SWAP2 SWAP1 PUSH2 0x1250 JUMP JUMPDEST PUSH2 0x6E4 JUMP JUMPDEST PUSH1 0x40 MLOAD PUSH2 0x19F SWAP3 SWAP2 SWAP1 PUSH2 0x1570 JUMP JUMPDEST PUSH1 0x40 MLOAD DUP1 SWAP2 SUB SWAP1 RETURN JUMPDEST CALLVALUE DUP1 ISZERO PUSH2 0x1B4 JUMPI PUSH1 0x0 DUP1 REVERT JUMPDEST POP PUSH2 0x1CF PUSH1 0x4 DUP1 CALLDATASIZE SUB DUP2 ADD SWAP1 PUSH2 0x1CA SWAP2 SWAP1 PUSH2 0x1223 JUMP JUMPDEST PUSH2 0x738 JUMP JUMPDEST STOP JUMPDEST CALLVALUE DUP1 ISZERO PUSH2 0x1DD JUMPI PUSH1 0x0 DUP1 REVERT JUMPDEST POP PUSH2 0x1E6 PUSH2 0x7BE JUMP JUMPDEST PUSH1 0x40 MLOAD PUSH2 0x1F3 SWAP2 SWAP1 PUSH2 0x15D6 JUMP JUMPDEST PUSH1 0x40 MLOAD DUP1 SWAP2 SUB SWAP1 RETURN JUMPDEST CALLVALUE DUP1 ISZERO PUSH2 0x208 JUMPI PUSH1 0x0 DUP1 REVERT JUMPDEST POP PUSH2 0x211 PUSH2 0x84C JUMP JUMPDEST PUSH1 0x40 MLOAD PUSH2 0x21E SWAP2 SWAP1 PUSH2 0x15D6 JUMP JUMPDEST PUSH1 0x40 MLOAD DUP1 SWAP2 SUB SWAP1 RETURN JUMPDEST CALLVALUE DUP1 ISZERO PUSH2 0x233 JUMPI PUSH1 0x0 DUP1 REVERT JUMPDEST POP PUSH2 0x23C PUSH2 0x8DA JUMP JUMPDEST STOP JUMPDEST CALLVALUE DUP1 ISZERO PUSH2 0x24A JUMPI PUSH1 0x0 DUP1 REVERT JUMPDEST POP PUSH2 0x265 PUSH1 0x4 DUP1 CALLDATASIZE SUB DUP2 ADD SWAP1 PUSH2 0x260 SWAP2 SWAP1 PUSH2 0x11B6 JUMP JUMPDEST PUSH2 0x962 JUMP JUMPDEST PUSH1 0x40 MLOAD PUSH2 0x272 SWAP2 SWAP1 PUSH2 0x15BB JUMP JUMPDEST PUSH1 0x40 MLOAD DUP1 SWAP2 SUB SWAP1 RETURN JUMPDEST CALLVALUE DUP1 ISZERO PUSH2 0x287 JUMPI PUSH1 0x0 DUP1 REVERT JUMPDEST POP PUSH2 0x290 PUSH2 0x982 JUMP JUMPDEST PUSH1 0x40 MLOAD PUSH2 0x29D SWAP2 SWAP1 PUSH2 0x1555 JUMP JUMPDEST PUSH1 0x40 MLOAD DUP1 SWAP2 SUB SWAP1 RETURN JUMPDEST CALLVALUE DUP1 ISZERO PUSH2 0x2B2 JUMPI PUSH1 0x0 DUP1 REVERT JUMPDEST POP PUSH2 0x2BB PUSH2 0x9AB JUMP JUMPDEST STOP JUMPDEST PUSH2 0x2C5 PUSH2 0xA83 JUMP JUMPDEST STOP JUMPDEST CALLVALUE DUP1 ISZERO PUSH2 0x2D3 JUMPI PUSH1 0x0 DUP1 REVERT JUMPDEST POP PUSH2 0x2DC PUSH2 0xB6E JUMP JUMPDEST STOP JUMPDEST CALLVALUE DUP1 ISZERO PUSH2 0x2EA JUMPI PUSH1 0x0 DUP1 REVERT JUMPDEST POP PUSH2 0x305 PUSH1 0x4 DUP1 CALLDATASIZE SUB DUP2 ADD SWAP1 PUSH2 0x300 SWAP2 SWAP1 PUSH2 0x11E3 JUMP JUMPDEST PUSH2 0xCA8 JUMP JUMPDEST PUSH1 0x40 MLOAD PUSH2 0x312 SWAP2 SWAP1 PUSH2 0x1599 JUMP JUMPDEST PUSH1 0x40 MLOAD DUP1 SWAP2 SUB SWAP1 RETURN JUMPDEST CALLVALUE DUP1 ISZERO PUSH2 0x327 JUMPI PUSH1 0x0 DUP1 REVERT JUMPDEST POP PUSH2 0x342 PUSH1 0x4 DUP1 CALLDATASIZE SUB DUP2 ADD SWAP1 PUSH2 0x33D SWAP2 SWAP1 PUSH2 0x11B6 JUMP JUMPDEST PUSH2 0xDE5 JUMP JUMPDEST STOP JUMPDEST PUSH1 0x60 PUSH1 0x8 DUP1 SLOAD DUP1 PUSH1 0x20 MUL PUSH1 0x20 ADD PUSH1 0x40 MLOAD SWAP1 DUP2 ADD PUSH1 0x40 MSTORE DUP1 SWAP3 SWAP2 SWAP1 DUP2 DUP2 MSTORE PUSH1 0x20 ADD PUSH1 0x0 SWAP1 JUMPDEST DUP3 DUP3 LT ISZERO PUSH2 0x3FA JUMPI DUP4 DUP3 SWAP1 PUSH1 0x0 MSTORE PUSH1 0x20 PUSH1 0x0 KECCAK256 SWAP1 PUSH1 0x2 MUL ADD PUSH1 0x40 MLOAD DUP1 PUSH1 0x40 ADD PUSH1 0x40 MSTORE SWAP1 DUP2 PUSH1 0x0 DUP3 ADD PUSH1 0x0 SWAP1 SLOAD SWAP1 PUSH2 0x100 EXP SWAP1 DIV PUSH20 0xFFFFFFFFFFFFFFFFFFFFFFFFFFFFFFFFFFFFFFFF AND PUSH20 0xFFFFFFFFFFFFFFFFFFFFFFFFFFFFFFFFFFFFFFFF AND PUSH20 0xFFFFFFFFFFFFFFFFFFFFFFFFFFFFFFFFFFFFFFFF AND DUP2 MSTORE PUSH1 0x20 ADD PUSH1 0x1 DUP3 ADD SLOAD DUP2 MSTORE POP POP DUP2 MSTORE PUSH1 0x20 ADD SWAP1 PUSH1 0x1 ADD SWAP1 PUSH2 0x368 JUMP JUMPDEST POP POP POP POP SWAP1 POP SWAP1 JUMP JUMPDEST PUSH1 0x1 PUSH1 0x0 SWAP1 SLOAD SWAP1 PUSH2 0x100 EXP SWAP1 DIV PUSH20 0xFFFFFFFFFFFFFFFFFFFFFFFFFFFFFFFFFFFFFFFF AND DUP2 JUMP JUMPDEST PUSH1 0x4 PUSH1 0x0 SWAP1 SLOAD SWAP1 PUSH2 0x100 EXP SWAP1 DIV PUSH1 0xFF AND PUSH2 0x478 JUMPI PUSH1 0x40 MLOAD PUSH32 0x8C379A000000000000000000000000000000000000000000000000000000000 DUP2 MSTORE PUSH1 0x4 ADD PUSH2 0x46F SWAP1 PUSH2 0x1658 JUMP JUMPDEST PUSH1 0x40 MLOAD DUP1 SWAP2 SUB SWAP1 REVERT JUMPDEST PUSH3 0x127500 PUSH1 0x5 SLOAD TIMESTAMP PUSH2 0x48A SWAP2 SWAP1 PUSH2 0x172D JUMP JUMPDEST GT ISZERO PUSH2 0x4CB JUMPI PUSH1 0x40 MLOAD PUSH32 0x8C379A000000000000000000000000000000000000000000000000000000000 DUP2 MSTORE PUSH1 0x4 ADD PUSH2 0x4C2 SWAP1 PUSH2 0x16B8 JUMP JUMPDEST PUSH1 0x40 MLOAD DUP1 SWAP2 SUB SWAP1 REVERT JUMPDEST PUSH1 0x9 PUSH1 0x0 CALLER PUSH20 0xFFFFFFFFFFFFFFFFFFFFFFFFFFFFFFFFFFFFFFFF AND PUSH20 0xFFFFFFFFFFFFFFFFFFFFFFFFFFFFFFFFFFFFFFFF AND DUP2 MSTORE PUSH1 0x20 ADD SWAP1 DUP2 MSTORE PUSH1 0x20 ADD PUSH1 0x0 KECCAK256 PUSH1 0x0 SWAP1 SLOAD SWAP1 PUSH2 0x100 EXP SWAP1 DIV PUSH1 0xFF AND ISZERO PUSH2 0x54F JUMPI PUSH1 0x40 MLOAD PUSH32 0x646CF55800000000000000000000000000000000000000000000000000000000 DUP2 MSTORE PUSH1 0x4 ADD PUSH1 0x40 MLOAD DUP1 SWAP2 SUB SWAP1 REVERT JUMPDEST PUSH1 0x0 CALLER DUP5 PUSH1 0x40 MLOAD PUSH1 0x20 ADD PUSH2 0x564 SWAP3 SWAP2 SWAP1 PUSH2 0x1529 JUMP JUMPDEST PUSH1 0x40 MLOAD PUSH1 0x20 DUP2 DUP4 SUB SUB DUP2 MSTORE SWAP1 PUSH1 0x40 MSTORE DUP1 MLOAD SWAP1 PUSH1 0x20 ADD KECCAK256 SWAP1 POP PUSH1 0x0 PUSH2 0x5CC DUP5 DUP5 DUP1 DUP1 PUSH1 0x20 MUL PUSH1 0x20 ADD PUSH1 0x40 MLOAD SWAP1 DUP2 ADD PUSH1 0x40 MSTORE DUP1 SWAP4 SWAP3 SWAP2 SWAP1 DUP2 DUP2 MSTORE PUSH1 0x20 ADD DUP4 DUP4 PUSH1 0x20 MUL DUP1 DUP3 DUP5 CALLDATACOPY PUSH1 0x0 DUP2 DUP5 ADD MSTORE PUSH1 0x1F NOT PUSH1 0x1F DUP3 ADD AND SWAP1 POP DUP1 DUP4 ADD SWAP3 POP POP POP POP POP POP POP PUSH1 0x3 SLOAD DUP5 PUSH2 0xEDD JUMP JUMPDEST SWAP1 POP DUP1 PUSH2 0x605 JUMPI PUSH1 0x40 MLOAD PUSH32 0x8A585BE200000000000000000000000000000000000000000000000000000000 DUP2 MSTORE PUSH1 0x4 ADD PUSH1 0x40 MLOAD DUP1 SWAP2 SUB SWAP1 REVERT JUMPDEST PUSH1 0x1 PUSH1 0x9 PUSH1 0x0 CALLER PUSH20 0xFFFFFFFFFFFFFFFFFFFFFFFFFFFFFFFFFFFFFFFF AND PUSH20 0xFFFFFFFFFFFFFFFFFFFFFFFFFFFFFFFFFFFFFFFF AND DUP2 MSTORE PUSH1 0x20 ADD SWAP1 DUP2 MSTORE PUSH1 0x20 ADD PUSH1 0x0 KECCAK256 PUSH1 0x0 PUSH2 0x100 EXP DUP2 SLOAD DUP2 PUSH1 0xFF MUL NOT AND SWAP1 DUP4 ISZERO ISZERO MUL OR SWAP1 SSTORE POP CALLER PUSH20 0xFFFFFFFFFFFFFFFFFFFFFFFFFFFFFFFFFFFFFFFF AND PUSH2 0x8FC DUP7 SWAP1 DUP2 ISZERO MUL SWAP1 PUSH1 0x40 MLOAD PUSH1 0x0 PUSH1 0x40 MLOAD DUP1 DUP4 SUB DUP2 DUP6 DUP9 DUP9 CALL SWAP4 POP POP POP POP ISZERO DUP1 ISZERO PUSH2 0x6A3 JUMPI RETURNDATASIZE PUSH1 0x0 DUP1 RETURNDATACOPY RETURNDATASIZE PUSH1 0x0 REVERT JUMPDEST POP PUSH32 0x47CEE97CB7ACD717B3C0AA1435D004CD5B3C8C57D70DBCEB4E4458BBD60E39D4 CALLER DUP7 PUSH1 0x40 MLOAD PUSH2 0x6D5 SWAP3 SWAP2 SWAP1 PUSH2 0x1570 JUMP JUMPDEST PUSH1 0x40 MLOAD DUP1 SWAP2 SUB SWAP1 LOG1 POP POP POP POP POP JUMP JUMPDEST PUSH1 0x8 DUP2 DUP2 SLOAD DUP2 LT PUSH2 0x6F4 JUMPI PUSH1 0x0 DUP1 REVERT JUMPDEST SWAP1 PUSH1 0x0 MSTORE PUSH1 0x20 PUSH1 0x0 KECCAK256 SWAP1 PUSH1 0x2 MUL ADD PUSH1 0x0 SWAP2 POP SWAP1 POP DUP1 PUSH1 0x0 ADD PUSH1 0x0 SWAP1 SLOAD SWAP1 PUSH2 0x100 EXP SWAP1 DIV PUSH20 0xFFFFFFFFFFFFFFFFFFFFFFFFFFFFFFFFFFFFFFFF AND SWAP1 DUP1 PUSH1 0x1 ADD SLOAD SWAP1 POP DUP3 JUMP JUMPDEST PUSH2 0x740 PUSH2 0xEF4 JUMP JUMPDEST PUSH20 0xFFFFFFFFFFFFFFFFFFFFFFFFFFFFFFFFFFFFFFFF AND PUSH2 0x75E PUSH2 0x982 JUMP JUMPDEST PUSH20 0xFFFFFFFFFFFFFFFFFFFFFFFFFFFFFFFFFFFFFFFF AND EQ PUSH2 0x7B4 JUMPI PUSH1 0x40 MLOAD PUSH32 0x8C379A000000000000000000000000000000000000000000000000000000000 DUP2 MSTORE PUSH1 0x4 ADD PUSH2 0x7AB SWAP1 PUSH2 0x1698 JUMP JUMPDEST PUSH1 0x40 MLOAD DUP1 SWAP2 SUB SWAP1 REVERT JUMPDEST DUP1 PUSH1 0x3 DUP2 SWAP1 SSTORE POP POP JUMP JUMPDEST PUSH1 0x7 DUP1 SLOAD PUSH2 0x7CB SWAP1 PUSH2 0x17E6 JUMP JUMPDEST DUP1 PUSH1 0x1F ADD PUSH1 0x20 DUP1 SWAP2 DIV MUL PUSH1 0x20 ADD PUSH1 0x40 MLOAD SWAP1 DUP2 ADD PUSH1 0x40 MSTORE DUP1 SWAP3 SWAP2 SWAP1 DUP2 DUP2 MSTORE PUSH1 0x20 ADD DUP3 DUP1 SLOAD PUSH2 0x7F7 SWAP1 PUSH2 0x17E6 JUMP JUMPDEST DUP1 ISZERO PUSH2 0x844 JUMPI DUP1 PUSH1 0x1F LT PUSH2 0x819 JUMPI PUSH2 0x100 DUP1 DUP4 SLOAD DIV MUL DUP4 MSTORE SWAP2 PUSH1 0x20 ADD SWAP2 PUSH2 0x844 JUMP JUMPDEST DUP3 ADD SWAP2 SWAP1 PUSH1 0x0 MSTORE PUSH1 0x20 PUSH1 0x0 KECCAK256 SWAP1 JUMPDEST DUP2 SLOAD DUP2 MSTORE SWAP1 PUSH1 0x1 ADD SWAP1 PUSH1 0x20 ADD DUP1 DUP4 GT PUSH2 0x827 JUMPI DUP3 SWAP1 SUB PUSH1 0x1F AND DUP3 ADD SWAP2 JUMPDEST POP POP POP POP POP DUP2 JUMP JUMPDEST PUSH1 0x6 DUP1 SLOAD PUSH2 0x859 SWAP1 PUSH2 0x17E6 JUMP JUMPDEST DUP1 PUSH1 0x1F ADD PUSH1 0x20 DUP1 SWAP2 DIV MUL PUSH1 0x20 ADD PUSH1 0x40 MLOAD SWAP1 DUP2 ADD PUSH1 0x40 MSTORE DUP1 SWAP3 SWAP2 SWAP1 DUP2 DUP2 MSTORE PUSH1 0x20 ADD DUP3 DUP1 SLOAD PUSH2 0x885 SWAP1 PUSH2 0x17E6 JUMP JUMPDEST DUP1 ISZERO PUSH2 0x8D2 JUMPI DUP1 PUSH1 0x1F LT PUSH2 0x8A7 JUMPI PUSH2 0x100 DUP1 DUP4 SLOAD DIV MUL DUP4 MSTORE SWAP2 PUSH1 0x20 ADD SWAP2 PUSH2 0x8D2 JUMP JUMPDEST DUP3 ADD SWAP2 SWAP1 PUSH1 0x0 MSTORE PUSH1 0x20 PUSH1 0x0 KECCAK256 SWAP1 JUMPDEST DUP2 SLOAD DUP2 MSTORE SWAP1 PUSH1 0x1 ADD SWAP1 PUSH1 0x20 ADD DUP1 DUP4 GT PUSH2 0x8B5 JUMPI DUP3 SWAP1 SUB PUSH1 0x1F AND DUP3 ADD SWAP2 JUMPDEST POP POP POP POP POP DUP2 JUMP JUMPDEST PUSH2 0x8E2 PUSH2 0xEF4 JUMP JUMPDEST PUSH20 0xFFFFFFFFFFFFFFFFFFFFFFFFFFFFFFFFFFFFFFFF AND PUSH2 0x900 PUSH2 0x982 JUMP JUMPDEST PUSH20 0xFFFFFFFFFFFFFFFFFFFFFFFFFFFFFFFFFFFFFFFF AND EQ PUSH2 0x956 JUMPI PUSH1 0x40 MLOAD PUSH32 0x8C379A000000000000000000000000000000000000000000000000000000000 DUP2 MSTORE PUSH1 0x4 ADD PUSH2 0x94D SWAP1 PUSH2 0x1698 JUMP JUMPDEST PUSH1 0x40 MLOAD DUP1 SWAP2 SUB SWAP1 REVERT JUMPDEST PUSH2 0x960 PUSH1 0x0 PUSH2 0xEFC JUMP JUMPDEST JUMP JUMPDEST PUSH1 0x9 PUSH1 0x20 MSTORE DUP1 PUSH1 0x0 MSTORE PUSH1 0x40 PUSH1 0x0 KECCAK256 PUSH1 0x0 SWAP2 POP SLOAD SWAP1 PUSH2 0x100 EXP SWAP1 DIV PUSH1 0xFF AND DUP2 JUMP JUMPDEST PUSH1 0x0 DUP1 PUSH1 0x0 SWAP1 SLOAD SWAP1 PUSH2 0x100 EXP SWAP1 DIV PUSH20 0xFFFFFFFFFFFFFFFFFFFFFFFFFFFFFFFFFFFFFFFF AND SWAP1 POP SWAP1 JUMP JUMPDEST PUSH1 0x0 PUSH2 0x9D8 PUSH1 0x1 PUSH1 0x0 SWAP1 SLOAD SWAP1 PUSH2 0x100 EXP SWAP1 DIV PUSH20 0xFFFFFFFFFFFFFFFFFFFFFFFFFFFFFFFFFFFFFFFF AND PUSH2 0xFC0 JUMP JUMPDEST SWAP1 POP PUSH1 0x2 DUP2 SWAP1 DUP1 PUSH1 0x1 DUP2 SLOAD ADD DUP1 DUP3 SSTORE DUP1 SWAP2 POP POP PUSH1 0x1 SWAP1 SUB SWAP1 PUSH1 0x0 MSTORE PUSH1 0x20 PUSH1 0x0 KECCAK256 ADD PUSH1 0x0 SWAP1 SWAP2 SWAP1 SWAP2 SWAP1 SWAP2 PUSH2 0x100 EXP DUP2 SLOAD DUP2 PUSH20 0xFFFFFFFFFFFFFFFFFFFFFFFFFFFFFFFFFFFFFFFF MUL NOT AND SWAP1 DUP4 PUSH20 0xFFFFFFFFFFFFFFFFFFFFFFFFFFFFFFFFFFFFFFFF AND MUL OR SWAP1 SSTORE POP DUP1 PUSH20 0xFFFFFFFFFFFFFFFFFFFFFFFFFFFFFFFFFFFFFFFF AND PUSH32 0x5B6F2CA69C49E54072387225BA5FC2E130A2F96425B884E007AE49A82D12BDD9 PUSH1 0x40 MLOAD PUSH1 0x40 MLOAD DUP1 SWAP2 SUB SWAP1 LOG2 POP JUMP JUMPDEST PUSH2 0xA8B PUSH2 0xEF4 JUMP JUMPDEST PUSH20 0xFFFFFFFFFFFFFFFFFFFFFFFFFFFFFFFFFFFFFFFF AND PUSH2 0xAA9 PUSH2 0x982 JUMP JUMPDEST PUSH20 0xFFFFFFFFFFFFFFFFFFFFFFFFFFFFFFFFFFFFFFFF AND EQ PUSH2 0xAFF JUMPI PUSH1 0x40 MLOAD PUSH32 0x8C379A000000000000000000000000000000000000000000000000000000000 DUP2 MSTORE PUSH1 0x4 ADD PUSH2 0xAF6 SWAP1 PUSH2 0x1698 JUMP JUMPDEST PUSH1 0x40 MLOAD DUP1 SWAP2 SUB SWAP1 REVERT JUMPDEST PUSH8 0xDE0B6B3A7640000 CALLVALUE LT ISZERO PUSH2 0xB4A JUMPI PUSH1 0x40 MLOAD PUSH32 0x8C379A000000000000000000000000000000000000000000000000000000000 DUP2 MSTORE PUSH1 0x4 ADD PUSH2 0xB41 SWAP1 PUSH2 0x1618 JUMP JUMPDEST PUSH1 0x40 MLOAD DUP1 SWAP2 SUB SWAP1 REVERT JUMPDEST PUSH1 0x1 PUSH1 0x4 PUSH1 0x0 PUSH2 0x100 EXP DUP2 SLOAD DUP2 PUSH1 0xFF MUL NOT AND SWAP1 DUP4 ISZERO ISZERO MUL OR SWAP1 SSTORE POP TIMESTAMP PUSH1 0x5 DUP2 SWAP1 SSTORE POP JUMP JUMPDEST PUSH2 0xB76 PUSH2 0xEF4 JUMP JUMPDEST PUSH20 0xFFFFFFFFFFFFFFFFFFFFFFFFFFFFFFFFFFFFFFFF AND PUSH2 0xB94 PUSH2 0x982 JUMP JUMPDEST PUSH20 0xFFFFFFFFFFFFFFFFFFFFFFFFFFFFFFFFFFFFFFFF AND EQ PUSH2 0xBEA JUMPI PUSH1 0x40 MLOAD PUSH32 0x8C379A000000000000000000000000000000000000000000000000000000000 DUP2 MSTORE PUSH1 0x4 ADD PUSH2 0xBE1 SWAP1 PUSH2 0x1698 JUMP JUMPDEST PUSH1 0x40 MLOAD DUP1 SWAP2 SUB SWAP1 REVERT JUMPDEST PUSH3 0x127500 PUSH1 0x5 SLOAD TIMESTAMP PUSH2 0xBFC SWAP2 SWAP1 PUSH2 0x172D JUMP JUMPDEST LT ISZERO PUSH2 0xC3D JUMPI PUSH1 0x40 MLOAD PUSH32 0x8C379A000000000000000000000000000000000000000000000000000000000 DUP2 MSTORE PUSH1 0x4 ADD PUSH2 0xC34 SWAP1 PUSH2 0x1678 JUMP JUMPDEST PUSH1 0x40 MLOAD DUP1 SWAP2 SUB SWAP1 REVERT JUMPDEST PUSH2 0xC45 PUSH2 0x982 JUMP JUMPDEST PUSH20 0xFFFFFFFFFFFFFFFFFFFFFFFFFFFFFFFFFFFFFFFF AND PUSH2 0x8FC SELFBALANCE SWAP1 DUP2 ISZERO MUL SWAP1 PUSH1 0x40 MLOAD PUSH1 0x0 PUSH1 0x40 MLOAD DUP1 DUP4 SUB DUP2 DUP6 DUP9 DUP9 CALL SWAP4 POP POP POP POP ISZERO DUP1 ISZERO PUSH2 0xC8A JUMPI RETURNDATASIZE PUSH1 0x0 DUP1 RETURNDATACOPY RETURNDATASIZE PUSH1 0x0 REVERT JUMPDEST POP PUSH1 0x0 PUSH1 0x4 PUSH1 0x0 PUSH2 0x100 EXP DUP2 SLOAD DUP2 PUSH1 0xFF MUL NOT AND SWAP1 DUP4 ISZERO ISZERO MUL OR SWAP1 SSTORE POP JUMP JUMPDEST PUSH1 0x60 PUSH2 0xCB2 PUSH2 0xEF4 JUMP JUMPDEST PUSH20 0xFFFFFFFFFFFFFFFFFFFFFFFFFFFFFFFFFFFFFFFF AND PUSH2 0xCD0 PUSH2 0x982 JUMP JUMPDEST PUSH20 0xFFFFFFFFFFFFFFFFFFFFFFFFFFFFFFFFFFFFFFFF AND EQ PUSH2 0xD26 JUMPI PUSH1 0x40 MLOAD PUSH32 0x8C379A000000000000000000000000000000000000000000000000000000000 DUP2 MSTORE PUSH1 0x4 ADD PUSH2 0xD1D SWAP1 PUSH2 0x1698 JUMP JUMPDEST PUSH1 0x40 MLOAD DUP1 SWAP2 SUB SWAP1 REVERT JUMPDEST PUSH1 0x0 PUSH1 0x40 MLOAD DUP1 PUSH1 0x40 ADD PUSH1 0x40 MSTORE DUP1 DUP6 PUSH20 0xFFFFFFFFFFFFFFFFFFFFFFFFFFFFFFFFFFFFFFFF AND DUP2 MSTORE PUSH1 0x20 ADD DUP5 DUP2 MSTORE POP SWAP1 POP PUSH1 0x8 DUP2 SWAP1 DUP1 PUSH1 0x1 DUP2 SLOAD ADD DUP1 DUP3 SSTORE DUP1 SWAP2 POP POP PUSH1 0x1 SWAP1 SUB SWAP1 PUSH1 0x0 MSTORE PUSH1 0x20 PUSH1 0x0 KECCAK256 SWAP1 PUSH1 0x2 MUL ADD PUSH1 0x0 SWAP1 SWAP2 SWAP1 SWAP2 SWAP1 SWAP2 POP PUSH1 0x0 DUP3 ADD MLOAD DUP2 PUSH1 0x0 ADD PUSH1 0x0 PUSH2 0x100 EXP DUP2 SLOAD DUP2 PUSH20 0xFFFFFFFFFFFFFFFFFFFFFFFFFFFFFFFFFFFFFFFF MUL NOT AND SWAP1 DUP4 PUSH20 0xFFFFFFFFFFFFFFFFFFFFFFFFFFFFFFFFFFFFFFFF AND MUL OR SWAP1 SSTORE POP PUSH1 0x20 DUP3 ADD MLOAD DUP2 PUSH1 0x1 ADD SSTORE POP POP PUSH2 0xDDC PUSH2 0x344 JUMP JUMPDEST SWAP2 POP POP SWAP3 SWAP2 POP POP JUMP JUMPDEST PUSH2 0xDED PUSH2 0xEF4 JUMP JUMPDEST PUSH20 0xFFFFFFFFFFFFFFFFFFFFFFFFFFFFFFFFFFFFFFFF AND PUSH2 0xE0B PUSH2 0x982 JUMP JUMPDEST PUSH20 0xFFFFFFFFFFFFFFFFFFFFFFFFFFFFFFFFFFFFFFFF AND EQ PUSH2 0xE61 JUMPI PUSH1 0x40 MLOAD PUSH32 0x8C379A000000000000000000000000000000000000000000000000000000000 DUP2 MSTORE PUSH1 0x4 ADD PUSH2 0xE58 SWAP1 PUSH2 0x1698 JUMP JUMPDEST PUSH1 0x40 MLOAD DUP1 SWAP2 SUB SWAP1 REVERT JUMPDEST PUSH1 0x0 PUSH20 0xFFFFFFFFFFFFFFFFFFFFFFFFFFFFFFFFFFFFFFFF AND DUP2 PUSH20 0xFFFFFFFFFFFFFFFFFFFFFFFFFFFFFFFFFFFFFFFF AND EQ ISZERO PUSH2 0xED1 JUMPI PUSH1 0x40 MLOAD PUSH32 0x8C379A000000000000000000000000000000000000000000000000000000000 DUP2 MSTORE PUSH1 0x4 ADD PUSH2 0xEC8 SWAP1 PUSH2 0x15F8 JUMP JUMPDEST PUSH1 0x40 MLOAD DUP1 SWAP2 SUB SWAP1 REVERT JUMPDEST PUSH2 0xEDA DUP2 PUSH2 0xEFC JUMP JUMPDEST POP JUMP JUMPDEST PUSH1 0x0 DUP3 PUSH2 0xEEA DUP6 DUP5 PUSH2 0x1095 JUMP JUMPDEST EQ SWAP1 POP SWAP4 SWAP3 POP POP POP JUMP JUMPDEST PUSH1 0x0 CALLER SWAP1 POP SWAP1 JUMP JUMPDEST PUSH1 0x0 DUP1 PUSH1 0x0 SWAP1 SLOAD SWAP1 PUSH2 0x100 EXP SWAP1 DIV PUSH20 0xFFFFFFFFFFFFFFFFFFFFFFFFFFFFFFFFFFFFFFFF AND SWAP1 POP DUP2 PUSH1 0x0 DUP1 PUSH2 0x100 EXP DUP2 SLOAD DUP2 PUSH20 0xFFFFFFFFFFFFFFFFFFFFFFFFFFFFFFFFFFFFFFFF MUL NOT AND SWAP1 DUP4 PUSH20 0xFFFFFFFFFFFFFFFFFFFFFFFFFFFFFFFFFFFFFFFF AND MUL OR SWAP1 SSTORE POP DUP2 PUSH20 0xFFFFFFFFFFFFFFFFFFFFFFFFFFFFFFFFFFFFFFFF AND DUP2 PUSH20 0xFFFFFFFFFFFFFFFFFFFFFFFFFFFFFFFFFFFFFFFF AND PUSH32 0x8BE0079C531659141344CD1FD0A4F28419497F9722A3DAAFE3B4186F6B6457E0 PUSH1 0x40 MLOAD PUSH1 0x40 MLOAD DUP1 SWAP2 SUB SWAP1 LOG3 POP POP JUMP JUMPDEST PUSH1 0x0 PUSH1 0x40 MLOAD PUSH32 0x602D8060093D393DF3363D3D373D3D3D363D7300000000000000000000000000 DUP2 MSTORE DUP3 PUSH1 0x60 SHL PUSH1 0x13 DUP3 ADD MSTORE PUSH32 0x5AF43D82803E903D91602B57FD5BF30000000000000000000000000000000000 PUSH1 0x27 DUP3 ADD MSTORE PUSH1 0x36 DUP2 PUSH1 0x0 CREATE SWAP2 POP POP PUSH1 0x0 PUSH20 0xFFFFFFFFFFFFFFFFFFFFFFFFFFFFFFFFFFFFFFFF AND DUP2 PUSH20 0xFFFFFFFFFFFFFFFFFFFFFFFFFFFFFFFFFFFFFFFF AND EQ ISZERO PUSH2 0x1090 JUMPI PUSH1 0x40 MLOAD PUSH32 0x8C379A000000000000000000000000000000000000000000000000000000000 DUP2 MSTORE PUSH1 0x4 ADD PUSH2 0x1087 SWAP1 PUSH2 0x1638 JUMP JUMPDEST PUSH1 0x40 MLOAD DUP1 SWAP2 SUB SWAP1 REVERT JUMPDEST SWAP2 SWAP1 POP JUMP JUMPDEST PUSH1 0x0 DUP1 DUP3 SWAP1 POP PUSH1 0x0 JUMPDEST DUP5 MLOAD DUP2 LT ISZERO PUSH2 0x10FF JUMPI PUSH1 0x0 DUP6 DUP3 DUP2 MLOAD DUP2 LT PUSH2 0x10BC JUMPI PUSH2 0x10BB PUSH2 0x18ED JUMP JUMPDEST JUMPDEST PUSH1 0x20 MUL PUSH1 0x20 ADD ADD MLOAD SWAP1 POP DUP1 DUP4 GT PUSH2 0x10DE JUMPI PUSH2 0x10D7 DUP4 DUP3 PUSH2 0x110A JUMP JUMPDEST SWAP3 POP PUSH2 0x10EB JUMP JUMPDEST PUSH2 0x10E8 DUP2 DUP5 PUSH2 0x110A JUMP JUMPDEST SWAP3 POP JUMPDEST POP DUP1 DUP1 PUSH2 0x10F7 SWAP1 PUSH2 0x1818 JUMP JUMPDEST SWAP2 POP POP PUSH2 0x109E JUMP JUMPDEST POP DUP1 SWAP2 POP POP SWAP3 SWAP2 POP POP JUMP JUMPDEST PUSH1 0x0 DUP3 PUSH1 0x0 MSTORE DUP2 PUSH1 0x20 MSTORE PUSH1 0x40 PUSH1 0x0 KECCAK256 SWAP1 POP SWAP3 SWAP2 POP POP JUMP JUMPDEST PUSH1 0x0 DUP2 CALLDATALOAD SWAP1 POP PUSH2 0x1130 DUP2 PUSH2 0x1ABE JUMP JUMPDEST SWAP3 SWAP2 POP POP JUMP JUMPDEST PUSH1 0x0 DUP1 DUP4 PUSH1 0x1F DUP5 ADD SLT PUSH2 0x114C JUMPI PUSH2 0x114B PUSH2 0x1921 JUMP JUMPDEST JUMPDEST DUP3 CALLDATALOAD SWAP1 POP PUSH8 0xFFFFFFFFFFFFFFFF DUP2 GT ISZERO PUSH2 0x1169 JUMPI PUSH2 0x1168 PUSH2 0x191C JUMP JUMPDEST JUMPDEST PUSH1 0x20 DUP4 ADD SWAP2 POP DUP4 PUSH1 0x20 DUP3 MUL DUP4 ADD GT ISZERO PUSH2 0x1185 JUMPI PUSH2 0x1184 PUSH2 0x1926 JUMP JUMPDEST JUMPDEST SWAP3 POP SWAP3 SWAP1 POP JUMP JUMPDEST PUSH1 0x0 DUP2 CALLDATALOAD SWAP1 POP PUSH2 0x119B DUP2 PUSH2 0x1AD5 JUMP JUMPDEST SWAP3 SWAP2 POP POP JUMP JUMPDEST PUSH1 0x0 DUP2 CALLDATALOAD SWAP1 POP PUSH2 0x11B0 DUP2 PUSH2 0x1AEC JUMP JUMPDEST SWAP3 SWAP2 POP POP JUMP JUMPDEST PUSH1 0x0 PUSH1 0x20 DUP3 DUP5 SUB SLT ISZERO PUSH2 0x11CC JUMPI PUSH2 0x11CB PUSH2 0x1930 JUMP JUMPDEST JUMPDEST PUSH1 0x0 PUSH2 0x11DA DUP5 DUP3 DUP6 ADD PUSH2 0x1121 JUMP JUMPDEST SWAP2 POP POP SWAP3 SWAP2 POP POP JUMP JUMPDEST PUSH1 0x0 DUP1 PUSH1 0x40 DUP4 DUP6 SUB SLT ISZERO PUSH2 0x11FA JUMPI PUSH2 0x11F9 PUSH2 0x1930 JUMP JUMPDEST JUMPDEST PUSH1 0x0 PUSH2 0x1208 DUP6 DUP3 DUP7 ADD PUSH2 0x1121 JUMP JUMPDEST SWAP3 POP POP PUSH1 0x20 PUSH2 0x1219 DUP6 DUP3 DUP7 ADD PUSH2 0x11A1 JUMP JUMPDEST SWAP2 POP POP SWAP3 POP SWAP3 SWAP1 POP JUMP JUMPDEST PUSH1 0x0 PUSH1 0x20 DUP3 DUP5 SUB SLT ISZERO PUSH2 0x1239 JUMPI PUSH2 0x1238 PUSH2 0x1930 JUMP JUMPDEST JUMPDEST PUSH1 0x0 PUSH2 0x1247 DUP5 DUP3 DUP6 ADD PUSH2 0x118C JUMP JUMPDEST SWAP2 POP POP SWAP3 SWAP2 POP POP JUMP JUMPDEST PUSH1 0x0 PUSH1 0x20 DUP3 DUP5 SUB SLT ISZERO PUSH2 0x1266 JUMPI PUSH2 0x1265 PUSH2 0x1930 JUMP JUMPDEST JUMPDEST PUSH1 0x0 PUSH2 0x1274 DUP5 DUP3 DUP6 ADD PUSH2 0x11A1 JUMP JUMPDEST SWAP2 POP POP SWAP3 SWAP2 POP POP JUMP JUMPDEST PUSH1 0x0 DUP1 PUSH1 0x0 PUSH1 0x40 DUP5 DUP7 SUB SLT ISZERO PUSH2 0x1296 JUMPI PUSH2 0x1295 PUSH2 0x1930 JUMP JUMPDEST JUMPDEST PUSH1 0x0 PUSH2 0x12A4 DUP7 DUP3 DUP8 ADD PUSH2 0x11A1 JUMP JUMPDEST SWAP4 POP POP PUSH1 0x20 DUP5 ADD CALLDATALOAD PUSH8 0xFFFFFFFFFFFFFFFF DUP2 GT ISZERO PUSH2 0x12C5 JUMPI PUSH2 0x12C4 PUSH2 0x192B JUMP JUMPDEST JUMPDEST PUSH2 0x12D1 DUP7 DUP3 DUP8 ADD PUSH2 0x1136 JUMP JUMPDEST SWAP3 POP SWAP3 POP POP SWAP3 POP SWAP3 POP SWAP3 JUMP JUMPDEST PUSH1 0x0 PUSH2 0x12E9 DUP4 DUP4 PUSH2 0x14C5 JUMP JUMPDEST PUSH1 0x40 DUP4 ADD SWAP1 POP SWAP3 SWAP2 POP POP JUMP JUMPDEST PUSH2 0x12FE DUP2 PUSH2 0x1761 JUMP JUMPDEST DUP3 MSTORE POP POP JUMP JUMPDEST PUSH2 0x130D DUP2 PUSH2 0x1761 JUMP JUMPDEST DUP3 MSTORE POP POP JUMP JUMPDEST PUSH2 0x1324 PUSH2 0x131F DUP3 PUSH2 0x1761 JUMP JUMPDEST PUSH2 0x1861 JUMP JUMPDEST DUP3 MSTORE POP POP JUMP JUMPDEST PUSH1 0x0 PUSH2 0x1335 DUP3 PUSH2 0x16E8 JUMP JUMPDEST PUSH2 0x133F DUP2 DUP6 PUSH2 0x170B JUMP JUMPDEST SWAP4 POP PUSH2 0x134A DUP4 PUSH2 0x16D8 JUMP JUMPDEST DUP1 PUSH1 0x0 JUMPDEST DUP4 DUP2 LT ISZERO PUSH2 0x137B JUMPI DUP2 MLOAD PUSH2 0x1362 DUP9 DUP3 PUSH2 0x12DD JUMP JUMPDEST SWAP8 POP PUSH2 0x136D DUP4 PUSH2 0x16FE JUMP JUMPDEST SWAP3 POP POP PUSH1 0x1 DUP2 ADD SWAP1 POP PUSH2 0x134E JUMP JUMPDEST POP DUP6 SWAP4 POP POP POP POP SWAP3 SWAP2 POP POP JUMP JUMPDEST PUSH2 0x1391 DUP2 PUSH2 0x1773 JUMP JUMPDEST DUP3 MSTORE POP POP JUMP JUMPDEST PUSH1 0x0 PUSH2 0x13A2 DUP3 PUSH2 0x16F3 JUMP JUMPDEST PUSH2 0x13AC DUP2 DUP6 PUSH2 0x171C JUMP JUMPDEST SWAP4 POP PUSH2 0x13BC DUP2 DUP6 PUSH1 0x20 DUP7 ADD PUSH2 0x17B3 JUMP JUMPDEST PUSH2 0x13C5 DUP2 PUSH2 0x1935 JUMP JUMPDEST DUP5 ADD SWAP2 POP POP SWAP3 SWAP2 POP POP JUMP JUMPDEST PUSH1 0x0 PUSH2 0x13DD PUSH1 0x26 DUP4 PUSH2 0x171C JUMP JUMPDEST SWAP2 POP PUSH2 0x13E8 DUP3 PUSH2 0x1953 JUMP JUMPDEST PUSH1 0x40 DUP3 ADD SWAP1 POP SWAP2 SWAP1 POP JUMP JUMPDEST PUSH1 0x0 PUSH2 0x1400 PUSH1 0x21 DUP4 PUSH2 0x171C JUMP JUMPDEST SWAP2 POP PUSH2 0x140B DUP3 PUSH2 0x19A2 JUMP JUMPDEST PUSH1 0x40 DUP3 ADD SWAP1 POP SWAP2 SWAP1 POP JUMP JUMPDEST PUSH1 0x0 PUSH2 0x1423 PUSH1 0x16 DUP4 PUSH2 0x171C JUMP JUMPDEST SWAP2 POP PUSH2 0x142E DUP3 PUSH2 0x19F1 JUMP JUMPDEST PUSH1 0x20 DUP3 ADD SWAP1 POP SWAP2 SWAP1 POP JUMP JUMPDEST PUSH1 0x0 PUSH2 0x1446 PUSH1 0x11 DUP4 PUSH2 0x171C JUMP JUMPDEST SWAP2 POP PUSH2 0x1451 DUP3 PUSH2 0x1A1A JUMP JUMPDEST PUSH1 0x20 DUP3 ADD SWAP1 POP SWAP2 SWAP1 POP JUMP JUMPDEST PUSH1 0x0 PUSH2 0x1469 PUSH1 0x16 DUP4 PUSH2 0x171C JUMP JUMPDEST SWAP2 POP PUSH2 0x1474 DUP3 PUSH2 0x1A43 JUMP JUMPDEST PUSH1 0x20 DUP3 ADD SWAP1 POP SWAP2 SWAP1 POP JUMP JUMPDEST PUSH1 0x0 PUSH2 0x148C PUSH1 0x20 DUP4 PUSH2 0x171C JUMP JUMPDEST SWAP2 POP PUSH2 0x1497 DUP3 PUSH2 0x1A6C JUMP JUMPDEST PUSH1 0x20 DUP3 ADD SWAP1 POP SWAP2 SWAP1 POP JUMP JUMPDEST PUSH1 0x0 PUSH2 0x14AF PUSH1 0x1C DUP4 PUSH2 0x171C JUMP JUMPDEST SWAP2 POP PUSH2 0x14BA DUP3 PUSH2 0x1A95 JUMP JUMPDEST PUSH1 0x20 DUP3 ADD SWAP1 POP SWAP2 SWAP1 POP JUMP JUMPDEST PUSH1 0x40 DUP3 ADD PUSH1 0x0 DUP3 ADD MLOAD PUSH2 0x14DB PUSH1 0x0 DUP6 ADD DUP3 PUSH2 0x12F5 JUMP JUMPDEST POP PUSH1 0x20 DUP3 ADD MLOAD PUSH2 0x14EE PUSH1 0x20 DUP6 ADD DUP3 PUSH2 0x14F4 JUMP JUMPDEST POP POP POP POP JUMP JUMPDEST PUSH2 0x14FD DUP2 PUSH2 0x17A9 JUMP JUMPDEST DUP3 MSTORE POP POP JUMP JUMPDEST PUSH2 0x150C DUP2 PUSH2 0x17A9 JUMP JUMPDEST DUP3 MSTORE POP POP JUMP JUMPDEST PUSH2 0x1523 PUSH2 0x151E DUP3 PUSH2 0x17A9 JUMP JUMPDEST PUSH2 0x1885 JUMP JUMPDEST DUP3 MSTORE POP POP JUMP JUMPDEST PUSH1 0x0 PUSH2 0x1535 DUP3 DUP6 PUSH2 0x1313 JUMP JUMPDEST PUSH1 0x14 DUP3 ADD SWAP2 POP PUSH2 0x1545 DUP3 DUP5 PUSH2 0x1512 JUMP JUMPDEST PUSH1 0x20 DUP3 ADD SWAP2 POP DUP2 SWAP1 POP SWAP4 SWAP3 POP POP POP JUMP JUMPDEST PUSH1 0x0 PUSH1 0x20 DUP3 ADD SWAP1 POP PUSH2 0x156A PUSH1 0x0 DUP4 ADD DUP5 PUSH2 0x1304 JUMP JUMPDEST SWAP3 SWAP2 POP POP JUMP JUMPDEST PUSH1 0x0 PUSH1 0x40 DUP3 ADD SWAP1 POP PUSH2 0x1585 PUSH1 0x0 DUP4 ADD DUP6 PUSH2 0x1304 JUMP JUMPDEST PUSH2 0x1592 PUSH1 0x20 DUP4 ADD DUP5 PUSH2 0x1503 JUMP JUMPDEST SWAP4 SWAP3 POP POP POP JUMP JUMPDEST PUSH1 0x0 PUSH1 0x20 DUP3 ADD SWAP1 POP DUP2 DUP2 SUB PUSH1 0x0 DUP4 ADD MSTORE PUSH2 0x15B3 DUP2 DUP5 PUSH2 0x132A JUMP JUMPDEST SWAP1 POP SWAP3 SWAP2 POP POP JUMP JUMPDEST PUSH1 0x0 PUSH1 0x20 DUP3 ADD SWAP1 POP PUSH2 0x15D0 PUSH1 0x0 DUP4 ADD DUP5 PUSH2 0x1388 JUMP JUMPDEST SWAP3 SWAP2 POP POP JUMP JUMPDEST PUSH1 0x0 PUSH1 0x20 DUP3 ADD SWAP1 POP DUP2 DUP2 SUB PUSH1 0x0 DUP4 ADD MSTORE PUSH2 0x15F0 DUP2 DUP5 PUSH2 0x1397 JUMP JUMPDEST SWAP1 POP SWAP3 SWAP2 POP POP JUMP JUMPDEST PUSH1 0x0 PUSH1 0x20 DUP3 ADD SWAP1 POP DUP2 DUP2 SUB PUSH1 0x0 DUP4 ADD MSTORE PUSH2 0x1611 DUP2 PUSH2 0x13D0 JUMP JUMPDEST SWAP1 POP SWAP2 SWAP1 POP JUMP JUMPDEST PUSH1 0x0 PUSH1 0x20 DUP3 ADD SWAP1 POP DUP2 DUP2 SUB PUSH1 0x0 DUP4 ADD MSTORE PUSH2 0x1631 DUP2 PUSH2 0x13F3 JUMP JUMPDEST SWAP1 POP SWAP2 SWAP1 POP JUMP JUMPDEST PUSH1 0x0 PUSH1 0x20 DUP3 ADD SWAP1 POP DUP2 DUP2 SUB PUSH1 0x0 DUP4 ADD MSTORE PUSH2 0x1651 DUP2 PUSH2 0x1416 JUMP JUMPDEST SWAP1 POP SWAP2 SWAP1 POP JUMP JUMPDEST PUSH1 0x0 PUSH1 0x20 DUP3 ADD SWAP1 POP DUP2 DUP2 SUB PUSH1 0x0 DUP4 ADD MSTORE PUSH2 0x1671 DUP2 PUSH2 0x1439 JUMP JUMPDEST SWAP1 POP SWAP2 SWAP1 POP JUMP JUMPDEST PUSH1 0x0 PUSH1 0x20 DUP3 ADD SWAP1 POP DUP2 DUP2 SUB PUSH1 0x0 DUP4 ADD MSTORE PUSH2 0x1691 DUP2 PUSH2 0x145C JUMP JUMPDEST SWAP1 POP SWAP2 SWAP1 POP JUMP JUMPDEST PUSH1 0x0 PUSH1 0x20 DUP3 ADD SWAP1 POP DUP2 DUP2 SUB PUSH1 0x0 DUP4 ADD MSTORE PUSH2 0x16B1 DUP2 PUSH2 0x147F JUMP JUMPDEST SWAP1 POP SWAP2 SWAP1 POP JUMP JUMPDEST PUSH1 0x0 PUSH1 0x20 DUP3 ADD SWAP1 POP DUP2 DUP2 SUB PUSH1 0x0 DUP4 ADD MSTORE PUSH2 0x16D1 DUP2 PUSH2 0x14A2 JUMP JUMPDEST SWAP1 POP SWAP2 SWAP1 POP JUMP JUMPDEST PUSH1 0x0 DUP2 SWAP1 POP PUSH1 0x20 DUP3 ADD SWAP1 POP SWAP2 SWAP1 POP JUMP JUMPDEST PUSH1 0x0 DUP2 MLOAD SWAP1 POP SWAP2 SWAP1 POP JUMP JUMPDEST PUSH1 0x0 DUP2 MLOAD SWAP1 POP SWAP2 SWAP1 POP JUMP JUMPDEST PUSH1 0x0 PUSH1 0x20 DUP3 ADD SWAP1 POP SWAP2 SWAP1 POP JUMP JUMPDEST PUSH1 0x0 DUP3 DUP3 MSTORE PUSH1 0x20 DUP3 ADD SWAP1 POP SWAP3 SWAP2 POP POP JUMP JUMPDEST PUSH1 0x0 DUP3 DUP3 MSTORE PUSH1 0x20 DUP3 ADD SWAP1 POP SWAP3 SWAP2 POP POP JUMP JUMPDEST PUSH1 0x0 PUSH2 0x1738 DUP3 PUSH2 0x17A9 JUMP JUMPDEST SWAP2 POP PUSH2 0x1743 DUP4 PUSH2 0x17A9 JUMP JUMPDEST SWAP3 POP DUP3 DUP3 LT ISZERO PUSH2 0x1756 JUMPI PUSH2 0x1755 PUSH2 0x188F JUMP JUMPDEST JUMPDEST DUP3 DUP3 SUB SWAP1 POP SWAP3 SWAP2 POP POP JUMP JUMPDEST PUSH1 0x0 PUSH2 0x176C DUP3 PUSH2 0x1789 JUMP JUMPDEST SWAP1 POP SWAP2 SWAP1 POP JUMP JUMPDEST PUSH1 0x0 DUP2 ISZERO ISZERO SWAP1 POP SWAP2 SWAP1 POP JUMP JUMPDEST PUSH1 0x0 DUP2 SWAP1 POP SWAP2 SWAP1 POP JUMP JUMPDEST PUSH1 0x0 PUSH20 0xFFFFFFFFFFFFFFFFFFFFFFFFFFFFFFFFFFFFFFFF DUP3 AND SWAP1 POP SWAP2 SWAP1 POP JUMP JUMPDEST PUSH1 0x0 DUP2 SWAP1 POP SWAP2 SWAP1 POP JUMP JUMPDEST PUSH1 0x0 JUMPDEST DUP4 DUP2 LT ISZERO PUSH2 0x17D1 JUMPI DUP1 DUP3 ADD MLOAD DUP2 DUP5 ADD MSTORE PUSH1 0x20 DUP2 ADD SWAP1 POP PUSH2 0x17B6 JUMP JUMPDEST DUP4 DUP2 GT ISZERO PUSH2 0x17E0 JUMPI PUSH1 0x0 DUP5 DUP5 ADD MSTORE JUMPDEST POP POP POP POP JUMP JUMPDEST PUSH1 0x0 PUSH1 0x2 DUP3 DIV SWAP1 POP PUSH1 0x1 DUP3 AND DUP1 PUSH2 0x17FE JUMPI PUSH1 0x7F DUP3 AND SWAP2 POP JUMPDEST PUSH1 0x20 DUP3 LT DUP2 EQ ISZERO PUSH2 0x1812 JUMPI PUSH2 0x1811 PUSH2 0x18BE JUMP JUMPDEST JUMPDEST POP SWAP2 SWAP1 POP JUMP JUMPDEST PUSH1 0x0 PUSH2 0x1823 DUP3 PUSH2 0x17A9 JUMP JUMPDEST SWAP2 POP PUSH32 0xFFFFFFFFFFFFFFFFFFFFFFFFFFFFFFFFFFFFFFFFFFFFFFFFFFFFFFFFFFFFFFFF DUP3 EQ ISZERO PUSH2 0x1856 JUMPI PUSH2 0x1855 PUSH2 0x188F JUMP JUMPDEST JUMPDEST PUSH1 0x1 DUP3 ADD SWAP1 POP SWAP2 SWAP1 POP JUMP JUMPDEST PUSH1 0x0 PUSH2 0x186C DUP3 PUSH2 0x1873 JUMP JUMPDEST SWAP1 POP SWAP2 SWAP1 POP JUMP JUMPDEST PUSH1 0x0 PUSH2 0x187E DUP3 PUSH2 0x1946 JUMP JUMPDEST SWAP1 POP SWAP2 SWAP1 POP JUMP JUMPDEST PUSH1 0x0 DUP2 SWAP1 POP SWAP2 SWAP1 POP JUMP JUMPDEST PUSH32 0x4E487B7100000000000000000000000000000000000000000000000000000000 PUSH1 0x0 MSTORE PUSH1 0x11 PUSH1 0x4 MSTORE PUSH1 0x24 PUSH1 0x0 REVERT JUMPDEST PUSH32 0x4E487B7100000000000000000000000000000000000000000000000000000000 PUSH1 0x0 MSTORE PUSH1 0x22 PUSH1 0x4 MSTORE PUSH1 0x24 PUSH1 0x0 REVERT JUMPDEST PUSH32 0x4E487B7100000000000000000000000000000000000000000000000000000000 PUSH1 0x0 MSTORE PUSH1 0x32 PUSH1 0x4 MSTORE PUSH1 0x24 PUSH1 0x0 REVERT JUMPDEST PUSH1 0x0 DUP1 REVERT JUMPDEST PUSH1 0x0 DUP1 REVERT JUMPDEST PUSH1 0x0 DUP1 REVERT JUMPDEST PUSH1 0x0 DUP1 REVERT JUMPDEST PUSH1 0x0 DUP1 REVERT JUMPDEST PUSH1 0x0 PUSH1 0x1F NOT PUSH1 0x1F DUP4 ADD AND SWAP1 POP SWAP2 SWAP1 POP JUMP JUMPDEST PUSH1 0x0 DUP2 PUSH1 0x60 SHL SWAP1 POP SWAP2 SWAP1 POP JUMP JUMPDEST PUSH32 0x4F776E61626C653A206E6577206F776E657220697320746865207A65726F2061 PUSH1 0x0 DUP3 ADD MSTORE PUSH32 0x6464726573730000000000000000000000000000000000000000000000000000 PUSH1 0x20 DUP3 ADD MSTORE POP JUMP JUMPDEST PUSH32 0x6E6F7420656E6F756768206D6F6E657920746F2070617920656D706C6F796565 PUSH1 0x0 DUP3 ADD MSTORE PUSH32 0x7300000000000000000000000000000000000000000000000000000000000000 PUSH1 0x20 DUP3 ADD MSTORE POP JUMP JUMPDEST PUSH32 0x455243313136373A20637265617465206661696C656400000000000000000000 PUSH1 0x0 DUP3 ADD MSTORE POP JUMP JUMPDEST PUSH32 0x6E6F742070616D656E7420706572696F64000000000000000000000000000000 PUSH1 0x0 DUP3 ADD MSTORE POP JUMP JUMPDEST PUSH32 0x73616C617279207061796D656E74206F6E676F696E6700000000000000000000 PUSH1 0x0 DUP3 ADD MSTORE POP JUMP JUMPDEST PUSH32 0x4F776E61626C653A2063616C6C6572206973206E6F7420746865206F776E6572 PUSH1 0x0 DUP3 ADD MSTORE POP JUMP JUMPDEST PUSH32 0x74696D6520746F20636C61696D2073616C61727920656C617073656400000000 PUSH1 0x0 DUP3 ADD MSTORE POP JUMP JUMPDEST PUSH2 0x1AC7 DUP2 PUSH2 0x1761 JUMP JUMPDEST DUP2 EQ PUSH2 0x1AD2 JUMPI PUSH1 0x0 DUP1 REVERT JUMPDEST POP JUMP JUMPDEST PUSH2 0x1ADE DUP2 PUSH2 0x177F JUMP JUMPDEST DUP2 EQ PUSH2 0x1AE9 JUMPI PUSH1 0x0 DUP1 REVERT JUMPDEST POP JUMP JUMPDEST PUSH2 0x1AF5 DUP2 PUSH2 0x17A9 JUMP JUMPDEST DUP2 EQ PUSH2 0x1B00 JUMPI PUSH1 0x0 DUP1 REVERT JUMPDEST POP JUMP INVALID LOG2 PUSH5 0x6970667358 0x22 SLT KECCAK256 GT 0xC3 SWAP8 0xBC REVERT DUP10 0xD5 0x2B SWAP8 SIGNEXTEND LOG2 SWAP12 DUP3 0xA9 SGT 0x28 0xE4 0xFB 0xB0 0xB7 0xB8 MLOAD DUP1 0xF6 GT PUSH11 0xD5948386E4B664736F6C63 NUMBER STOP ADDMOD SMOD STOP CALLER "
				},
				"gasEstimates": {
					"creation": {
						"codeDepositCost": "1393800",
						"executionCost": "infinite",
						"totalCost": "infinite"
					},
					"external": {
						"AddEmployees(address,uint256)": "infinite",
						"CreatePayroll()": "infinite",
						"StaffsPayroll(uint256)": "infinite",
						"bizName()": "infinite",
						"bizSymb()": "infinite",
						"claim(uint256,bytes32[])": "infinite",
						"hasClaimedSalary(address)": "2890",
						"owner()": "2589",
						"payrollAddress()": "2560",
						"renounceOwnership()": "30397",
						"seeEMployees()": "infinite",
						"setPayement()": "48787",
						"transferOut()": "infinite",
						"transferOwnership(address)": "30811",
						"updateMerkleRoot(bytes32)": "24805"
					}
				},
				"methodIdentifiers": {
					"AddEmployees(address,uint256)": "d56d511c",
					"CreatePayroll()": "a5109f7b",
					"StaffsPayroll(uint256)": "41f4921e",
					"bizName()": "5ab37a4c",
					"bizSymb()": "49ce5a0f",
					"claim(uint256,bytes32[])": "2f52ebb7",
					"hasClaimedSalary(address)": "798bdfd1",
					"owner()": "8da5cb5b",
					"payrollAddress()": "21aee358",
					"renounceOwnership()": "715018a6",
					"seeEMployees()": "129fa0fe",
					"setPayement()": "a74da609",
					"transferOut()": "c10f410b",
					"transferOwnership(address)": "f2fde38b",
					"updateMerkleRoot(bytes32)": "4783f0ef"
				}
			},
			"storageLayout": {
				"storage": [
					{
						"astId": 7,
						"contract": "src/MerkleSalaryClaim.sol:MerkleSalaryClaim",
						"label": "_owner",
						"offset": 0,
						"slot": "0",
						"type": "t_address"
					},
					{
						"astId": 998,
						"contract": "src/MerkleSalaryClaim.sol:MerkleSalaryClaim",
						"label": "payrollAddress",
						"offset": 0,
						"slot": "1",
						"type": "t_address"
					},
					{
						"astId": 1005,
						"contract": "src/MerkleSalaryClaim.sol:MerkleSalaryClaim",
						"label": "payrollAddresses",
						"offset": 0,
						"slot": "2",
						"type": "t_array(t_address)dyn_storage"
					},
					{
						"astId": 1007,
						"contract": "src/MerkleSalaryClaim.sol:MerkleSalaryClaim",
						"label": "merkleRoot",
						"offset": 0,
						"slot": "3",
						"type": "t_bytes32"
					},
					{
						"astId": 1009,
						"contract": "src/MerkleSalaryClaim.sol:MerkleSalaryClaim",
						"label": "activatePayment",
						"offset": 0,
						"slot": "4",
						"type": "t_bool"
					},
					{
						"astId": 1011,
						"contract": "src/MerkleSalaryClaim.sol:MerkleSalaryClaim",
						"label": "startTime",
						"offset": 0,
						"slot": "5",
						"type": "t_uint256"
					},
					{
						"astId": 1013,
						"contract": "src/MerkleSalaryClaim.sol:MerkleSalaryClaim",
						"label": "bizName",
						"offset": 0,
						"slot": "6",
						"type": "t_string_storage"
					},
					{
						"astId": 1015,
						"contract": "src/MerkleSalaryClaim.sol:MerkleSalaryClaim",
						"label": "bizSymb",
						"offset": 0,
						"slot": "7",
						"type": "t_string_storage"
					},
					{
						"astId": 1024,
						"contract": "src/MerkleSalaryClaim.sol:MerkleSalaryClaim",
						"label": "StaffsPayroll",
						"offset": 0,
						"slot": "8",
						"type": "t_array(t_struct(Staff)1020_storage)dyn_storage"
					},
					{
						"astId": 1034,
						"contract": "src/MerkleSalaryClaim.sol:MerkleSalaryClaim",
						"label": "hasClaimedSalary",
						"offset": 0,
						"slot": "9",
						"type": "t_mapping(t_address,t_bool)"
					}
				],
				"types": {
					"t_address": {
						"encoding": "inplace",
						"label": "address",
						"numberOfBytes": "20"
					},
					"t_array(t_address)dyn_storage": {
						"base": "t_address",
						"encoding": "dynamic_array",
						"label": "address[]",
						"numberOfBytes": "32"
					},
					"t_array(t_struct(Staff)1020_storage)dyn_storage": {
						"base": "t_struct(Staff)1020_storage",
						"encoding": "dynamic_array",
						"label": "struct MerkleSalaryClaim.Staff[]",
						"numberOfBytes": "32"
					},
					"t_bool": {
						"encoding": "inplace",
						"label": "bool",
						"numberOfBytes": "1"
					},
					"t_bytes32": {
						"encoding": "inplace",
						"label": "bytes32",
						"numberOfBytes": "32"
					},
					"t_mapping(t_address,t_bool)": {
						"encoding": "mapping",
						"key": "t_address",
						"label": "mapping(address => bool)",
						"numberOfBytes": "32",
						"value": "t_bool"
					},
					"t_string_storage": {
						"encoding": "bytes",
						"label": "string",
						"numberOfBytes": "32"
					},
					"t_struct(Staff)1020_storage": {
						"encoding": "inplace",
						"label": "struct MerkleSalaryClaim.Staff",
						"members": [
							{
								"astId": 1017,
								"contract": "src/MerkleSalaryClaim.sol:MerkleSalaryClaim",
								"label": "employee",
								"offset": 0,
								"slot": "0",
								"type": "t_address"
							},
							{
								"astId": 1019,
								"contract": "src/MerkleSalaryClaim.sol:MerkleSalaryClaim",
								"label": "salary",
								"offset": 0,
								"slot": "1",
								"type": "t_uint256"
							}
						],
						"numberOfBytes": "64"
					},
					"t_uint256": {
						"encoding": "inplace",
						"label": "uint256",
						"numberOfBytes": "32"
					}
				}
			},
			"userdoc": {
				"kind": "user",
				"methods": {
					"updateMerkleRoot(bytes32)": {
						"notice": "==================FUNCTIONS ==============="
					}
				},
				"version": 1
			}
		}
	}
}