{
  "abi": [
    {
      "inputs": [
        {
          "internalType": "address",
          "name": "_payrollAdress",
          "type": "address"
        }
      ],
      "stateMutability": "nonpayable",
      "type": "constructor"
    },
    {
      "anonymous": false,
      "inputs": [
        {
          "indexed": true,
          "internalType": "address",
          "name": "previousOwner",
          "type": "address"
        },
        {
          "indexed": true,
          "internalType": "address",
          "name": "newOwner",
          "type": "address"
        }
      ],
      "name": "OwnershipTransferred",
      "type": "event"
    },
    {
      "anonymous": false,
      "inputs": [
        {
          "indexed": true,
          "internalType": "address",
          "name": "newPayroll",
          "type": "address"
        }
      ],
      "name": "payrollCreated",
      "type": "event"
    },
    {
      "inputs": [
        {
          "internalType": "string",
          "name": "_name",
          "type": "string"
        }
      ],
      "name": "CreatePayroll",
      "outputs": [],
      "stateMutability": "nonpayable",
      "type": "function"
    },
    {
      "inputs": [],
      "name": "getAllpayrolls",
      "outputs": [
        {
          "internalType": "address[]",
          "name": "_Allpayrolls",
          "type": "address[]"
        }
      ],
      "stateMutability": "view",
      "type": "function"
    },
    {
      "inputs": [],
      "name": "owner",
      "outputs": [
        {
          "internalType": "address",
          "name": "",
          "type": "address"
        }
      ],
      "stateMutability": "view",
      "type": "function"
    },
    {
      "inputs": [],
      "name": "payrollAddress",
      "outputs": [
        {
          "internalType": "address",
          "name": "",
          "type": "address"
        }
      ],
      "stateMutability": "view",
      "type": "function"
    },
    {
      "inputs": [],
      "name": "renounceOwnership",
      "outputs": [],
      "stateMutability": "nonpayable",
      "type": "function"
    },
    {
      "inputs": [
        {
          "internalType": "address",
          "name": "newOwner",
          "type": "address"
        }
      ],
      "name": "transferOwnership",
      "outputs": [],
      "stateMutability": "nonpayable",
      "type": "function"
    }
  ],
  "bytecode": {
    "object": "0x608060405234801561001057600080fd5b5060405161066b38038061066b83398101604081905261002f916100ad565b6100383361005d565b600180546001600160a01b0319166001600160a01b03929092169190911790556100dd565b600080546001600160a01b038381166001600160a01b0319831681178455604051919092169283917f8be0079c531659141344cd1fd0a4f28419497f9722a3daafe3b4186f6b6457e09190a35050565b6000602082840312156100bf57600080fd5b81516001600160a01b03811681146100d657600080fd5b9392505050565b61057f806100ec6000396000f3fe608060405234801561001057600080fd5b50600436106100625760003560e01c806321aee358146100675780634c42d37314610097578063715018a6146100ac5780638da5cb5b146100b6578063c29d0272146100c7578063f2fde38b146100da575b600080fd5b60015461007a906001600160a01b031681565b6040516001600160a01b0390911681526020015b60405180910390f35b61009f6100ed565b60405161008e9190610405565b6100b461014f565b005b6000546001600160a01b031661007a565b6100b46100d5366004610468565b6101ba565b6100b46100e8366004610519565b61024e565b6060600280548060200260200160405190810160405280929190818152602001828054801561014557602002820191906000526020600020905b81546001600160a01b03168152600190910190602001808311610127575b5050505050905090565b6000546001600160a01b031633146101ae5760405162461bcd60e51b815260206004820181905260248201527f4f776e61626c653a2063616c6c6572206973206e6f7420746865206f776e657260448201526064015b60405180910390fd5b6101b86000610319565b565b6001546000906101d2906001600160a01b0316610369565b6002805460018101825560009182527f405787fa12a823e0f2b7631cc41b3ba8828b3321ca811111fa75cd3aa3bb5ace0180546001600160a01b0319166001600160a01b038416908117909155604051929350917f5b6f2ca69c49e54072387225ba5fc2e130a2f96425b884e007ae49a82d12bdd99190a25050565b6000546001600160a01b031633146102a85760405162461bcd60e51b815260206004820181905260248201527f4f776e61626c653a2063616c6c6572206973206e6f7420746865206f776e657260448201526064016101a5565b6001600160a01b03811661030d5760405162461bcd60e51b815260206004820152602660248201527f4f776e61626c653a206e6577206f776e657220697320746865207a65726f206160448201526564647265737360d01b60648201526084016101a5565b61031681610319565b50565b600080546001600160a01b038381166001600160a01b0319831681178455604051919092169283917f8be0079c531659141344cd1fd0a4f28419497f9722a3daafe3b4186f6b6457e09190a35050565b600060405172602d8060093d393df3363d3d373d3d3d363d7360681b81528260601b60138201526e5af43d82803e903d91602b57fd5bf360881b60278201526036816000f09150506001600160a01b0381166104005760405162461bcd60e51b8152602060048201526016602482015275115490cc4c4d8dce8818dc99585d194819985a5b195960521b60448201526064016101a5565b919050565b6020808252825182820181905260009190848201906040850190845b818110156104465783516001600160a01b031683529284019291840191600101610421565b50909695505050505050565b634e487b7160e01b600052604160045260246000fd5b60006020828403121561047a57600080fd5b813567ffffffffffffffff8082111561049257600080fd5b818401915084601f8301126104a657600080fd5b8135818111156104b8576104b8610452565b604051601f8201601f19908116603f011681019083821181831017156104e0576104e0610452565b816040528281528760208487010111156104f957600080fd5b826020860160208301376000928101602001929092525095945050505050565b60006020828403121561052b57600080fd5b81356001600160a01b038116811461054257600080fd5b939250505056fea2646970667358221220c0f3974b2d661a8d3cca3ec0ebd1376c6b550dc504ce85cf80d44e46f19d886864736f6c634300080a0033",
    "linkReferences": {}
  }
}