{
  "abi": [
    {
      "inputs": [],
      "stateMutability": "nonpayable",
      "type": "constructor"
    },
    {
      "anonymous": false,
      "inputs": [
        {
          "indexed": true,
          "internalType": "address",
          "name": "previousOwner",
          "type": "address"
        },
        {
          "indexed": true,
          "internalType": "address",
          "name": "newOwner",
          "type": "address"
        }
      ],
      "name": "OwnershipTransferred",
      "type": "event"
    },
    {
      "anonymous": false,
      "inputs": [
        {
          "indexed": true,
          "internalType": "address",
          "name": "newPayroll",
          "type": "address"
        }
      ],
      "name": "payrollCreated",
      "type": "event"
    },
    {
      "inputs": [],
      "name": "CreatePayroll",
      "outputs": [],
      "stateMutability": "nonpayable",
      "type": "function"
    },
    {
      "inputs": [],
      "name": "getAllpayrolls",
      "outputs": [
        {
          "internalType": "address[]",
          "name": "_Allpayrolls",
          "type": "address[]"
        }
      ],
      "stateMutability": "view",
      "type": "function"
    },
    {
      "inputs": [],
      "name": "owner",
      "outputs": [
        {
          "internalType": "address",
          "name": "",
          "type": "address"
        }
      ],
      "stateMutability": "view",
      "type": "function"
    },
    {
      "inputs": [],
      "name": "payrollAddress",
      "outputs": [
        {
          "internalType": "address",
          "name": "",
          "type": "address"
        }
      ],
      "stateMutability": "view",
      "type": "function"
    },
    {
      "inputs": [],
      "name": "renounceOwnership",
      "outputs": [],
      "stateMutability": "nonpayable",
      "type": "function"
    },
    {
      "inputs": [
        {
          "internalType": "address",
          "name": "newOwner",
          "type": "address"
        }
      ],
      "name": "transferOwnership",
      "outputs": [],
      "stateMutability": "nonpayable",
      "type": "function"
    }
  ],
  "bytecode": {
    "object": "0x608060405234801561001057600080fd5b5061001a33610068565b604051610026906100b8565b604051809103906000f080158015610042573d6000803e3d6000fd5b50600180546001600160a01b0319166001600160a01b03929092169190911790556100c5565b600080546001600160a01b038381166001600160a01b0319831681178455604051919092169283917f8be0079c531659141344cd1fd0a4f28419497f9722a3daafe3b4186f6b6457e09190a35050565b610b738061058083390190565b6104ac806100d46000396000f3fe608060405234801561001057600080fd5b50600436106100625760003560e01c806321aee358146100675780634c42d37314610097578063715018a6146100ac5780638da5cb5b146100b6578063a5109f7b146100c7578063f2fde38b146100cf575b600080fd5b60015461007a906001600160a01b031681565b6040516001600160a01b0390911681526020015b60405180910390f35b61009f6100e2565b60405161008e91906103f9565b6100b4610144565b005b6000546001600160a01b031661007a565b6100b46101af565b6100b46100dd366004610446565b610242565b6060600280548060200260200160405190810160405280929190818152602001828054801561013a57602002820191906000526020600020905b81546001600160a01b0316815260019091019060200180831161011c575b5050505050905090565b6000546001600160a01b031633146101a35760405162461bcd60e51b815260206004820181905260248201527f4f776e61626c653a2063616c6c6572206973206e6f7420746865206f776e657260448201526064015b60405180910390fd5b6101ad600061030d565b565b6001546000906101c7906001600160a01b031661035d565b6002805460018101825560009182527f405787fa12a823e0f2b7631cc41b3ba8828b3321ca811111fa75cd3aa3bb5ace0180546001600160a01b0319166001600160a01b038416908117909155604051929350917f5b6f2ca69c49e54072387225ba5fc2e130a2f96425b884e007ae49a82d12bdd99190a250565b6000546001600160a01b0316331461029c5760405162461bcd60e51b815260206004820181905260248201527f4f776e61626c653a2063616c6c6572206973206e6f7420746865206f776e6572604482015260640161019a565b6001600160a01b0381166103015760405162461bcd60e51b815260206004820152602660248201527f4f776e61626c653a206e6577206f776e657220697320746865207a65726f206160448201526564647265737360d01b606482015260840161019a565b61030a8161030d565b50565b600080546001600160a01b038381166001600160a01b0319831681178455604051919092169283917f8be0079c531659141344cd1fd0a4f28419497f9722a3daafe3b4186f6b6457e09190a35050565b600060405172602d8060093d393df3363d3d373d3d3d363d7360681b81528260601b60138201526e5af43d82803e903d91602b57fd5bf360881b60278201526036816000f09150506001600160a01b0381166103f45760405162461bcd60e51b8152602060048201526016602482015275115490cc4c4d8dce8818dc99585d194819985a5b195960521b604482015260640161019a565b919050565b6020808252825182820181905260009190848201906040850190845b8181101561043a5783516001600160a01b031683529284019291840191600101610415565b50909695505050505050565b60006020828403121561045857600080fd5b81356001600160a01b038116811461046f57600080fd5b939250505056fea264697066735822122023e9278fd921b28e619a789d39f4e5960ff684593040b14af4da5bb7f9edd1f264736f6c634300080a0033608060405234801561001057600080fd5b5061001a3361001f565b61006f565b600080546001600160a01b038381166001600160a01b0319831681178455604051919092169283917f8be0079c531659141344cd1fd0a4f28419497f9722a3daafe3b4186f6b6457e09190a35050565b610af58061007e6000396000f3fe6080604052600436106100ab5760003560e01c80638286d395116100645780638286d395146101ab5780638da5cb5b146101cf578063a74da609146101f7578063c10f410b146101ff578063d56d511c14610214578063f2fde38b1461023457600080fd5b8063129fa0fe146100b75780632f52ebb7146100e257806341f4921e146100f75780634783f0ef14610136578063715018a614610156578063798bdfd11461016b57600080fd5b366100b257005b600080fd5b3480156100c357600080fd5b506100cc610254565b6040516100d991906108bc565b60405180910390f35b6100f56100f0366004610914565b6102c9565b005b34801561010357600080fd5b50610117610112366004610993565b6104cc565b604080516001600160a01b0390931683526020830191909152016100d9565b34801561014257600080fd5b506100f5610151366004610993565b610504565b34801561016257600080fd5b506100f5610533565b34801561017757600080fd5b5061019b6101863660046109c8565b60066020526000908152604090205460ff1681565b60405190151581526020016100d9565b3480156101b757600080fd5b506101c160045481565b6040519081526020016100d9565b3480156101db57600080fd5b506000546040516001600160a01b0390911681526020016100d9565b6100f5610569565b34801561020b57600080fd5b506100f5610602565b34801561022057600080fd5b506100cc61022f3660046109ea565b610665565b34801561024057600080fd5b506100f561024f3660046109c8565b610747565b60606005805480602002602001604051908101604052809291908181526020016000905b828210156102c0576000848152602090819020604080518082019091526002850290910180546001600160a01b03168252600190810154828401529083529092019101610278565b50505050905090565b60025460ff166103145760405162461bcd60e51b81526020600482015260116024820152701b9bdd081c185b595b9d081c195c9a5bd9607a1b60448201526064015b60405180910390fd5b62127500600354426103269190610a2a565b11156103745760405162461bcd60e51b815260206004820152601c60248201527f74696d6520746f20636c61696d2073616c61727920656c617073656400000000604482015260640161030b565b3360009081526006602052604090205460ff16156103a557604051630c8d9eab60e31b815260040160405180910390fd5b6040516bffffffffffffffffffffffff193360601b1660208201526034810184905260009060540160405160208183030381529060405280519060200120905060006104288484808060200260200160405190810160405280939291908181526020018383602002808284376000920191909152505060015491508590506107e2565b9050806104485760405163452c2df160e11b815260040160405180910390fd5b33600081815260066020526040808220805460ff191660011790555187156108fc0291889190818181858888f1935050505015801561048b573d6000803e3d6000fd5b5060408051338152602081018790527f47cee97cb7acd717b3c0aa1435d004cd5b3c8c57d70dbceb4e4458bbd60e39d4910160405180910390a15050505050565b600581815481106104dc57600080fd5b6000918252602090912060029091020180546001909101546001600160a01b03909116915082565b6000546001600160a01b0316331461052e5760405162461bcd60e51b815260040161030b90610a41565b600155565b6000546001600160a01b0316331461055d5760405162461bcd60e51b815260040161030b90610a41565b61056760006107f8565b565b6000546001600160a01b031633146105935760405162461bcd60e51b815260040161030b90610a41565b6004543410156105ef5760405162461bcd60e51b815260206004820152602160248201527f6e6f7420656e6f756768206d6f6e657920746f2070617920656d706c6f7965656044820152607360f81b606482015260840161030b565b6002805460ff1916600117905542600355565b6000546001600160a01b0316331461062c5760405162461bcd60e51b815260040161030b90610a41565b60405133904780156108fc02916000818181858888f19350505050158015610658573d6000803e3d6000fd5b506002805460ff19169055565b6000546060906001600160a01b031633146106925760405162461bcd60e51b815260040161030b90610a41565b604080518082019091526001600160a01b038481168252602082018481526005805460018101825560009190915283517f036b6384b5eca791c62761152d0c79bb0604c104a5fb6f4eb0703f3154bb3db0600290920291820180546001600160a01b0319169190941617909255517f036b6384b5eca791c62761152d0c79bb0604c104a5fb6f4eb0703f3154bb3db19091015561072d610254565b91508260045461073d9190610a76565b6004555092915050565b6000546001600160a01b031633146107715760405162461bcd60e51b815260040161030b90610a41565b6001600160a01b0381166107d65760405162461bcd60e51b815260206004820152602660248201527f4f776e61626c653a206e6577206f776e657220697320746865207a65726f206160448201526564647265737360d01b606482015260840161030b565b6107df816107f8565b50565b6000826107ef8584610848565b14949350505050565b600080546001600160a01b038381166001600160a01b0319831681178455604051919092169283917f8be0079c531659141344cd1fd0a4f28419497f9722a3daafe3b4186f6b6457e09190a35050565b600081815b84518110156108b457600085828151811061086a5761086a610a8e565b6020026020010151905080831161089057600083815260208290526040902092506108a1565b600081815260208490526040902092505b50806108ac81610aa4565b91505061084d565b509392505050565b602080825282518282018190526000919060409081850190868401855b8281101561090757815180516001600160a01b031685528601518685015292840192908501906001016108d9565b5091979650505050505050565b60008060006040848603121561092957600080fd5b83359250602084013567ffffffffffffffff8082111561094857600080fd5b818601915086601f83011261095c57600080fd5b81358181111561096b57600080fd5b8760208260051b850101111561098057600080fd5b6020830194508093505050509250925092565b6000602082840312156109a557600080fd5b5035919050565b80356001600160a01b03811681146109c357600080fd5b919050565b6000602082840312156109da57600080fd5b6109e3826109ac565b9392505050565b600080604083850312156109fd57600080fd5b610a06836109ac565b946020939093013593505050565b634e487b7160e01b600052601160045260246000fd5b600082821015610a3c57610a3c610a14565b500390565b6020808252818101527f4f776e61626c653a2063616c6c6572206973206e6f7420746865206f776e6572604082015260600190565b60008219821115610a8957610a89610a14565b500190565b634e487b7160e01b600052603260045260246000fd5b6000600019821415610ab857610ab8610a14565b506001019056fea2646970667358221220722dde93754d19db4d907625f83af21d589981809012323c2b96028d5f804d3d64736f6c634300080a0033",
    "linkReferences": {}
  }
}