{
  "abi": [
    {
      "inputs": [],
      "name": "AlreadyClaimed",
      "type": "error"
    },
    {
      "inputs": [],
      "name": "NotInMerkle",
      "type": "error"
    },
    {
      "anonymous": false,
      "inputs": [
        {
          "indexed": false,
          "internalType": "address",
          "name": "",
          "type": "address"
        },
        {
          "indexed": false,
          "internalType": "uint256",
          "name": "",
          "type": "uint256"
        }
      ],
      "name": "Claim",
      "type": "event"
    },
    {
      "anonymous": false,
      "inputs": [
        {
          "indexed": true,
          "internalType": "address",
          "name": "previousOwner",
          "type": "address"
        },
        {
          "indexed": true,
          "internalType": "address",
          "name": "newOwner",
          "type": "address"
        }
      ],
      "name": "OwnershipTransferred",
      "type": "event"
    },
    {
      "inputs": [
        {
          "internalType": "address",
          "name": "_employee",
          "type": "address"
        },
        {
          "internalType": "uint256",
          "name": "_salary",
          "type": "uint256"
        }
      ],
      "name": "AddEmployees",
      "outputs": [
        {
          "components": [
            {
              "internalType": "address",
              "name": "employee",
              "type": "address"
            },
            {
              "internalType": "uint256",
              "name": "salary",
              "type": "uint256"
            }
          ],
          "internalType": "struct MerkleERC20Claim.Staff[]",
          "name": "_staffsPayroll",
          "type": "tuple[]"
        }
      ],
      "stateMutability": "nonpayable",
      "type": "function"
    },
    {
      "inputs": [
        {
          "internalType": "uint256",
          "name": "",
          "type": "uint256"
        }
      ],
      "name": "StaffsPayroll",
      "outputs": [
        {
          "internalType": "address",
          "name": "employee",
          "type": "address"
        },
        {
          "internalType": "uint256",
          "name": "salary",
          "type": "uint256"
        }
      ],
      "stateMutability": "view",
      "type": "function"
    },
    {
      "inputs": [],
      "name": "bizName",
      "outputs": [
        {
          "internalType": "string",
          "name": "",
          "type": "string"
        }
      ],
      "stateMutability": "view",
      "type": "function"
    },
    {
      "inputs": [],
      "name": "bizSymb",
      "outputs": [
        {
          "internalType": "string",
          "name": "",
          "type": "string"
        }
      ],
      "stateMutability": "view",
      "type": "function"
    },
    {
      "inputs": [
        {
          "internalType": "uint256",
          "name": "amount",
          "type": "uint256"
        },
        {
          "internalType": "bytes32[]",
          "name": "proof",
          "type": "bytes32[]"
        }
      ],
      "name": "claim",
      "outputs": [],
      "stateMutability": "payable",
      "type": "function"
    },
    {
      "inputs": [
        {
          "internalType": "address",
          "name": "",
          "type": "address"
        }
      ],
      "name": "hasClaimedSalary",
      "outputs": [
        {
          "internalType": "bool",
          "name": "",
          "type": "bool"
        }
      ],
      "stateMutability": "view",
      "type": "function"
    },
    {
      "inputs": [],
      "name": "owner",
      "outputs": [
        {
          "internalType": "address",
          "name": "",
          "type": "address"
        }
      ],
      "stateMutability": "view",
      "type": "function"
    },
    {
      "inputs": [],
      "name": "renounceOwnership",
      "outputs": [],
      "stateMutability": "nonpayable",
      "type": "function"
    },
    {
      "inputs": [],
      "name": "seeEMployees",
      "outputs": [
        {
          "components": [
            {
              "internalType": "address",
              "name": "employee",
              "type": "address"
            },
            {
              "internalType": "uint256",
              "name": "salary",
              "type": "uint256"
            }
          ],
          "internalType": "struct MerkleERC20Claim.Staff[]",
          "name": "_staffsPayroll",
          "type": "tuple[]"
        }
      ],
      "stateMutability": "view",
      "type": "function"
    },
    {
      "inputs": [],
      "name": "setPayement",
      "outputs": [],
      "stateMutability": "payable",
      "type": "function"
    },
    {
      "inputs": [],
      "name": "transferOut",
      "outputs": [],
      "stateMutability": "nonpayable",
      "type": "function"
    },
    {
      "inputs": [
        {
          "internalType": "address",
          "name": "newOwner",
          "type": "address"
        }
      ],
      "name": "transferOwnership",
      "outputs": [],
      "stateMutability": "nonpayable",
      "type": "function"
    },
    {
      "inputs": [
        {
          "internalType": "bytes32",
          "name": "_merkleRoot",
          "type": "bytes32"
        }
      ],
      "name": "updateMerkleRoot",
      "outputs": [],
      "stateMutability": "nonpayable",
      "type": "function"
    },
    {
      "stateMutability": "payable",
      "type": "receive"
    }
  ],
  "bytecode": {
    "object": "0x608060405234801561001057600080fd5b5061001a3361001f565b61006f565b600080546001600160a01b038381166001600160a01b0319831681178455604051919092169283917f8be0079c531659141344cd1fd0a4f28419497f9722a3daafe3b4186f6b6457e09190a35050565b610c918061007e6000396000f3fe6080604052600436106100c65760003560e01c8063715018a61161007f578063a74da60911610059578063a74da60914610225578063c10f410b1461022d578063d56d511c14610242578063f2fde38b1461026257600080fd5b8063715018a6146101a8578063798bdfd1146101bd5780638da5cb5b146101fd57600080fd5b8063129fa0fe146100d25780632f52ebb7146100fd57806341f4921e146101125780634783f0ef1461015157806349ce5a0f146101715780635ab37a4c1461019357600080fd5b366100cd57005b600080fd5b3480156100de57600080fd5b506100e7610282565b6040516100f491906109e0565b60405180910390f35b61011061010b366004610a38565b6102f7565b005b34801561011e57600080fd5b5061013261012d366004610ab7565b6104fa565b604080516001600160a01b0390931683526020830191909152016100f4565b34801561015d57600080fd5b5061011061016c366004610ab7565b610532565b34801561017d57600080fd5b50610186610561565b6040516100f49190610ad0565b34801561019f57600080fd5b506101866105ef565b3480156101b457600080fd5b506101106105fc565b3480156101c957600080fd5b506101ed6101d8366004610b41565b60076020526000908152604090205460ff1681565b60405190151581526020016100f4565b34801561020957600080fd5b506000546040516001600160a01b0390911681526020016100f4565b610110610632565b34801561023957600080fd5b506101106106d1565b34801561024e57600080fd5b506100e761025d366004610b63565b61079b565b34801561026e57600080fd5b5061011061027d366004610b41565b61086b565b60606006805480602002602001604051908101604052809291908181526020016000905b828210156102ee576000848152602090819020604080518082019091526002850290910180546001600160a01b031682526001908101548284015290835290920191016102a6565b50505050905090565b60025460ff166103425760405162461bcd60e51b81526020600482015260116024820152701b9bdd081c185b595b9d081c195c9a5bd9607a1b60448201526064015b60405180910390fd5b62127500600354426103549190610ba3565b11156103a25760405162461bcd60e51b815260206004820152601c60248201527f74696d6520746f20636c61696d2073616c61727920656c6170736564000000006044820152606401610339565b3360009081526007602052604090205460ff16156103d357604051630c8d9eab60e31b815260040160405180910390fd5b6040516bffffffffffffffffffffffff193360601b166020820152603481018490526000906054016040516020818303038152906040528051906020012090506000610456848480806020026020016040519081016040528093929190818152602001838360200280828437600092019190915250506001549150859050610906565b9050806104765760405163452c2df160e11b815260040160405180910390fd5b33600081815260076020526040808220805460ff191660011790555187156108fc0291889190818181858888f193505050501580156104b9573d6000803e3d6000fd5b5060408051338152602081018790527f47cee97cb7acd717b3c0aa1435d004cd5b3c8c57d70dbceb4e4458bbd60e39d4910160405180910390a15050505050565b6006818154811061050a57600080fd5b6000918252602090912060029091020180546001909101546001600160a01b03909116915082565b6000546001600160a01b0316331461055c5760405162461bcd60e51b815260040161033990610bba565b600155565b6005805461056e90610bef565b80601f016020809104026020016040519081016040528092919081815260200182805461059a90610bef565b80156105e75780601f106105bc576101008083540402835291602001916105e7565b820191906000526020600020905b8154815290600101906020018083116105ca57829003601f168201915b505050505081565b6004805461056e90610bef565b6000546001600160a01b031633146106265760405162461bcd60e51b815260040161033990610bba565b610630600061091c565b565b6000546001600160a01b0316331461065c5760405162461bcd60e51b815260040161033990610bba565b670de0b6b3a76400003410156106be5760405162461bcd60e51b815260206004820152602160248201527f6e6f7420656e6f756768206d6f6e657920746f2070617920656d706c6f7965656044820152607360f81b6064820152608401610339565b6002805460ff1916600117905542600355565b6000546001600160a01b031633146106fb5760405162461bcd60e51b815260040161033990610bba565b621275006003544261070d9190610ba3565b10156107545760405162461bcd60e51b815260206004820152601660248201527573616c617279207061796d656e74206f6e676f696e6760501b6044820152606401610339565b600080546040516001600160a01b03909116914780156108fc02929091818181858888f1935050505015801561078e573d6000803e3d6000fd5b506002805460ff19169055565b6000546060906001600160a01b031633146107c85760405162461bcd60e51b815260040161033990610bba565b604080518082019091526001600160a01b038481168252602082018481526006805460018101825560009190915283517ff652222313e28459528d920b65115c16c04f3efc82aaedc97be59f3f377c0d3f600290920291820180546001600160a01b0319169190941617909255517ff652222313e28459528d920b65115c16c04f3efc82aaedc97be59f3f377c0d4090910155610863610282565b949350505050565b6000546001600160a01b031633146108955760405162461bcd60e51b815260040161033990610bba565b6001600160a01b0381166108fa5760405162461bcd60e51b815260206004820152602660248201527f4f776e61626c653a206e6577206f776e657220697320746865207a65726f206160448201526564647265737360d01b6064820152608401610339565b6109038161091c565b50565b600082610913858461096c565b14949350505050565b600080546001600160a01b038381166001600160a01b0319831681178455604051919092169283917f8be0079c531659141344cd1fd0a4f28419497f9722a3daafe3b4186f6b6457e09190a35050565b600081815b84518110156109d857600085828151811061098e5761098e610c2a565b602002602001015190508083116109b457600083815260208290526040902092506109c5565b600081815260208490526040902092505b50806109d081610c40565b915050610971565b509392505050565b602080825282518282018190526000919060409081850190868401855b82811015610a2b57815180516001600160a01b031685528601518685015292840192908501906001016109fd565b5091979650505050505050565b600080600060408486031215610a4d57600080fd5b83359250602084013567ffffffffffffffff80821115610a6c57600080fd5b818601915086601f830112610a8057600080fd5b813581811115610a8f57600080fd5b8760208260051b8501011115610aa457600080fd5b6020830194508093505050509250925092565b600060208284031215610ac957600080fd5b5035919050565b600060208083528351808285015260005b81811015610afd57858101830151858201604001528201610ae1565b81811115610b0f576000604083870101525b50601f01601f1916929092016040019392505050565b80356001600160a01b0381168114610b3c57600080fd5b919050565b600060208284031215610b5357600080fd5b610b5c82610b25565b9392505050565b60008060408385031215610b7657600080fd5b610b7f83610b25565b946020939093013593505050565b634e487b7160e01b600052601160045260246000fd5b600082821015610bb557610bb5610b8d565b500390565b6020808252818101527f4f776e61626c653a2063616c6c6572206973206e6f7420746865206f776e6572604082015260600190565b600181811c90821680610c0357607f821691505b60208210811415610c2457634e487b7160e01b600052602260045260246000fd5b50919050565b634e487b7160e01b600052603260045260246000fd5b6000600019821415610c5457610c54610b8d565b506001019056fea264697066735822122090fe6175d44e7a440f6a7ffccf56a4b1f4a6147b56318e3aa94f547213d6468f64736f6c634300080a0033",
    "linkReferences": {}
  }
}