{
  "abi": [
    {
      "inputs": [
        {
          "internalType": "string",
          "name": "_name",
          "type": "string"
        },
        {
          "internalType": "address",
          "name": "_Admin",
          "type": "address"
        }
      ],
      "stateMutability": "nonpayable",
      "type": "constructor"
    },
    {
      "inputs": [],
      "name": "AlreadyClaimed",
      "type": "error"
    },
    {
      "inputs": [],
      "name": "NotInMerkle",
      "type": "error"
    },
    {
      "anonymous": false,
      "inputs": [
        {
          "indexed": false,
          "internalType": "address",
          "name": "",
          "type": "address"
        },
        {
          "indexed": false,
          "internalType": "uint256",
          "name": "",
          "type": "uint256"
        }
      ],
      "name": "Claim",
      "type": "event"
    },
    {
      "inputs": [
        {
          "internalType": "address",
          "name": "_employee",
          "type": "address"
        },
        {
          "internalType": "uint256",
          "name": "_salary",
          "type": "uint256"
        }
      ],
      "name": "AddEmployees",
      "outputs": [
        {
          "components": [
            {
              "internalType": "address",
              "name": "employee",
              "type": "address"
            },
            {
              "internalType": "uint256",
              "name": "salary",
              "type": "uint256"
            }
          ],
          "internalType": "struct MerkleSalaryClaim.Staff[]",
          "name": "_staffsPayroll",
          "type": "tuple[]"
        }
      ],
      "stateMutability": "nonpayable",
      "type": "function"
    },
    {
      "inputs": [
        {
          "internalType": "uint256",
          "name": "",
          "type": "uint256"
        }
      ],
      "name": "StaffsPayroll",
      "outputs": [
        {
          "internalType": "address",
          "name": "employee",
          "type": "address"
        },
        {
          "internalType": "uint256",
          "name": "salary",
          "type": "uint256"
        }
      ],
      "stateMutability": "view",
      "type": "function"
    },
    {
      "inputs": [],
      "name": "TotalSalary",
      "outputs": [
        {
          "internalType": "uint256",
          "name": "",
          "type": "uint256"
        }
      ],
      "stateMutability": "view",
      "type": "function"
    },
    {
      "inputs": [
        {
          "internalType": "address",
          "name": "newOwner",
          "type": "address"
        }
      ],
      "name": "changeAdmin",
      "outputs": [
        {
          "internalType": "address",
          "name": "",
          "type": "address"
        }
      ],
      "stateMutability": "nonpayable",
      "type": "function"
    },
    {
      "inputs": [
        {
          "internalType": "uint256",
          "name": "amount",
          "type": "uint256"
        },
        {
          "internalType": "bytes32[]",
          "name": "proof",
          "type": "bytes32[]"
        }
      ],
      "name": "claim",
      "outputs": [],
      "stateMutability": "payable",
      "type": "function"
    },
    {
      "inputs": [],
      "name": "contractDetails",
      "outputs": [
        {
          "internalType": "address",
          "name": "ContractAddress",
          "type": "address"
        },
        {
          "internalType": "address",
          "name": "owner",
          "type": "address"
        },
        {
          "internalType": "string",
          "name": "bizName",
          "type": "string"
        }
      ],
      "stateMutability": "view",
      "type": "function"
    },
    {
      "inputs": [],
      "name": "getAdmin",
      "outputs": [
        {
          "internalType": "address",
          "name": "",
          "type": "address"
        }
      ],
      "stateMutability": "view",
      "type": "function"
    },
    {
      "inputs": [
        {
          "internalType": "address",
          "name": "",
          "type": "address"
        }
      ],
      "name": "hasClaimedSalary",
      "outputs": [
        {
          "internalType": "bool",
          "name": "",
          "type": "bool"
        }
      ],
      "stateMutability": "view",
      "type": "function"
    },
    {
      "inputs": [],
      "name": "seeEMployees",
      "outputs": [
        {
          "components": [
            {
              "internalType": "address",
              "name": "employee",
              "type": "address"
            },
            {
              "internalType": "uint256",
              "name": "salary",
              "type": "uint256"
            }
          ],
          "internalType": "struct MerkleSalaryClaim.Staff[]",
          "name": "_staffsPayroll",
          "type": "tuple[]"
        }
      ],
      "stateMutability": "view",
      "type": "function"
    },
    {
      "inputs": [],
      "name": "setPayement",
      "outputs": [],
      "stateMutability": "payable",
      "type": "function"
    },
    {
      "inputs": [],
      "name": "setValue",
      "outputs": [],
      "stateMutability": "payable",
      "type": "function"
    },
    {
      "inputs": [],
      "name": "transferOut",
      "outputs": [],
      "stateMutability": "nonpayable",
      "type": "function"
    },
    {
      "inputs": [
        {
          "internalType": "bytes32",
          "name": "_merkleRoot",
          "type": "bytes32"
        }
      ],
      "name": "updateMerkleRoot",
      "outputs": [],
      "stateMutability": "nonpayable",
      "type": "function"
    },
    {
      "stateMutability": "payable",
      "type": "receive"
    }
  ],
  "bytecode": {
    "object": "0x60806040523480156200001157600080fd5b5060405162000ed338038062000ed3833981016040819052620000349162000158565b600580546001600160a01b0319166001600160a01b0383161790558151620000649060069060208501906200007f565b5050600480546001600160a01b031916301790555062000286565b8280546200008d9062000249565b90600052602060002090601f016020900481019282620000b15760008555620000fc565b82601f10620000cc57805160ff1916838001178555620000fc565b82800160010185558215620000fc579182015b82811115620000fc578251825591602001919060010190620000df565b506200010a9291506200010e565b5090565b5b808211156200010a57600081556001016200010f565b634e487b7160e01b600052604160045260246000fd5b80516001600160a01b03811681146200015357600080fd5b919050565b600080604083850312156200016c57600080fd5b82516001600160401b03808211156200018457600080fd5b818501915085601f8301126200019957600080fd5b815181811115620001ae57620001ae62000125565b604051601f8201601f19908116603f01168101908382118183101715620001d957620001d962000125565b81604052828152602093508884848701011115620001f657600080fd5b600091505b828210156200021a5784820184015181830185015290830190620001fb565b828211156200022c5760008484830101525b95506200023e9150508582016200013b565b925050509250929050565b600181811c908216806200025e57607f821691505b602082108114156200028057634e487b7160e01b600052602260045260246000fd5b50919050565b610c3d80620002966000396000f3fe6080604052600436106100c65760003560e01c80636e9960c31161007f5780638f283970116100595780638f28397014610233578063a74da60914610253578063c10f410b1461025b578063d56d511c1461027057600080fd5b80636e9960c31461019d578063798bdfd1146101cf5780638286d3951461020f57600080fd5b8063129fa0fe146100d25780632f52ebb7146100fd57806339571d6e1461011257806341f4921e146101365780634783f0ef146101755780634fa519fa1461019557600080fd5b366100cd57005b600080fd5b3480156100de57600080fd5b506100e7610290565b6040516100f49190610951565b60405180910390f35b61011061010b3660046109a9565b610305565b005b34801561011e57600080fd5b50610127610506565b6040516100f493929190610a28565b34801561014257600080fd5b50610156610151366004610a99565b6105ae565b604080516001600160a01b0390931683526020830191909152016100f4565b34801561018157600080fd5b50610110610190366004610a99565b6105e6565b610110610615565b3480156101a957600080fd5b506005546001600160a01b03165b6040516001600160a01b0390911681526020016100f4565b3480156101db57600080fd5b506101ff6101ea366004610ac9565b60086020526000908152604090205460ff1681565b60405190151581526020016100f4565b34801561021b57600080fd5b5061022560035481565b6040519081526020016100f4565b34801561023f57600080fd5b506101b761024e366004610ac9565b610651565b6101106106a3565b34801561026757600080fd5b50610110610729565b34801561027c57600080fd5b506100e761028b366004610aeb565b6107e5565b60606007805480602002602001604051908101604052809291908181526020016000905b828210156102fc576000848152602090819020604080518082019091526002850290910180546001600160a01b031682526001908101548284015290835290920191016102b4565b50505050905090565b60015460ff166103505760405162461bcd60e51b81526020600482015260116024820152701b9bdd081c185b595b9d081c195c9a5bd9607a1b60448201526064015b60405180910390fd5b62127500600254426103629190610b2b565b11156103b05760405162461bcd60e51b815260206004820152601c60248201527f74696d6520746f20636c61696d2073616c61727920656c6170736564000000006044820152606401610347565b3360009081526008602052604090205460ff16156103e157604051630c8d9eab60e31b815260040160405180910390fd5b6040516bffffffffffffffffffffffff193360601b16602082015260348101849052600090605401604051602081830303815290604052805190602001209050600061046284848080602002602001604051908101604052809392919081815260200183836020028082843760009201829052505492508691506108c79050565b9050806104825760405163452c2df160e11b815260040160405180910390fd5b33600081815260086020526040808220805460ff191660011790555187156108fc0291889190818181858888f193505050501580156104c5573d6000803e3d6000fd5b5060408051338152602081018790527f47cee97cb7acd717b3c0aa1435d004cd5b3c8c57d70dbceb4e4458bbd60e39d4910160405180910390a15050505050565b60048054600554600680546001600160a01b0393841694929093169261052b90610b42565b80601f016020809104026020016040519081016040528092919081815260200182805461055790610b42565b80156105a45780601f10610579576101008083540402835291602001916105a4565b820191906000526020600020905b81548152906001019060200180831161058757829003601f168201915b5050505050905083565b600781815481106105be57600080fd5b6000918252602090912060029091020180546001909101546001600160a01b03909116915082565b6005546001600160a01b031633146106105760405162461bcd60e51b815260040161034790610b7d565b600055565b6005546001600160a01b0316331461063f5760405162461bcd60e51b815260040161034790610b7d565b6001805460ff19168117905542600255565b6005546000906001600160a01b0316331461067e5760405162461bcd60e51b815260040161034790610b7d565b50600580546001600160a01b0319166001600160a01b0383169081179091555b919050565b6005546001600160a01b031633146106cd5760405162461bcd60e51b815260040161034790610b7d565b60035434101561063f5760405162461bcd60e51b815260206004820152602160248201527f6e6f7420656e6f756768206d6f6e657920746f2070617920656d706c6f7965656044820152607360f81b6064820152608401610347565b6005546001600160a01b031633146107535760405162461bcd60e51b815260040161034790610b7d565b62127500600254426107659190610b2b565b10156107ac5760405162461bcd60e51b815260206004820152601660248201527573616c617279207061796d656e74206f6e676f696e6760501b6044820152606401610347565b60405133904780156108fc02916000818181858888f193505050501580156107d8573d6000803e3d6000fd5b506001805460ff19169055565b6005546060906001600160a01b031633146108125760405162461bcd60e51b815260040161034790610b7d565b604080518082019091526001600160a01b038481168252602082018481526007805460018101825560009190915283517fa66cc928b5edb82af9bd49922954155ab7b0942694bea4ce44661d9a8736c688600290920291820180546001600160a01b0319169190941617909255517fa66cc928b5edb82af9bd49922954155ab7b0942694bea4ce44661d9a8736c689909101556108ad610290565b9150826003546108bd9190610bbe565b6003555092915050565b6000826108d485846108dd565b14949350505050565b600081815b84518110156109495760008582815181106108ff576108ff610bd6565b602002602001015190508083116109255760008381526020829052604090209250610936565b600081815260208490526040902092505b508061094181610bec565b9150506108e2565b509392505050565b602080825282518282018190526000919060409081850190868401855b8281101561099c57815180516001600160a01b0316855286015186850152928401929085019060010161096e565b5091979650505050505050565b6000806000604084860312156109be57600080fd5b83359250602084013567ffffffffffffffff808211156109dd57600080fd5b818601915086601f8301126109f157600080fd5b813581811115610a0057600080fd5b8760208260051b8501011115610a1557600080fd5b6020830194508093505050509250925092565b600060018060a01b038086168352602081861681850152606060408501528451915081606085015260005b82811015610a6f57858101820151858201608001528101610a53565b82811115610a81576000608084870101525b5050601f01601f191691909101608001949350505050565b600060208284031215610aab57600080fd5b5035919050565b80356001600160a01b038116811461069e57600080fd5b600060208284031215610adb57600080fd5b610ae482610ab2565b9392505050565b60008060408385031215610afe57600080fd5b610b0783610ab2565b946020939093013593505050565b634e487b7160e01b600052601160045260246000fd5b600082821015610b3d57610b3d610b15565b500390565b600181811c90821680610b5657607f821691505b60208210811415610b7757634e487b7160e01b600052602260045260246000fd5b50919050565b60208082526021908201527f4f6e6c792041646d696e2063616e2063616c6c20746869732066756e6374696f6040820152603760f91b606082015260800190565b60008219821115610bd157610bd1610b15565b500190565b634e487b7160e01b600052603260045260246000fd5b6000600019821415610c0057610c00610b15565b506001019056fea2646970667358221220eaffc663871236f3f224a899d67dd7f705a01f02a546189809c9493e4cb95fc764736f6c634300080a0033",
    "linkReferences": {}
  }
}